:10000000F8FF002011040000CD2B0000CD2B0000D4
:10001000CD2B0000CD2B0000CD2B0000CD2B000000
:10002000CD2B0000CD2B0000CD2B0000CD2B0000F0
:10003000CD2B0000CD2B0000CD2B0000CD2B0000E0
:10004000CD2B0000CD2B0000CD2B0000CD2B0000D0
:10040000FFFFFFFFFFFFFFFFFFFFFFFFFEFFFFFFFD
:1004100062B607F013FCFEE738B54148036841486F
:10042000026814001D00404801684048006801F05F
:1004300099F801002B0022003D4801F0FFF83D48EB
:1004400003683D4802683D480168DFF8300D01F05F
:10045000F5F831BD2DE9F0410600884610001F0077
:1004600037490968052298FBF2F2B1FBF2F302FB6F
:10047000131100294CD132490968002929D1314989
:100480000978090706D42F48007850F008002D4954
:10049000087005E001F0DCF8316801F003F9306024
:1004A000306801F041F904000D00404601F064F9A4
:1004B0000022DFF8CC3C01F077F902000B002000AD
:1004C000290001F071F901F093FA386000203060E2
:1004D00024E001F0BDF8316801F0E4F830603068E4
:1004E00001F022F904000D00404601F045F9002218
:1004F000DFF88C3C01F058F902000B0020002900C5
:1005000001F052F901F074FA38600020306005E023
:1005100001F09EF8316801F0C5F83060BDE8F08167
:100520001400001410000014000000140C0000144B
:100530005C0C001424000014200000141C000014A3
:10054000E80C00146A0F00142DE9F24F82B08146C6
:100550000024002500264846DFF8281C096801F021
:100560008FFA82465FF000085FF0000B0027DFF88B
:10057000180CB0F90000DFF8141CB1F900100818CD
:10058000022190FBF1F0DFF8081C0880DFF8043C42
:10059000DFF8FC0BB0F90020DFF8FC0B0168DFF896
:1005A000FC0BFFF757FFDFF8F80B0068DFF8E41BE0
:1005B000096801F065FA8346DFF8E83BDFF8C80B0D
:1005C000B0F90020DFF8E00B0168DFF8E00BFFF77F
:1005D00041FFDFF8DC3BDFF8B40BB0F90020DFF8B7
:1005E000C80B0168DFF8CC0BFFF734FFDFF8C80B4E
:1005F000007810F0FD00DFF8C01B0870DFF8B80BC2
:10060000007810F0EF00DFF8B01B0870DFF8A80BDF
:10061000007880074DD4DFF8880B006801F084F87B
:10062000DFF8702DDFF8943B01F09EFA02000B001A
:10063000CDE90023DFF8580BB0F9000001F008F80D
:10064000DFF85C1B096801F01BFA01F06DF8DDE9C9
:10065000002301F05BFB2CD2DFF8340BB0F9000073
:1006600000F0F6FFDFF8381B096801F009FA01F025
:100670005BF802000B00CDE90023DFF8240B0068D3
:1006800001F052F8DFF80C2DDFF8343B01F06CFA82
:10069000DDE9002301F03AFB0BD2DFF81C0B0078F8
:1006A00050F00200DFF8101B08700020DFF8E81C93
:1006B0000860DFF8E80A0068DFF8E01CC860484618
:1006C00000F082FE0020DFF8D81C0860DFF8C00AC6
:1006D000B0F9000001F031FBDFF8C81C0978C90748
:1006E00031D50027504601F01FF831F00041CDE927
:1006F0000001DFF8D00A006801F016F8DDE90023F8
:1007000001F032FA01F074F907005046002101F0BF
:1007100019FB0CD8DFF8900C0068494600F022FF66
:10072000390000F0BFFFDFF8781C08600BE0DFF84D
:10073000780C0068494600F015FF390001F0A0F977
:10074000DFF85C1C0860DFF83C0AC0F80090DFF8B6
:10075000680A0078C00768D44846DFF8501C01F0EA
:10076000F1FA23D94846DFF8481C01F0FDFA1DD301
:10077000DFF81C0AB0F9000000F2F31040F2E73194
:10078000884213D2DFF8000AB0F9000000F2F3103B
:1007900040F2E731884209D2DFF8F009B0F90000F1
:1007A00000F2F31040F2E731884218D3DFF8080A6C
:1007B000007850F00100DFF8001A0870DFF8040D2F
:1007C000006800F045FFDFF8EC1B096800F0CAFE86
:1007D000414600F067FF8046DFF8DC7B80E0DFF811
:1007E000DC0B0068DFF8B0190968052291FBF2F113
:1007F000B0FBF1F201FB120000280CD1CDF800A0F3
:10080000DFF89C0B0368DFF8B82BDFF88C0B01686E
:10081000584600F0D9FCDFF8A80BD0F8008001F0B2
:10082000B5FADFF8A40C07685AE0DFF88C09007805
:10083000C00755D54846DFF88C1B01F095FA3FD22A
:100840004846DFF8881C01F07DFA39D80298DFF8B5
:10085000801C01F077FA33D80298DFF8781C01F099
:1008600083FA2DD2DFF85009007810F0FE00DFF88F
:1008700048190870DFF8440B0068DFF81C19096894
:10088000052291FBF2F1B0FBF1F201FB120000280E
:100890000CD1CDF800A0DFF8080B0368DFF8202B9F
:1008A000DFF8F40A0168584600F08EFCDFF8100B00
:1008B000D0F8008001F06AFADFF80C0C07680FE04E
:1008C000DFF8000C006800F0C3FEDFF8E81A0968E2
:1008D00000F048FE414600F0E5FE8046DFF8D87A99
:1008E000DFF8C00A0078400708D5DFF8B40A0068CE
:1008F000414600F0D7FEDFF8A81A0860DFF8C80B01
:100900000768DFF89C0A0068002101F01BFA0AD290
:10091000DFF88C0A0168DFF8C00B00F0C3FEDFF8D7
:10092000801A086010E0DFF8780A0068002101F002
:100930001BFA09D2DFF8680A0168DFF8A00B00F0A3
:10094000B1FEDFF85C1A0860DFF8580A007880070B
:1009500001D4DFF88C7BDFF84C080068DFF8501812
:10096000096801F0CBFB11D13800002101F0EAF950
:1009700002D2DFF86C6B3AE0DFF84C0B0068002124
:1009800001F0F2F933D2DFF85C6B30E0DFF81408E5
:100990000168DFF81C08006800F084FE002101F007
:1009A000ADFB0ED1DFF8FC070068DFF8041809681A
:1009B00001F0DAF902D2DFF8306B18E0DFF82C6BC7
:1009C00015E0DFF8E0070168DFF8E407006800F0F1
:1009D00069FE0600DFF8D8070068DFF8C817096865
:1009E00001F04EF80100300001F096FB0600DFF840
:1009F000A007B0F9000001F0A0F902284FDADFF8F3
:100A00009007B0F9000001F098F98046300000F03E
:100A10008BFE31F0004102000B000020DFF8D01AFD
:100A200000F0C2FE02000B0092469B46404600F0DA
:100A3000A3FE52465B4601F069F980F099803000D0
:100A4000002101F07FF912D2DFF84407B0F900006D
:100A500001F073F900F090FE02000B000020DFF8B7
:100A6000901A00F0A1FE00F0C3FF060080E0300005
:100A7000002101F079F97BD2DFF81407B0F900000A
:100A800001F05BF900F078FE02000B000020DFF8B7
:100A9000641A00F089FE00F0ABFF060068E0300049
:100AA00000F042FE31F00041DFF84C2ADFF84C3A0A
:100AB00001F02CF90ED23000002101F043F902D2EE
:100AC000DFF8246A06E03000002101F04DF901D280
:100AD000DFF8186ADFF8B806B0F9000001F02DF968
:100AE0008046300000F020FE31F0004102000B0093
:100AF0000020DFF80C1A00F057FE02000B009246AF
:100B00009B46404600F038FE52465B4601F0FEF838
:100B10002ED23000002101F015F912D2DFF8700654
:100B2000B0F9000001F009F900F026FE02000B0008
:100B30000020DFF8CC1900F037FE00F059FF060066
:100B400016E03000002101F00FF911D2DFF8400665
:100B5000B0F9000001F0F1F800F00EFE02000B0009
:100B60000020DFF8A01900F01FFE00F041FF060092
:100B7000380000F0D9FD02000B000020DFF88819D2
:100B800000F012FE80468946300000F0CDFD0200E4
:100B90000B000020DFF8701900F006FE02000B00C9
:100BA0004046494601F036FB00F022FFDFF8CC1545
:100BB000C860DFF8DC05B0F9000001F0BEF80600FF
:100BC000DFF848090168DFF8B405C06800F0CAFC26
:100BD0008046DFF8A805C068DFF8A015096900F0B5
:100BE0004FFFDFF82C19096800F0BCFC414600F00B
:100BF00059FD00F099FD80468946300000F028FD3F
:100C000000F092FD0022DFF80C3900F0CDFD00224B
:100C1000DFF8F43801F0BEFB42464B4600F0A4FF7B
:100C200000F0E6FEDFF8F0180860380000F07CFD08
:100C300002000B000020DFF8D01800F0B5FD31F005
:100C4000004100F0D5FE0600300000F06DFD0022EE
:100C5000DFF82C3500F088FF80468946300000F030
:100C600063FD42464B4600F07FFF804689463000D8
:100C700000F05AFD42464B4600F076FF82468B4616
:100C8000300000F051FD0022DFF87C3800F06CFFEE
:100C900080468946300000F047FD42464B4600F052
:100CA00063FF52465B4601F075FB80468946300083
:100CB00000F03AFDDFF86428DFF8643800F054FFF4
:100CC00042464B4601F066FB0022DFF83C3801F05B
:100CD00061FB00F08DFE06005FF07E500600DFF83D
:100CE00044080068281A10F11E0F49DADFF83808A6
:100CF0000068201A10F11E0F42DADFF8A40600681F
:100D0000310000F02FFC00F00FFD04000D00380052
:100D100000F00AFD02000B000020DFF8EC1700F0E5
:100D200043FD02000B000020DFF8DC1701F072FA2F
:100D300022002B0000F018FF01F0A0FB0400DFF8F8
:100D400060060068310000F00DFC00F0EDFC80460C
:100D50008946380000F0E8FC02000B000020DFF8B4
:100D6000A81700F021FD0022DFF89C3701F012FBEC
:100D700042464B4600F0F8FE01F080FB050024E1FE
:100D8000DFF8A0070068281A001BDFF89C17096825
:100D9000081800F0D2FF322842DADFF804060068B3
:100DA000310000F0DFFB00F0BFFC04000D00380054
:100DB00000F0BAFC02000B000020DFF84C1700F036
:100DC000F3FC02000B000020DFF83C1701F022FAD0
:100DD00022002B0000F0C8FE01F050FB0400DFF8F9
:100DE000C0050068310000F0BDFB00F09DFC8046AE
:100DF0008946380000F098FC02000B000020DFF864
:100E0000081700F0D1FC0022DFF8FC3601F0C2FA2E
:100E100042464B4600F0A8FE01F030FB0500D4E04E
:100E2000DFF804070068201ADFF8F8160968691A65
:100E3000884260DADFF868050068310000F092FB54
:100E400000F072FC80468946380000F06DFC02001C
:100E50000B000020DFF8B01600F0A6FC02000B002B
:100E60000020DFF8A41601F0D5F904000D00DFF82A
:100E7000A806006800F058FCDFF81825DFF8AC364B
:100E800000F072FE02000B002000290001F0C2F900
:100E900042464B4600F068FE01F0F0FA0400DFF82D
:100EA00000050068310000F05DFB00F03DFC82466B
:100EB0008B46380000F038FC02000B000020DFF801
:100EC000481600F071FC0022DFF83C3601F062FAAF
:100ED00080468946DFF84006006800F025FC42465F
:100EE0004B4601F057FA52465B4600F03DFE01F0DA
:100EF000C5FA050069E0DFF82C060068281ADFF85B
:100F000028160968611A88425FDADFF894040068DD
:100F1000310000F027FB00F007FC804689463800CE
:100F200000F002FC02000B000020DFF8DC1500F0EE
:100F30003BFC02000B000020DFF8CC1501F06AF941
:100F400004000D00DFF8D005006800F0EDFB0200A2
:100F50000B002000290001F05DF942464B4600F0ED
:100F600003FE01F08BFA0400DFF83404006831005E
:100F700000F0F8FA00F0D8FB82468B46380000F00B
:100F8000D3FB02000B000020DFF87C1500F00CFC06
:100F90000022DFF8743501F0FDF980468946DFF85C
:100FA0007805006800F0C0FBDFF8E823DFF87C3547
:100FB00000F0DAFD42464B4601F0ECF952465B4642
:100FC00000F0D2FD01F05AFA0500DFF8D403006802
:100FD00000F0AAFB04000D00380000F0A5FB0200A1
:100FE0000B000020DFF8201500F0DEFB02000B00F4
:100FF0000020DFF8141501F00DF922002B0000F09D
:10100000B3FD01F03BFA0400DFF89403006800F040
:101010008BFB80468946380000F086FB02000B00FF
:101020000020DFF8E41400F0BFFB0022DFF8D83422
:1010300001F0B0F942464B4600F096FD01F01EFA71
:101040000500D6480069D5494861D448C068D349ED
:1010500008614A480069494948614848C0684749A9
:101060000861CF48006800F05FFB80468946380081
:1010700000F05AFB02000B000020DFF88C1400F097
:1010800093FB0022DFF8803401F084F942464B469E
:1010900000F06AFD01F0F2F9DFF888140860C0483A
:1010A000006800F041FB80468946380000F03CFBB8
:1010B00002000B000020DFF8501400F075FB020066
:1010C0000B000020DFF8401401F0A4F842464B4624
:1010D00000F04AFD01F0D2F9DFF84C140860B5F5D4
:1010E000797F01DB40F2E335DFF84404854201DA21
:1010F000DFF83C54B4F5797F01DB40F2E334DFF8EC
:101100003004844201DADFF82844002D0CD4D5F5F0
:101110007A720621002001F012FB4FF47A72072147
:10112000002001F00CFB0BE04FF47A720621002046
:1011300001F005FB15F57A720721002001F0FFFA96
:10114000002C0CD44FF47A720421002001F0F7FA3D
:10115000D4F57A720521002001F0F1FA0BE014F5C4
:101160007A720421002001F0EAFA4FF47A72052124
:10117000002001F0E4FABDE8F78F00007C0C0014B9
:1011800000001440B00B0014620F0014640F001430
:10119000600F0014AC0C0014280000149C0C001408
:1011A00018000014B40C00142C000014A40C00143B
:1011B000B00C0014A80C00146A0F00149999B93FE0
:1011C0009999B9BF080000142DE9F84304000F00F5
:1011D00016003800002100F0C7FD63D82000002170
:1011E00000F0B0FD29D870480168D248006800F0CE
:1011F000B9F9210000F0B6F900F096FA8046894668
:1012000069480168CB48006800F0ACF900F08CFA3E
:101210000022002300F0A8FC04000D00380000F0BC
:1012200083FA22002B0000F09FFC42464B4601F05F
:10123000B1F800F0DDFB30609BE05B480168BD4821
:10124000006800F08FF900F06FFA5FF06632BA4B79
:1012500000F08AFC80468946200000F065FA42468C
:101260004B4600F081FC804689464F480168B148F2
:10127000006800F077F900F057FA0022002300F030
:1012800073FC04000D00380000F04EFA22002B0021
:1012900000F06AFC42464B4601F07CF800F0A8FBE7
:1012A000306066E02000002100F04CFD2DD83E4863
:1012B0000168A048006800F055F95FF07E5100F029
:1012C00051F9210000F04EF900F02EFA80468946CF
:1012D000354801689748006800F044F900F024FAA6
:1012E0000022002300F040FC04000D00380000F054
:1012F0001BFA22002B0000F037FC42464B4601F05F
:1013000049F800F075FB306033E0274801688948F0
:10131000006800F027F900F007FA5FF06632864BAC
:1013200000F022FC80468946200000F0FDF942468C
:101330004B4600F019FC804689461B4801687D48F1
:10134000006800F00FF900F0EFF90022002300F030
:101350000BFC04000D00380000F0E6F922002B0021
:1013600000F002FC42464B4601F014F800F040FB4E
:1013700030603068714900F0E5FC01D87048306099
:101380003068704900F0F0FC01D26F483060BDE871
:10139000F18300009A999999A00C00145C0C001438
:1013A000A80B0014900900140000001401007A44F6
:1013B00000007AC4040000148096184BE80C001456
:1013C000AC0B00140000164338B500225F4900F052
:1013D000B9FC03D85E4900F065F908E05C4900F00B
:1013E000C3FC03D25B4900F05DF900E000205A49DC
:1013F00009680522B1FBF2F1502924D25649096847
:101400000522B1FBF2F302FB131100291BD1524953
:1014100009680522B1FBF2F4504D01F0AFFA25F84E
:1014200014000020274908600022D2B2502A39DA7D
:1014300024480068D2B2494931F9121040182149B4
:101440000860521CF1E7444909680522B1FBF2F13A
:101450005039502926D2404909680522B1FBF2F3E0
:1014600002FB131100291DD13B4909680522B1FB7C
:10147000F2F13A4A12EB410401F080FA24F8A00C90
:10148000002037490860002209E00E480068D2B207
:10149000324931F9121040180A490860521CD2B280
:1014A000502AF2DB2C480068401C2B4908602A486F
:1014B0000068B0F5487F03D14FF4A070264908605A
:1014C00031BD0000B40B0014C00C0014FFFF15C3A5
:1014D000FFFFF9C30000FA430000C8410000C8C183
:1014E00020BCBE4C20BCBECC0AD7233C0AD723BCB0
:1014F00000408F4000408FC07B14AE47E17A843FAC
:1015000000002440000024C00000F03F1C00001434
:101510002400001400805140980C0014FCA9F1D262
:101520004D62503FB80C0014BC0C00149999C93F8F
:101530001DFCFFFF0C0000146666F63F01004844E6
:1015400000004844008009C6000048C40100484328
:10155000000048C300004843580C0014B80B0014A6
:10156000780C0014FF2212EAD05C1DBF12EAD1539E
:10157000944593422BE09C44D30780EA01021A4031
:1015800043EA002043EA0121A1FB0030410038BFBB
:1015900040007CF17F010BDBFE294ADA5B0842EA5E
:1015A000C15153EA006373F1004C51EB10207047B6
:1015B000D1F1080CDCF120012FDB5B0810FA01F1FE
:1015C0000B4373F1004120FA0CF0504170479445F1
:1015D0001CBF02EAD153934280EA010202F00042AA
:1015E0001DD0400019D0490017D05BB9634514D015
:1015F0000902B1FA81F39940BCEB030CC00140F041
:101600000040C1E70002B0FA80FC10FA0CF0B3EB26
:101610000C0CC90141F00041B6E7100070474000D2
:101620000AD0490008D010F1807F94BF11F1807F6B
:1016300002E042F0FF407047D043704701604260D3
:1016400083600021C1600021016100214161704778
:10165000002840F10980F446404200F005F850F0BF
:1016600000406047002800BF0AD0B0FA80F18840EF
:10167000D1F19D01C905020672F1004241EB102033
:10168000704750F8041B61B150F8042BD30744BFD6
:10169000A9F101039A18002342F8043B091FFAD16B
:1016A000EFE7704790EA010F44BF81F0004100F07E
:1016B000EFB900BF421A3CBF801A89184FF0004CA6
:1016C000C0F3C752FF2A24D0C1F3C75313B3D21AB1
:1016D000D2F1190327DD4CEA01214CFA03F321EA88
:1016E0000303D140C20D4CEA0020401834BF20EA69
:1016F0000C004CEA5000D20553EA006373EB0C0C6B
:1017000052EB1020420012F1807F38BF7047C00DAD
:10171000C0057047490212BF9A4200EB5120F8E71A
:10172000D2F11703D9D570475FF0FF0C1CEAD051F6
:1017300014BF614506E0C110400721F0E04101F10E
:101740006051704779B900F0004100020AD0B0FA48
:1017500080FC00FA0CF001F16051A1EB0C5101EB9F
:10176000D0214005704741020CBF40F4E0016FF00A
:101770000001002070470000010040F10980F4469C
:10178000404200F005F851F000416047010000BF01
:1017900009D0B0FA80F18840C91CC1F584610905FF
:1017A00001EBD02140057047F0B540F2FF7581EAAA
:1017B000030C0CF0004C15EA11541DBF15EA135729
:1017C000AC42AF42E5E0BC41C1F31301C3F31303E4
:1017D000801A994143F4801304D2641E40004941A9
:1017E00080185941C90241EA5051B1FBF3F603FB9D
:1017F0001611A2FB0675D7EBC020A94102D2761EB6
:1018000080185941C90241EA5051B1FBF3FE03FB74
:101810001E11A2FB0E75D7EBC020A94103D2AEF179
:10182000010E80185941890241EA9051760546EA35
:101830008E2EB1FBF3F603FB1611A2FB0675D7EB58
:101840008020A94102D2761E80185941C90241EA7E
:1018500050514EEA060EB1FBF3F603FB1611A2FB44
:101860000675D7EBC020A94102D2761E80185941D7
:10187000C90241EA5051B1FBF3F703FB1711A2FB78
:101880000735D3EBC020A94167F100070CBF004228
:1018900047F0010766F3D5274FEA1E31B80814F563
:1018A000806412DDBD0775F1004250EB0E5051EB24
:1018B000045111F5801F5CBF41EA0C01F0BD4CF0F2
:1018C0007F6141F0E0410020F0BDBD076D0840EAB6
:1018D0000E5041F48011D4F10104B4F120060ADA6B
:1018E000C4F120060200E04001FA06F3E14018438B
:1018F000B24015430EE0342C13DCC6F1200445EA57
:1019000040056D0820FA06F2154321FA06F0A140C1
:101910000D43002175F1004250F1000051EB0C0124
:10192000F0BD00205FEA0C01F0BDCFB992185B4119
:10193000B3FA83F704BFB2FA82F6BF190B3FB7F1CF
:1019400020062FBF02FA06F3BB40C7F1200622FA99
:1019500006F638BF3343BA401CB1E419641E33E7BE
:101960007F4231F00041B1FA81F404BFB0FA80F651
:10197000A4190B3CB4F120062FBF00FA06F1A140D8
:10198000C4F1200620FA06F638BF3143A0403C1BC4
:101990001AE7AC421ABF05EA1357AF4212E050EA09
:1019A00041061CBF52EA4306BFE750EA41073046F2
:1019B00061461CBF41EA0551F0BD52EA430C08BF25
:1019C000C143F0BD00204FF4001616EB410F98BF45
:1019D00016EB430F08BF16EB410F24BFC14305E0D0
:1019E00016EB430F0CBF61464CEA0551F0BD0000F9
:1019F0004FEAF17CBCF1E04C2CBFBCF5001F11E0BC
:101A00005FEA4C0C34BFBCF17F5F2EE05FEA9C0CB8
:101A10004FEA0C1C4FEA3C0CC10071F100414CEB49
:101A200050707047C90241EA5051C00218BF41F0DE
:101A3000010141F000414FEA6C50C0F1090021283A
:101A400010D240EACC7CCCF1200C11FA0CF070F1F1
:101A50000040CCF1200C21FA0CF00CF0004C40EBD3
:101A60000C0070474FEACC707047490011F5001F19
:101A700004D84FEACC10FF30C0057047C817704734
:101A800090EA010F44BF81F00041FFF713BE00BF91
:101A9000431A4FF000423EBF5340C01AC91800BF5E
:101AA000D3095FEAD05C13EB400F34BFB3EB410FB7
:101AB00040E07CEBD1530CD342EA012122D8D1EB98
:101AC000402009D3400A28BF5FEA500140EBCC50C8
:101AD0007047401A15D04002B0FA80F2521C904074
:101AE000400A4FEA3C23B3EB026384BF00EB730070
:101AF00007E040F400001A16DB07C2F10102D040F3
:101B000018437047182BFCDC31FA03F202FA03F396
:101B1000591A38BF42F00102D2EB40203CBF4000CE
:101B2000ACF1010C5FEACC5CC20572F100414CEBF8
:101B30005020704713EB400F0FD24B0009D0ACEB95
:101B4000D153022B03DB4902172BDDDD7047914394
:101B5000401A4300D5D10020704713EB410FD0D37A
:101B60006FF0000070470000B0B581EA030C0CF084
:101B7000004C40F2FF7515EA11541DBF15EA1357CA
:101B8000AC42AF4239E0E41923EA455343F48013F1
:101B9000C90241F0004141EA505EC7021100A7FBB3
:101BA000020200284FF00000EEFB01204FF0000180
:101BB000E3FB072118BF42F0010240180021494110
:101BC000E3FB0E01A4F580640F0302D252004041F2
:101BD000494154F101046CDD470872F1004250F1B3
:101BE000000051EB0451A1F580115CBF41EA0C01EA
:101BF000B0BD4CEA05510020B0BD05EA1357AC4218
:101C000014BFAF4241E050EA410E1CBF52EA430EFE
:101C100002E061460020B0BD24423C441BD15FEA93
:101C2000070EF6D0090302BF01460020AEF1140EE4
:101C3000B1FA81F7AEEB070401FA07FE0C37C7F1E2
:101C4000200100FA07F7C8404EEA000E23EA455388
:101C500043F48013A2E733F00043B3FA83F704BFE1
:101C6000B2FA82FE77440B3FE41BB7F1200E2FBF80
:101C700002FA0EF3BB40C7F1200E22FA0EFE38BF67
:101C800043EA0E03BA40641C82E750EA410E14BFD7
:101C900052EA430E6FF000014FF4001717EB430FA9
:101CA0008ABF194617EB410FB5E74CEA05510020F2
:101CB000B0BDD4F10104B4F120070FDAC4F120075C
:101CC000520828BF42F0010210FA07F501FA07F79F
:101CD000E1BF2A43E0403843E1400FE0352C98DC77
:101CE000C7F1200452EA400220FA07F218BF42F07E
:101CF000010231FA07F0A1400A43002172F10042CB
:101D000050F1000051EB0C01B0BD00004FF4001C7D
:101D10001CEB410F94BF1CEB430F09E041EA030C9D
:101D200050EA4C0C52EA0C0C03D2994208BF904284
:101D3000704714BF8B4282427047002848BF404220
:101D4000704700004FF0807C1CEB400F94BF1CEBF1
:101D5000410F05E040EA010C5FEA4C0C01D28142E0
:101D6000704718BF884270474FF0807C1CEB400FD3
:101D700094BF1CEB410F05E040EA010C5FEA4C0CFC
:101D800001D28842704718BF814270472DE9F04F59
:101D900083B000250024002600275FF000084FF0E4
:101DA000FF0940F2FF308146C3480068FFF75AFC44
:101DB000C249FFF7D7FB82464846FFF753FC0100B4
:101DC000504600F0A9F90500BD480068FFF74AFC3D
:101DD000BA49FFF7C7FB82464846FFF743FC0100BC
:101DE000504600F099F90400B6480068FFF73AFC45
:101DF000B249FFF7B7FB82464846FFF733FC0100C4
:101E0000504600F089F90600AF480068FFF72AFC49
:101E1000AA49FFF7A7FB82464846FFF723FC0100CB
:101E2000504600F079F90700A8480068FFF71AFC4F
:101E3000A249FFF797FB82464846FFF713FC0100D3
:101E4000504600F069F9804628003100FFF718FE7F
:101E50009A4900F061F9050038004146FFF710FE8D
:101E6000964900F059F90190994800682900FFF758
:101E700079FB06005FF07E5095490968FFF700FE88
:101E80002900FFF76FFB3100FFF70CFC05008B48C2
:101E90002100FFF7F5FD894900F03EF98146002653
:101EA0000022002300208DF8000000244FF0FF0ADC
:101EB0004FF0FF0B07208DF80000072004002800DA
:101EC0000021FFF73FFF01D2012606E02800002194
:101ED000FFF74AFF01D25FF0FF3628000021FFF72D
:101EE00043FF01D295F000452800002100F006F9DB
:101EF00004D17848006878490860BAE0002200E020
:101F0000521C9DF80000D2B2824211D24846D2B291
:101F1000724951F82210FFF715FFF1D84846D2B2A6
:101F20006E4911EB82014968FFF71EFFE8D2924625
:101F3000002300E05B1CDBB2E4B2A34211D2280014
:101F4000DBB2674951F82310FFF7FCFEF2D82800F6
:101F5000DBB2634911EB83014968FFF705FFE9D262
:101F60009B465FFA8BFB5FFA8AFA38205D4900FBDB
:101F70000A1010EBCB0040685FFA8BFB5FFA8AFA1D
:101F80003821584A01FB0A2151F83B10FFF778FD30
:101F9000040028005FFA8BFB514951F82B10FFF722
:101FA0006FFD05005FFA8BFB4D4810EB8B0040681E
:101FB0005FFA8BFB4A4951F82B10FFF761FD0100D6
:101FC000280000F0A9F8050048465FFA8AFA43495C
:101FD00051F82A10FFF754FD81465FFA8AFA3F480C
:101FE00010EB8A0040685FFA8AFA3C4951F82A10DF
:101FF000FFF746FD0100484600F08EF82900FFF784
:10200000B1FA2100FFF7AEFA5FFA8BFB5FFA8AFAAA
:102010003821344A01FB0A2151F83B10FFF742FBFB
:102020002D49086038004146FFF73CFBFFF77CFB79
:1020300000225FF08043FFF7B7FB00222A4BFFF737
:10204000B3FB2A4A2A4B00F0BBFC08D822480068A0
:102050002849FFF789FE02D226481F49086036B298
:1020600016F1010F05D11C48006890F000401A4994
:102070000860194804682048016817480068FFF79D
:1020800071FA05005FF07E501B490968FFF7F8FC04
:102090000600114800680F490968FFF7F1FC31009C
:1020A000FFF760FA2900FFF7FDFA0B4908600948BD
:1020B0000460BDE8F78F00BFD40C0014000061433A
:1020C000D80C0014DC0C0014E00C0014E40C001418
:1020D0004C000014C40C0014C00C00147000001458
:1020E000540000148C00001400206C40343333334F
:1020F0003333EB3F000020414800001440EA010C5C
:102100005FEA4C0C07D0884205D14FEA400C1CF125
:10211000807F98BF8042704710B5FF2313EAD054E8
:102120001DBF13EAD1529C429A4239E0A41ADA0741
:1021300080EA0103134042EA012142EA0020421AE8
:102140003CBF641E01EB4202090AB2FBF1FE01FB37
:102150001E221202B2FBF1F001FB10226EF30F20DF
:102160001202B2FBF1FE4EEA00207F3406DDFE2CA7
:1021700024DA53EA500050EBC45010BDD4F10204ED
:1021800001FB1E2240F08071192C1DDC21FA04F0A5
:10219000C4F12004A140114371F10042584110BD27
:1021A0009C421ABF03EAD1529A420FE080EA010E24
:1021B0000EF00043400004D0490016D143F0FF4028
:1021C00010BD490008BFD343180010BD9C4205D183
:1021D000D21AF7D001F00041484010BD4A0212BFA8
:1021E0000846484000F0004010BD4AB90902B1FA63
:1021F00081F2914044B1A418C00140F000409EE734
:10220000C90141F0004152420002B0FA80F4A040FE
:10221000141B94E770B44FF0004591EA030F44BFDC
:102220006B4000F0C1B800BF841A71EB030604D202
:102230006E40001BB141121973414FF4001C1CEB9E
:10224000410F34BF7CEB430684E00C0DA4EB135626
:10225000362E7DDC012E43DC45EAC32343EA52538C
:1022600012BFD20292025B08240545EAC12141EA6D
:102270005051D2EBC020994125D407D1B0FA80F655
:1022800010FA06F164D00020203608E0B1FA81F699
:10229000B140C6F1200220FA02F21143B0404FEAE9
:1022A000F474B4EB465434F001064FEA74040AD8CF
:1022B000D6F50016760D04F00044F04061FA06F2FF
:1022C0005040F1404840C00A40EA415021F00041EE
:1022D00028BF5FEA500550F1000044EBD12137E000
:1022E00045EAC323DB0A45EAC121C90AB6F1200544
:1022F0000EDD42EA0242120CC5F1200603FA06F690
:10230000EB4042EA06056D42984161F100010DE0A3
:1023100062FA06F5F240554063FA06FC82EA0C02C6
:10232000F3405A406D42904161EB030111F4801F6C
:1023300005D1641E620502D06D004041494121F47F
:102340008011430875F1004350F1000041EB045146
:1023500070BC70471CEB410F15D223F0004352EACA
:1023600043060BD04FEA4C0CBCEB410F04D80C0DCC
:10237000661E342EB7DDEBE7801A994150EA41061C
:1023800008BF0021E4E708BF1CEB430F28BF6FF034
:102390000001DDE770B44FF0004591EA030C44BF43
:1023A0006B40FFF741BF00BF841A71EB030603D2F5
:1023B000001BB141121973414FF4001C1CEB410F7B
:1023C00034BF7CEB430443E00C0DA4EB1356352ED5
:1023D00050DC45EAC323DB0A45EAC121C912B6F144
:1023E00020050DDD63FA05F6EB4086EA030512428F
:1023F00018BF45F00105C01851F100010CD213E0DF
:1024000062FA06F5F2405540F3415A40B340F340BA
:102410005A408018594107D349085FEA30005FEA03
:10242000350528BF45F0010501F58011420875F119
:10243000004250F1000041EB045170BC4FF4001C0D
:102440001CEB410F38BF70470020090D090570478C
:102450001CEB410F10D252EA43060BD0BCEB410FEC
:1024600005D80C0DAB43661E342EB5DD02E0AB4340
:102470008018594170BC704770BC7047F446400DDD
:1024800040EAC120490006D200F014F8004248BFDB
:102490006FF00040604700F00DF84FF000418842B7
:1024A0008CBF084640426047400D40EAC1204900C9
:1024B00080F00D8040F00040490DA1F58061491C7D
:1024C00005D4D1F11F0154BFC840C01770474FF069
:1024D0000000704780B5C0B2002803D0022864D045
:1024E00048D37DE0DFF88004006850F08070DFF8AA
:1024F00078241060C9B200290BD0022915D00ED360
:1025000004291ED017D3062927D020D307292AD083
:102510002FE04FF48061412000F06AFA60E04FF450
:102520008061422000F064FAF8E74FF480614320B4
:1025300000F05EFAF2E74FF48061442000F058FAB0
:10254000ECE74FF48061642000F052FAE6E74FF4C4
:102550008061652000F04CFAE0E74FF4806166206E
:1025600000F046FADAE74FF48061672000F040FAA5
:10257000D4E735E0DFF8F003006850F00070DFF8D2
:10258000E8231060C9B2002902D0012906D00BE06F
:102590004FF440710C2000F02BFA21E04FF4407111
:1025A0000D2000F025FAF8E71AE0DFF8C003006814
:1025B00050F08070DFF8B4231060C9B2002902D057
:1025C000012906D00BE04FF440710A2000F010FA08
:1025D00006E04FF440710B2000F00AFAF8E7FFE73D
:1025E00001BD2DE9F04704000D0016001F00E4B204
:1025F000002C0DD0E4B2012C02D0E4B2022C02D1A6
:10260000EDB2022D04D3FC21DFF8640300F05DFA83
:102610002900C9B22000C0B2FFF75CFFDFF8540305
:1026200000684FF47A7101FB00F95FEA1940B0FBD2
:10263000F6F05FF0000A01E01AF1010A80B250FAE8
:102640000AF10129F8DA5FFA8AFABAF1080F05D31C
:1026500040F21711DFF8180300F037FA39FA0AF0E0
:10266000B0FBF6F0E4B2002C03D0022C12D009D358
:1026700018E080B2411C01FB07F14FF47A72B1FB04
:10268000F2F80FE080B2411C01FB07F16422B1FBBC
:10269000F2F807E080B2411C01FB07F16422B1FBB4
:1026A000F2F8FFE7EDB2E4B2DFF8CC1251F82410F3
:1026B00011EBC501EDB2E4B2DFF8BC2252F82420E0
:1026C00012EBC502D26832F00402CA60EDB2E4B285
:1026D000DFF8A41251F8241011EBC5012822CA60BA
:1026E000E4B2DFF8941251F824105FFA8AFA1AF073
:1026F000070252F008020A60E4B2DFF87C1251F8D7
:10270000241080B28860E4B2DFF86C0250F8240034
:102710000021C164EDB2E4B2DFF85C0250F824009D
:1027200010EBC5001FFA88F8C0F81080E4B2DFF89B
:10273000480250F8240000214160BDE8F087F8B558
:1027400004000D0016000020E4B2002C0ED0E4B20C
:10275000012C02D0E4B2022C02D1EDB2022D05D33D
:102760004FF4A971DFF8080200F0AFF9E4B2002CD1
:1027700003D0022C14D00AD31BE0B6F57A7F05D91A
:1027800040F25711DFF8E80100F09FF911E0652EE3
:1027900005D340F25B11DFF8D80100F096F908E0AC
:1027A000652E05D340F25F11DFF8C40100F08DF90A
:1027B000FFE7E4B2DFF8C00150F824008068002889
:1027C000F7D0E4B2002C03D0022C10D008D315E0CF
:1027D000401C00FB06F04FF47A71B0FBF1F70DE0FE
:1027E000401C00FB06F06421B0FBF1F706E0401C42
:1027F00000FB06F06421B0FBF1F7FFE7EDB2E4B2B5
:10280000DFF8740150F8240010EBC5000761F1BD3A
:1028100010B50400E4B2012C07D0E4B2022C04D0BD
:1028200040F21D21524800F050F9E4B22000012886
:1028300002D0022811D021E04B48006850F000700F
:10284000494908604FF4C061082000F0D1F84FF406
:10285000C061092000F0CCF815E04448006850F051
:102860008070424908604FF4C0610A2000F0C0F84F
:102870004FF4C0610B2000F0BBF804E040F265218A
:102880003B4800F022F9E4B23B4850F82400406D88
:1028900050F00400E4B2384951F824104865E4B21D
:1028A000354850F82400D0F8800050F00800E4B219
:1028B000314951F82410C1F88000E4B22E4850F894
:1028C00024000021C164E4B22B4850F824004FF6E4
:1028D000FF718160E4B2284850F82400D0F88000ED
:1028E00050F00100E4B2244951F82410C1F88000EE
:1028F000E4B2214850F82400406D50F00100E4B2E9
:102900001D4951F824104865E4B21B4850F82400D2
:102910000021416010BD10B50400E4B2012C07D0C5
:10292000E4B2022C04D040F28221114800F0CDF82C
:10293000E4B2114850F82400406800B210BD10B550
:102940000400E4B2012C07D0E4B2022C04D04FF40E
:102950002471074800F0B9F8E4B2074850F82400A1
:102960000021416010BD00003C80044030800440E4
:10297000807E0000FC0C0014F40800144100090ED5
:102980007F3915D4D1F11F0114D4400007D2C00102
:1029900040F00040C84048BF6FF000407047C001A1
:1029A00040F00040C8404CBF4FF0004040427047EC
:1029B0000020704700424FF0004058BFC0437047AE
:1029C0004FF4001C1CEB410F94BF1CEB430F09E0BC
:1029D00041EA030C50EA4C0C52EA0C0C03D28B4235
:1029E00008BF8242704714BF99429042704700006E
:1029F00010B4294A12684FF40073C0B24409A340CE
:102A00001A43254B1A60C0B24211244B53F82220BE
:102A1000012310F01F04A340C2F8A030C0B210F090
:102A20001F02C0B240111D4B53F8200040F8221085
:102A300010BC704710B4184A12684FF40073C0B24B
:102A40004409A3401A43144B1A60C0B24211134BFD
:102A500053F82220012310F01F04A340C2F8A03035
:102A600031F4E061C0B210F01F02C0B243110B4C50
:102A700054F8233053F8222012F4E0621143C0B21C
:102A800010F01F02C0B24011044B53F8200040F870
:102A9000221010BC70470000388004406409001404
:102AA000DFF800F0090A0014DFF800F0310A001422
:102AB000BFF34F8F5448006810F4E0605349084357
:102AC00051490860BFF34F8FFEE738B504000D0091
:102AD000002000F0ABF82A0021004D4800F0CCF8AF
:102AE000002000F0BFF84B4800684FF47A7101FBFA
:102AF00000F1032000F008F9EDE710B50400210013
:102B0000C9B2042000F05CFA200010BD10B500240A
:102B1000052000F06FFA052000F0A0FA002854D13B
:102B2000002000F083F811E03B4800F0A5F8FFF723
:102B3000B7FF38480068642101FB00F1032000F072
:102B4000E3F80020FFF7B0FFFFF7B2FF052000F029
:102B500085FA012800D10124002000F083F82F48D5
:102B600000F08AF82B4800684FF4FA7101FB00F17D
:102B7000032000F0C9F8E4B2012CE7D1052000F0F1
:102B80006DFA0028E2D10AE0002000F06BF821483D
:102B90000068642101FB00F1032000F0B5F8052076
:102BA00000F05CFA0028EFD0052000F057FA012869
:102BB000BAD1002000F056F816480068322101FB17
:102BC00000F1032000F0A0F8EEE710BD10B51448A6
:102BD0000468012000F02AF8012000F043F8E4B274
:102BE0000F20104900FB0412E4B221000E4800F04F
:102BF00043F8084800684FF47A7101FB00F10320A4
:102C000000F082F8E8E700000CED00E00400FA05AF
:102C100060800000FC0C0014948000004C810000D7
:102C200004ED00E0EC010014FC7F000010B504008E
:102C3000E4B2042C07D201220121E4B20D48205C49
:102C400000F0F0FA0DE0042406E001220121E4B2D4
:102C50000848205C00F0E6FA2000441EC0B20028BC
:102C6000F3D110BD80B5C0B20249405C00F031FB29
:102C700001BD00009C0900140EB400B582B003A988
:102C80000091024600AB0121034878440A3000F06D
:102C90005FFB06BC5DF810FB9154000038B50400E2
:102CA0000D00002D03D124214348FFF70EFF4348B8
:102CB000006850F40000414908604148002101606B
:102CC000E4B220013F496A1E4250E4B23D4810EB95
:102CD0000410C06850F00100E4B23A4911EB04114D
:102CE000C860E4B2374810EB041080684008400028
:102CF000E4B2344911EB04118860E4B2314810EBBE
:102D000004100321816031BD38B504000D00002D91
:102D100003D147212848FFF7D8FE2848006850F41F
:102D20000000264908602648006880088000244981
:102D30000860E4B2234810EB0410806840084000AB
:102D4000E4B2204911EB04118860E4B220011D496E
:102D50006A1E4250E4B21B4810EB0410C06850F0E9
:102D60000100E4B2174911EB0411C860E4B2154840
:102D700010EB0410806840084000E4B2114911EBE8
:102D800004118860E4B20F4810EB04100121816047
:102D9000E4B20C4810EB0410C068C007F8D5E4B2E8
:102DA000084810EB0410C06850F00100E4B2054977
:102DB00011EB0411C86031BD407F00003C8004402D
:102DC000007003400071034070B504000D00E4B2D0
:102DD000002C08D0022C2CD018D3042C4FD03BD37D
:102DE000052C5FD071E0DFF8F401006850F48060DA
:102DF000DFF8E81108604FF440716620FFF7F8FD36
:102E00004FF440716720FFF7F3FD5EE0DFF8CC017F
:102E1000006850F40060DFF8C41108604FF440719E
:102E20004320FFF7E5FD4FF440714420FFF7E0FD3C
:102E30004BE0DFF8A801006850F48050DFF89C11E7
:102E400008604FF440716320FFF7D2FD4FF44071EA
:102E50006220FFF7CDFD38E0DFF88001006850F414
:102E60000050DFF8781108604FF440715020FFF7F0
:102E7000BFFD4FF440715120FFF7BAFD25E0DFF8A8
:102E80006001006850F48060DFF8541108604FF46E
:102E900040719920FFF7ACFD4FF440719820FFF787
:102EA000A7FD12E0DFF83801006850F40060DFF899
:102EB000301108604FF440718920FFF799FD4FF4FD
:102EC00040718820FFF794FDFFE7E4B2454850F8D1
:102ED0002400C07810F0F300E4B2424951F8241005
:102EE000C870E4B23F4850F82400E4B23D4951F8BC
:102EF000241089788170E4B2002C02D0E4B2012C55
:102F000005D1394800684FF47A71484304E03748E6
:102F100000684FF47A7148432901B0FBF1F6B6B26C
:102F2000B6F5005F01D341F6FF76B0FBF5F0B6B21F
:102F3000B0EB0615ADB2202D04D340F203112C489E
:102F4000FFF7C3FDE4B2274850F82400007810F0E2
:102F5000E000B6B2310A11F01F010843E4B2214982
:102F600051F824100870E4B21E4850F8240046704E
:102F7000E4B21C4850F82400807A10F0E000E4B27B
:102F8000184951F8241015F01F0210438872E4B25A
:102F9000144850F82400007C50F08800E4B2114935
:102FA00051F824100874E4B20E4850F82400C07898
:102FB00050F00C00E4B20B4951F82410C87070BDF9
:102FC000C0B2084A52F8202012791206F8D5C0B2D1
:102FD000044A52F82000C171704700003480044058
:102FE0002880044078090014F40C0014FC0C001430
:102FF000807F000010B50400E4B2062C0DD2002240
:103000000021E4B28048205C00F00CF90321E4B216
:103010007D48205CFFF70EFD13E006240CE0002243
:103020000021E4B27848205C00F0FCF80321E4B20F
:103030007548205CFFF7FEFC2000441EC0B200284B
:10304000EDD110BD80B5C0B26F49405C00F05DF9B4
:10305000002801D1002000E0012002BD10B50400CD
:103060002000C0B2FFF7EEFF00280FD167480068CC
:103070000A2101FB00F10320FFF746FE2000C0B249
:10308000FFF7E0FF002801D1002000E0012010BD83
:1030900001B45F480078022828D05E4800785E4975
:1030A0009DF8002001F810205A4800785A4911EB89
:1030B00040009DF80110417056480078401C554969
:1030C000087054480078142802D352480021017037
:1030D0005048007851490978C0B2884203D14C4821
:1030E0000221017002E04A480121017001B07047DD
:1030F00081B04A480078484911F810008DF8000066
:1031000046480078444911EB400040788DF80100B2
:1031100042480078401C4149087040480078142813
:1031200002D33E48002101703A4800783B490978B3
:10313000C0B2814203D136480021017002E0344818
:1031400001210170009801B07047314800780028D3
:1031500001D1002000E00120704710B582B00024AA
:1031600011E0E4B22E48205C022807D38DF800401D
:1031700001208DF801000098FFF78AFFE4B228488B
:1031800000212154641CE4B2062C3BD22000C0B2C2
:10319000FFF758FF0028E4D1E4B22148205C401C2E
:1031A000E4B21F496054E4B21D48205C0228E9D310
:1031B000E4B21B48205C022808D18DF800400020B2
:1031C0008DF801000098FFF763FFDBE7E4B21448D5
:1031D000205C3328D6D3E4B21148205C33280CD1CC
:1031E0008DF8004002208DF801000098FFF750FF95
:1031F000E4B20B4802212154C4E7E4B2084802219A
:103200002154BFE713BD000094090014FC0C001406
:10321000730F0014720F0014E00E0014710F0014ED
:10322000080F001470B504000E0015004FF48071F3
:103230002000C0B2FFF7DCFBF6B2002E11D1E4B2E1
:103240006011414951F82000E4B261113E4A52F840
:1032500021104969012214F01F039A4091434161F2
:1032600036E0E4B26011384951F82000E4B261114F
:10327000354A52F821104969012214F01F039A407F
:1032800011434161EDB2002D11D1E4B260112E491C
:1032900051F820000068012114F01F02914088437A
:1032A000E4B26111284A52F82110086010E0E4B23B
:1032B0006011254951F820000068012114F01F0217
:1032C00091400843E4B261111F4A52F8211008608E
:1032D00070BD10B50400E4B260111B4951F8200024
:1032E000406914F01F01C840C00703D47B21174870
:1032F000FFF7EBFBE4B26011134951F82000012104
:1033000014F01F029140C16010BD10B50400E4B27A
:1033100060110D4951F82000406914F01F01C840A8
:10332000C00703D58C210948FFF7CFFBE4B2601139
:10333000054951F82000006914F01F01C84010F041
:10334000010010BD0000000000090014C07E000054
:103350002DE9F04FA1B0824602AE002017461D466F
:10336000029170620DF144080AE017F8011B0298FF
:10337000D0470290002800F0DA82706A401C706228
:10338000387808B9706AD4E22528EED10020F060C0
:1033900030617061B061F061306201E040F00100C5
:1033A00017F8011F2029F9D023290DD02B2904D08B
:1033B0002D2906D030290AD00CE040F0020080B25E
:1033C000EEE740F00400FAE740F00800F7E740F0CD
:1033D0001000F4E72A290DD129680A1D2A6009681E
:1033E000F162002904D5494240F00400F16280B244
:1033F0007F1C13E00021F1620BE0F16A6FF00043E3
:10340000994205D001EB810302EB43013039F162AF
:103410007F1C3A78A2F130010A29EED339782E299F
:1034200003D04FF0FF31B1621EE017F8011F2A29C7
:1034300006D129680A1D2A607F1C0968B16213E061
:103440000021B1620BE0B16A6FF00043994205D0F0
:1034500001EB810302EB43013039B1627F1C3A7802
:10346000A2F130010A29EED330860FF638403978C0
:1034700000F026FE08B117F8010B8DF83A009DF810
:103480003A00682802BF39786829622005D06C2884
:1034900004BF38786C2803D171208DF83A007F1C66
:1034A00011A8B0603978B1F1250029D01C3800F09E
:1034B000C080001F022840F2BC80133800F0E48076
:1034C000093800F0B680801E00F07781401E00F0C1
:1034D0002081401E022840F2AC80001F00F01981BC
:1034E000401F7BD0401E00F0CF80401E22D0C01E67
:1034F0000BD0801E00F0C880C01E00F0C58064E1C3
:10350000F068411CF160252169E12868011D2960EE
:103510000068B26A7060002A02D500F0DDFD07E0A5
:10352000002100F0F5FD00281ABF7168401AB06A4A
:10353000306156E12868011D296000210068CDE94D
:1035400000014FF03C0E11A87060DDE9000111B9D7
:1035500008B9B26ACAB10206120FA0EB02123032E9
:10356000AEF10103D2B29E463A2AA8BF2732000923
:1035700003F8082040EA0170090908BF002804D0B8
:10358000726811AB73449A42E5D311A9714471601A
:10359000CEF13C00B16A3061884207DA081AB061A6
:1035A0004FF6EF71308E084030861AE1002940F165
:1035B000188196F8301001F01401102940F01181A3
:1035C000F16AF268891AB269891AA1EB000EBEF19C
:1035D000010FC0F20681C6F818E002E19DF83A003A
:1035E000622818D0682806D06A280BD06C2819D019
:1035F000712807D016E02868011D29600068716AEB
:103600000180EEE02A68101D28601268706AC117F8
:10361000C2E90001E5E02868011D29600068716ABF
:103620000170DEE02868011D29600068716A016090
:10363000D7E02868C01D20F00700286000F10802CC
:103640002A60D0E90023CDE90023002B04D5F068DF
:10365000421CF2602D220DE0308E820704D5F06806
:10366000421CF2602B2205E0C00705D5F068421C21
:10367000F260202200F80820F06811AA801870601B
:1036800000A800F0DDF9ACE09DF83A006C2808BF16
:103690002A6811D0712808BF2A6802D02A686A28CF
:1036A0000AD1D21D22F007022A60144604F1080252
:1036B0002A60D4E9002303E0131D2B600023126865
:1036C000CDE90023682808BF92B207D0622808BF5E
:1036D000D2B203D0742818BF7A2802D10023CDE9D2
:1036E000002396F8300000075FD5DDE90023002BAA
:1036F00008BF002A59D041F02000782855D1F06841
:10370000302200F80820401C421CF26000F808102B
:103710004BE09DF83A0062280CD0682810D06A2847
:103720001AD06C2823D0712816D074281FD07A287C
:103730000CD01CE02868021D2A6090F900201AE0D5
:103740002868021D2A60B0F9002014E02868021DD4
:103750002A60002302680FE02868C01D20F00700DF
:10376000286000F108022A60D0E9002304E02868FC
:10377000021D2A600268D317CDE90023002B04DA6A
:10378000F068421CF2602D220DE0308E820704D5D5
:10379000F068421CF2602B2205E0C00705D5F068F6
:1037A000421CF260202200F80820F06811AA80185C
:1037B000706000A800F0C0F813E0F068411CF160F0
:1037C00029680A1D2A60096809E0F068421CF26055
:1037D000252200F8082021B1F068421CF26000F8B0
:1037E0000810F06AF168401AB169401A3169401A4C
:1037F000F169401A7169401A316AA0EB010996F823
:1038000030007F1C400710D420208DF84000002499
:1038100009E0012310AA00A9504600F02CFC002862
:1038200040F08580641C4C45F3DBF4680DF1440BDB
:103830000AE01BF8011B0298D0470290002876D0BE
:10384000706A401C7062641E002CF2D130208DF82A
:1038500040004FF0000BB46909E0012310AA00A951
:10386000504600F008FC002861D10BF1010BA34584
:10387000F3DB3469D6F804B00AE01BF8011B0298A8
:10388000D0470290002852D0706A401C7062641EBB
:10389000002CF2D130208DF840004FF0000BF4697D
:1038A00009E0012310AA00A9504600F0E4FB00281B
:1038B0003DD10BF1010BA345F3DB306971687469ED
:1038C00000EB010B09E01BF8011B0298D0470290A6
:1038D00068B3706A401C7062641E002CF3D1302003
:1038E0008DF840004FF0000B346A08E0012310AA65
:1038F00000A9504600F0BFFBC8B90BF1010BA3456E
:10390000F4DB96F8300040077FF53AAD20208DF8C3
:103910004000002400E0641C4C45BFF631AD01239B
:1039200010AA00A9504600F0A6FB0028F3D04FF0E3
:10393000FF3021B0BDE8F08F2DE9FA4E05460A466A
:103940002F696F2A08BF082405D041F0200078288D
:1039500014BF0A241024D5E900013C2681468B4679
:10396000642A18BF692A05D1002903DAD9F10009B0
:103970006BEB4B0BBBF1000F08BFB9F1000F0CD183
:10398000286B50B9082C36D195F83800000732D58D
:1039900030203B2687F83B002DE0E3174846594688
:1039A000224600F0E1FBA4FB0023A9EB0202303227
:1039B000A6F1010AD2B256463A2A03DB9DF800303E
:1039C000513B9A180AF8072081465FEA010B08BFAD
:1039D000B9F1000F03D0E868F1198842DDD3082C53
:1039E00009D195F83800000705D5F05D302802D0E0
:1039F000761E3020F055C6F13C00A861F119E9604F
:103A0000296B884208DA081A28624FF6EF71288F6E
:103A100008402887BDE8F38E00290ED595F83810A8
:103A200001F01401102908D1696B6A69891A2A6AA0
:103A3000891A081A0128A8BF2862BDE8F38E000081
:103A40002DE9F04F07468FB08B46D7E90001CDE94D
:103A5000020104AE4BF0200061280BD0386B002827
:103A600048BF062005D404BF4BF02000672801D1D1
:103A7000012038637968C1F30A5040F2FF72904226
:103A80001AD1080304BF3868002808D10320B861A0
:103A9000ABF161001A2835D30FF21C6107E0032057
:103AA000B861ABF161001A2829D30FF20461F868FC
:103AB000032200F0D1FBB6E1012816DA384600F007
:103AC00006FC012811DB002400204BF020016129B5
:103AD0001FD1F968302201F8012B4A1CFA60BBF1B2
:103AE000610F0CBF782258220FE07A6840F2FE3155
:103AF00061F31E52441A7A604FF0FF30E5E70FF28F
:103B0000AC51D4E70FF2AC51D1E70A707969891C46
:103B1000796110B9002500247DE14BF02000612877
:103B200040F09580386B00284CBF2125451CDDE90D
:103B300002012DB26E1CD7E9008900220023FEF796
:103B4000E5F83ABF89F00040CDE90280CDE902896D
:103B5000241F8DF810200DF1110A01E000F2070A70
:103B6000012E32DBDDE9020100220023FEF728FFEF
:103B70002BD21C2102A800F0CBFBDDE90201FEF7ED
:103B80007DFCF61F8046012E09DBFDF7F5FD0246A0
:103B90000B46DDE90201FEF73DFBCDE902010AF229
:103BA0000700072105E008F00F0200F8012D4FEA99
:103BB0002818B8F1010F01DB491EF4D5491E5CBF7E
:103BC000002200F8012DF9D5C8E70DF11100AAEB8C
:103BD00000010DF11106A942B8BF0D462DB2280013
:103BE0002ED4884206DA04A9411849780829A8BFCA
:103BF0000F2100DA002104AA821800E06D1E12F8DD
:103C00000139401E8B42F9D00F2904D104A9411873
:103C10004A78521C4A70002802D504AE6D1C241D3F
:103C20002DB2681E0CD48119ABF13A030A783032F8
:103C3000D2B23A2AA8BF9A1801F80129401EF5D538
:103C4000386B002840F1E780681E3863E3E0DDE967
:103C5000020100220023FEF759F83CBF81F0004129
:103C6000CDE9020124B247F2975060434849DFF89A
:103C700024A190FBF1F424B2C4F107050026012D24
:103C800019DBDDE90289E80707D53246534640468D
:103C90004946FDF769FF804689466D10304651461A
:103CA00032465346FDF760FF06468A46002DEAD1AC
:103CB000CDE9028921E06D429046DFF8DC9012E008
:103CC000E80707D53246534640464946FDF74CFFC4
:103CD000804689466D103046514632465346FDF7C0
:103CE00043FF06468A46002DEAD1DDE9020142463D
:103CF0004B46FDF759FDCDE902014BF02000662847
:103D00000CBF04F10A000620396B4518142DA8BF1A
:103D1000132530208DF810000DF11106DFF87C908E
:103D2000012D3DDBDDE90201FEF7BEFB06F10801D6
:103D300004220A23B0FBF3F303EB8306A0EB460057
:103D4000303001F8010D0A20B3FBF0F000EB8006E3
:103D5000A3EB4603303301F8013D521EE9D1083D83
:103D600001F10806012DDBDBDDE90201FEF79CFB1A
:103D7000FDF70CFD02460B46DDE90201FEF74AFAAB
:103D800000224B46FDF7F0FECDE90201CAE700BF75
:103D9000A0860100000024400000F03F84D7974136
:103DA0000DF11100301A0DF1110602E0401E641EE3
:103DB000761C31783029F9D04BF02001662902D1E8
:103DC00024B2611C03E065290CBF012100213A6B7C
:103DD0008D182DB2A842B8BF05462DB229001AD4BD
:103DE000814204DA885D3528A8BF392000DA302006
:103DF0008A19521E00E06D1E12F80139491E8342D5
:103E0000F9D0392802D1885D401C8855002902D597
:103E1000761E6D1C641C24B200942BB232465946A7
:103E2000384600F003F80FB0BDE8F08F2DE9F047F9
:103E300086B006468A4690461D4600F00CFB406A56
:103E4000376B90F80090012D02DA01250FF26C28F3
:103E50004AF02000BDF93840662808BF641C12D023
:103E6000672875D114F1040F78DBBC4276DA96F836
:103E70003800641C000702D4BD42B8BF2F4624B2EC
:103E80003F1B48BF0027F068B16924B2012C21DA3A
:103E900030234A1C0B54012F03DA96F83810090717
:103EA00002D502F80090521CB261E742B8BF7C42D2
:103EB00024B26142E7197162AF42B8BF3D462DB2EC
:103EC000F5612A46B3694146181800F0C5F9781B18
:103ED000B062B9E00818A54216DA2A46414600F059
:103EE000BBF9B1696918B161601B7062012F03DA17
:103EF00096F83800000705D5F06801F80090F069E1
:103F0000401CF061B7629FE02246414600F0A4F9F0
:103F1000B06920182D1B012F03DA96F83810090715
:103F200003D5F16800F80190401C2DB2B061AF429A
:103F3000B8BF3D46F3682DB22A4604EB0801C0180D
:103F400000F08AF9B0692818B061781B70627BE0D4
:103F5000BAF1610F14D14FF0700A16E0BD4204DAD5
:103F600096F83810090758BF2F467F1E48BF002714
:103F7000BAF1670F14BF4FF0450A4FF0650A04E02D
:103F8000BAF1410F08BF4FF0500AB169F06818F854
:103F9000013B0B544A1C012F05DA96F8381009072B
:103FA00058BFB26115D502F80090531CB361012FC0
:103FB0000FDB6D1E2DB2AF42B8BF3D462DB22A4673
:103FC0004146181800F048F9B0692818B061781B0C
:103FD0007062B069F16800EB0108200008F801ABDD
:103FE00003D42B2008F8010B03E02D2108F8011B56
:103FF0006442002502AF08E00A2200A800F044FA5B
:10400000019807F8010B6D1C009C21B20129F3DA1D
:10401000022D06DA4AF02000652804BF302008F897
:10402000010B4DB9302008F8010B07E06D1E02A806
:10403000285C303008F8010B012DF7DAB069F1681F
:104040004018A8EB0000F06196F8380000F014006A
:1040500010280DD17069B1690818716A0818F169E2
:104060000818B16A0818716B8842BCBF081A306220
:1040700006B0BDE8F087F8B504460D4616461F4663
:10408000002004E0E86A401CE8627F1E002047B17F
:1040900016F8011BA868A047A8600028F2D14FF0CD
:1040A000FF30F2BD686A6C747A4C00006E616E007D
:1040B0004E414E00696E6600494E460030000000D9
:1040C0000278C9B28A421AB11CBF10F8012FF9E771
:1040D00018BF00207047000000F10103810704D0E1
:1040E00010F8011B89B18107FAD10268B2F10131E0
:1040F000914311F0803F04BF50F8042FF6E710F809
:10410000011B11B110F8011BFBE7C01A704700003A
:10411000C9B2830706D0521E22D310F8013B994240
:10412000F7D11FE0083A13D302F1040241EA01215A
:1041300041EA014150F8043B121F21BF4B40A3F15B
:10414000013C2CEA030C1CF0803FF3D0C9B2001FE5
:10415000083210F8013B521E28BF91EA030FF8D82D
:1041600018BF0120401E70471B4213D1094236D1AF
:104170002AB18446B0FBF2F002FB10C2704700F097
:104180008BB9FCD30022002370470B0002000021F2
:1041900000207047904271EB030CF6D370B5B1FA72
:1041A00081F4B3FA83F52C1BA340C4F1200532FA45
:1041B00005F63343A2405FF00046E64002E05B08AC
:1041C0005FEA3202841A71EB030524BF20462946B8
:1041D0007641F4D302000B003000002170BD012AAB
:1041E000CFD970B5140C20D0B1FA81F4B2FA82F5AF
:1041F000C4F120046419B4F12006D6D3B2405FF0B4
:104200000044F440002502E052085FEA3303C61A76
:1042100071EB020E24BF3046714664416D41F3D309
:1042200002000B002000290070BD0C46B1FBF2F12A
:1042300002FB11452D0445EA1045B5FBF2F402FBE3
:10424000145580B240EA0545B5FBF2F002FB10526E
:1042500040EA044070BD000062B38B0708D0521ED4
:1042600011F8013B00F8013B00F024808B07F6D1E8
:10427000830740F0208000BF103A07D330B4B1E884
:104280003810103AA0E83810F9D230BC530724BFD8
:10429000B1E80810A0E8081044BF51F8043B40F80A
:1042A000043BD20724BF31F8022B20F8022B44BF75
:1042B0000B7803707047083A07D3B1E80810083A42
:1042C00040F8043B40F804CBF7D25307E4E730B49E
:1042D000436803F0004201211B031B0B436004BF32
:1042E0000368002B08D10DE00368DD0F45EA4404A4
:1042F00044605B000360491E4468E302F4D5230375
:104300001B0B436043681A434260084630BC704749
:1043100070B504460D466068C0F30A5040F2FF7164
:10432000884207D16068000304BF2068002817D0C6
:10433000022070BD20B92046FFF7C9FF012867DAC7
:10434000012D0FDB40F2FF71091A8D420AD360681C
:10435000002847BF00202F4900202F49C4E9000151
:10436000012070BD4142A942616806DA6FF31E5117
:10437000401941EA0050606041E0401E636801223C
:10438000451962F31F5305F1350001F000416360E8
:10439000352803D361600020206070BD002215F134
:1043A0001F0F04DA22682360002020356060684215
:1043B00013D0521E25689241C0F12003D2439D4084
:1043C00045EAD27225686668C54006FA03F32B43B6
:1043D0002360636823FA00F06060606808436060EF
:1043E000B2F1004F03D80DD12078C0070AD520685C
:1043F000401C2060206828B96068401C60604FF055
:10440000FF3070BD6068884204BF20680028F6D184
:10441000002070BD0000F0FF0000F07F80B5134861
:1044200000F03BF80FF24801016041608160C1601B
:104430000161416181610FF23C0242628162C162AD
:10444000016341630FF2300282630FF23402C263F0
:104450000164416401BD10B5044800F01EF8044633
:10446000206808B9FFF7DAFF204610BD740F00146A
:10447000000000002E00000066616C736500000003
:10448000747275650000000091FBF2F303FB1211DA
:10449000C0E90031704700007047704780B500F0F8
:1044A0005FFD002000F0D3FD0620FEF7A3FD01BD57
:1044B00010B5DFF80C0A007800F090F8022401E053
:1044C000FEF74BFE2000441EC0B20028F8D1FEF7D4
:1044D0003CFEC0B2012801D100F0DCFA10BD30B4BE
:1044E000DFF8E0291278142A01D100202EE0002202
:1044F0000CE0D2B2DFF8CC391B780C24DFF8C859B5
:1045000004FB0353D2B2145CD454521CD2B2135CD9
:10451000002BEED1D2B2DFF8AC0900780C23DFF823
:10452000A84903FB004000231354DFF898090078E2
:104530000C22DFF8943902FB00308160DFF8840937
:104540000078401CDFF87C190870012030BC7047EF
:1045500030B4DFF878291278142A01D100202EE037
:1045600000220CE0D2B2DFF864391B780C24DFF8AB
:10457000605904FB0353D2B2145CD454521CD2B21F
:10458000135C002BEED1D2B2DFF8400900780C2387
:10459000DFF83C4903FB004000231354DFF82C09EB
:1045A00000780C22DFF8283902FB00308160DFF848
:1045B0001C090078401CDFF814190870012030BC79
:1045C000704710B5DFF8F8482478002C04D1DBB22E
:1045D000C9B2C0B200F0E0FD10BD000080B5C0B2AD
:1045E000002808D0022873D006D3042800F02482C3
:1045F000C0F040814AE249E20123DFF8DC280021D3
:10460000012000F042FD0223DFF8D02801210D2017
:1046100000F03BFD0123DFF8C8280421142000F03E
:1046200034FD0123DFF8BC280521142000F02DFD06
:104630000123DFF8B4280621142000F026FD012311
:1046400086A20721022000F020FD012384A2072179
:10465000672000F01AFDDFF894080078C00707D53E
:104660000123DFF88C2804214A2000F00EFD06E02B
:104670000123DFF8802804214A2000F006FDDFF83E
:104680006C080078800707D50123DFF8642805212E
:104690004A2000F0FAFC06E00123DFF85828052143
:1046A0004A2000F0F2FCDFF844080078400707D504
:1046B0000123DFF83C2806214A2000F0E6FC06E052
:1046C0000123DFF8302806214A2000F0DEFCDDE17E
:1046D0000123DFF824280521012000F0D6FC022365
:1046E000DFF818280621012000F0CFFC0223E8A201
:1046F00006215F2000F0C9FCDFF804080078401EA6
:1047000000281FD40123DFF8F80700780C21DFF818
:10471000B82701FB0020B0F10C020021022000F0BC
:10472000B4FC0123DFF8D80700780C21DFF89827C4
:1047300001FB002050F8040C02680021302000F03A
:104740002BFD06E00123DFF8BC270021022000F04A
:104750009CFCDFF8AC070078002824D4DFF8A00721
:104760000078DFF86017097888421CD20223DFF84E
:10477000900700780C21DFF8502701FB002201216F
:10478000022000F082FC0223DFF8740700780C217D
:10479000DFF8342701FB0020806802680121302007
:1047A00000F0FAFC03E0DFF8580700210170DFF8A1
:1047B00050070078401CDFF80C17097888421EDA91
:1047C0000123DFF83C0700780C21DFF8FC2601FB11
:1047D000002010F10C020321022000F056FC0123FE
:1047E000DFF81C0700780C21DFF8DC2601FB002035
:1047F000406902680321302000F0CEFC06E001236E
:10480000DFF800270321022000F03FFCDFF8F0066C
:104810000078801CDFF8AC160978884222DA012380
:10482000DFF8DC0600780C21DFF89C2601FB002075
:1048300010F118020421022000F027FC0123DFF808
:10484000C00600780C21DFF8802601FB0020006AFA
:1048500002680421302000F09FFC0AE046756E00DB
:10486000457363000123DFF89C260421022000F039
:104870000CFC0BE10123DFF880260521012000F06C
:1048800004FC0223DFF874260621012000F0FDFB62
:1048900002237FA206215F2000F0F7FBDFF8680605
:1048A0000078401E002824D40123DFF85C0600783D
:1048B0000C21DFF81C2601FB0020B0F10C020021C6
:1048C000022000F0E2FB01200090DFF83C060078B7
:1048D0000C21DFF8FC2501FB002050F8040C0068D7
:1048E000FCF722FF02000B000021302000F091FCB9
:1048F00006E00123DFF80C260021022000F0C5FBB2
:10490000DFF804060078002829D4DFF8FC050078D9
:10491000DFF8B8150978884221D20223DFF8E805CC
:1049200000780C21DFF8A82501FB002201210220DC
:1049300000F0ABFB02200090DFF8CC0500780C21E2
:10494000DFF88C2501FB002080680068FCF7ECFE96
:1049500002000B000121302000F05BFC03E0DFF8D7
:10496000A80500210170DFF8A0050078401CDFF8E1
:104970005C150978884223DA0123DFF88C0500787A
:104980000C21DFF84C2501FB002010F10C02032163
:10499000022000F07AFB01200090DFF86C0500781F
:1049A0000C21DFF82C2501FB002040690068FCF792
:1049B000BBFE02000B000321302000F02AFC06E0C1
:1049C0000123DFF840250321022000F05EFBDFF821
:1049D00038050078801CDFF8F4140978884223DA5F
:1049E0000123DFF8240500780C21DFF8E42401FB23
:1049F000002010F118020421022000F046FB0120E3
:104A00000090DFF8040500780C21DFF8C42401FBD6
:104A10000020006A0068FCF787FE02000B000421FA
:104A2000302000F0F6FB06E00123DFF8D824042153
:104A3000022000F02AFB29E00223DFF8D024002125
:104A40000C2000F022FB0223DFF8C42402210C20FA
:104A500000F01BFB0223DFF8BC2404210C2000F033
:104A600014FB0123DFF890240621012000F00DFB48
:104A70000123DFF8A4240721012000F006FB012315
:104A8000DFF8982407215F2000F0FFFA01BD000045
:104A90007C2D3E0080B5FEF72BFB00909DF80000BA
:104AA000002853D0022800F09680C0F0F780042838
:104AB00000F08D8103D3052800F05381B2E19DF809
:104AC0000100002803D09DF8010002283DD1DFF845
:104AD000F0030078002806D002281CD004D3042854
:104AE00033D025D331E030E0DFF800040078C00790
:104AF00008D5DFF8F803007810F0FE00DFF8EC13BB
:104B0000087007E0DFF8E403007850F00100DFF8F8
:104B1000DC13087019E0DFF8E8030078012806D3F9
:104B2000DFF8DC030078401EDFF8D41308700CE0D7
:104B3000DFF8D4030078012806D3DFF8CC0300782F
:104B4000401EDFF8C4130870FFE76BE19DF8010019
:104B5000002803D09DF8010002283BD1DFF8600354
:104B60000078002806D0022806D004D3042831D0CB
:104B700019D32FE02EE02DE0DFF884030078401CED
:104B8000DFF87C130870DFF878030078DFF834135F
:104B90000978884206D3DFF82C030078401EDFF83E
:104BA0006013087016E0DFF860030078401CDFF83F
:104BB00058130870DFF850030078DFF810130978F5
:104BC000884206D3DFF804030078401EDFF838136C
:104BD0000870FFE726E19DF80100002803D09DF84A
:104BE0000100022859D1B6480078002806D00228D2
:104BF00017D004D304284ED02BD34EE04DE0BB4851
:104C00000078800706D5B948007810F0FD00B74954
:104C1000087005E0B548007850F00200B34908700C
:104C20003BE0B74800780C21A74A01FB00208068D0
:104C300000689DF80110002901D1401C00E0401DD2
:104C4000AF4909780C22A04B02FB0131896808604A
:104C500023E0AD4800780C219D4A01FB00208068CC
:104C60000068FCF761FD9DF80120002A04D1AC4AE0
:104C7000AC4BFDF78FFB03E00022AB4BFDF78AFB4B
:104C8000FCF7B6FEA04909780C22914B02FB0131DA
:104C90008968086001E000F0C6F8C3E09DF80100F3
:104CA000002803D09DF80100022859D184480078DB
:104CB000002806D0022817D004D304284ED02BD3C6
:104CC0004EE04DE089480078400706D587480078D7
:104CD00010F0FB008549087005E08448007850F02A
:104CE0000400824908703BE0854800780C21764A30
:104CF00001FB0020806800689DF80110002901D1A7
:104D0000401E00E0401F7E4909780C226E4B02FBDA
:104D100001318968086023E07B4800780C216C4AE7
:104D200001FB002080680068FCF7FEFC9DF8012074
:104D3000002A04D17A4A7D4BFDF72CFB03E00022C8
:104D40007B4BFDF727FBFCF753FE6F4909780C22DC
:104D50005F4B02FB01318968086001E000F063F8F5
:104D600060E09DF80100002830D155480078002807
:104D700006D0022816D00CD3042825D01BD325E05A
:104D8000002000F064F94E480078401C4C4908703F
:104D90001CE0002000F05BF949480078401C4849BD
:104DA000087013E0002000F052F945480078401CDC
:104DB000434908700AE0002000F049F940480078B3
:104DC000401C3F49087001E000F02DF82AE09DF8F2
:104DD0000100002826D13A480078012807D3002096
:104DE00000F035F936480078401E354908703448DF
:104DF0000078002816D102234E4A0221052000F037
:104E000044F9002005E0491C4FF47A729142FADB24
:104E1000401C42F21071884201DA6421F4E700205C
:104E200000F015F901BD10B52548012101700020E1
:104E300000F00DF9002400E00834802C24DA02236D
:104E400024A202212000C0B200F01FF9022321A2F7
:104E500004212000C0B200F018F9002005E0491C30
:104E60004FF47A729142FADB401C42F21071884290
:104E7000E2DA382C06DB00214FF496729142F3DA25
:104E8000491CF9E70021EBE7002000F0E0F80223DD
:104E9000294A0221052000F0F8F8002005E0491C0D
:104EA0004FF47A729142FADB401C42F21071884250
:104EB00001DA6421F4E7002000F0C9F810BD000019
:104EC000700F00146C0F0014000D00146D0F00140F
:104ED000F00D00143E000000F8800000608100002A
:104EE000A0810000AC810000B8810000900900148E
:104EF000548200005C820000108100006482000087
:104F00006E0F0014708100006F0F0014C481000048
:104F1000D0810000DC8100006C82000074820000FF
:104F20009A9999999999B93F0000E03F9999B9BF29
:104F30000000E0BF808100009081000080B5030088
:104F4000DBB200223C21012000F039FB01BD80B51D
:104F50000300DBB240223C21012000F030FB01BD08
:104F600080B50020401C4FF47A71884204DA0A218F
:104F7000491E0129F6DBFBE7AE20FFF7DFFF20200B
:104F8000FFF7DCFF1020FFF7D9FFB020FFF7D6FFB7
:104F9000C820FFF7D3FF0020FFF7D0FF1020FFF756
:104FA000CDFF4020FFF7CAFF8120FFF7C7FFFF209A
:104FB000FFF7C4FFA120FFF7C1FFA620FFF7BEFF48
:104FC000A820FFF7BBFF3F20FFF7B8FFA420FFF7A3
:104FD000B5FFD320FFF7B2FF0020FFF7AFFFD520CA
:104FE000FFF7ACFFF020FFF7A9FFD920FFF7A6FFDE
:104FF0002220FFF7A3FFDA20FFF7A0FF1220FFF720
:105000009DFFDB20FFF79AFF2020FFF797FF8D2001
:10501000FFF794FF1420FFF791FFAF20FFF78EFFFB
:1050200001BD10B50400B1F15000C0B2FFF786FF1A
:10503000E4B2200950F01000C0B2FFF77FFF14F077
:105040000F0050F00100C0B2FFF778FF10BD70B53F
:105050000400002508E02000C0B2FFF778FF761CAE
:10506000F6B2802EF7D36D1CEDB2082D0CD2B5F13F
:105070005000C0B2FFF762FF0020FFF75FFF102073
:10508000FFF75CFF0026EBE770BD2DE9F843040055
:105090000D00160000275FF000085FF00009DBB28A
:1050A000012B17D0022B43D074E05FFA88F8FFB2CF
:1050B0000620884900FB071018F80000FFF747FF9B
:1050C00018F101085FFA88F8B8F1060FEDD3A41DB6
:1050D00019F101095FFA89F919F80600002813D0BF
:1050E0005FFA89F919F80600B0F12007E4B27F2CC5
:1050F00001D300246D1C2900C9B22000C0B2FFF703
:1051000090FF5FF00008DDE744E0FFB2380150FA9D
:1051100088F071494018007AFFF719FF18F101086B
:105120005FFA88F8B8F1080FEFD3083419F10109D4
:105130005FFA89F919F8060000282BD05FFA89F97F
:1051400019F80600B0F12007E4B2792C01D300244D
:105150006D1C2900C9B22000C0B2FFF762FF5FF0EA
:10516000000809E0FFB2380150FA88F05A49405C63
:10517000FFF7EDFE18F101085FFA88F8B8F1080FA3
:10518000F0D3691CC9B22000C0B2FFF74AFF5FF03C
:105190000008C5E7BDE8F183F0B583B000AC4F4D22
:1051A000C0CDC0C4083D083C00240025002A05D518
:1051B0002D258DF80050641C524201250A2692FBD1
:1051C000F6F706FB1726303600AFE6550A2692FBA7
:1051D000F6F2641C012AF1DA00228DF80720641E21
:1051E0000022EDB2012D0BD1012209E000AD555D89
:1051F00000AE00AFE75D975500AEA555521C641E8A
:105200009442F3DADBB200AAC9B2C0B2FFF73DFFA5
:10521000F7BD2DE9F8430600894614001D00DDF8AE
:10522000208020002900FDF729F907004346DBB262
:10523000984620002900FDF721F90200434649461F
:10524000C9B23000C0B2FFF7A7FF20002900244AEE
:10525000244BFCF75BFD01D295F000453800FCF7CC
:105260008BFA02000B0020002900FCF7D3FF00227C
:105270001D4BFCF779FCFDF701F9040000256D1CBE
:105280000A2097FBF0F7012FF9DA012C1EDB4346C9
:10529000DBB20FA24946C9B25FFA88F808FB05F0F5
:1052A000C00050FA86F0C0B2FFF7EFFE4346DBB213
:1052B00022004946C9B2681C5FFA88F808FB00F072
:1052C000C00050FA86F0C0B2FFF766FFBDE8F18378
:1052D0002E00000060780000846E00004C82000008
:1052E0008DEDB5A0F7C6B03E000059402DE9F04362
:1052F000A1B004000D00E4B2002C12D1DFF8A80325
:10530000006850F04000DFF8A013086040F223214D
:105310006820FDF76DFB40F223216920FDF768FB53
:1053200011E0DFF88403006850F08000DFF87813A4
:10533000086040F223214A20FDF75AFB40F2232166
:105340004B20FDF755FB00A8DFF860138022FEF725
:1053500093FFD74800684CF25131884201DA0026A9
:1053600007E0D3480068D349884201DA012600E00B
:105370000226CF4800684FF47A714843F6B2711C98
:105380006943B0FBF1F75FF040084FF6FF7906E0A4
:1053900080B21FFA89F9484501D2454681465FFA35
:1053A00088F8B8F1000F0ED0B8F10108BFB25FFA6B
:1053B00088F800A830F81800381AFCF7BEFC80B254
:1053C0000028E5D14546E4B2BB4850F8240015F06A
:1053D0003F0151EA86114170E4B2B74850F8240009
:1053E00080218170B24800684FF47A714843F6B268
:1053F000711CEDB200AA32F81520514390FBF1F078
:1054000021B0BDE8F083000081B06420ADF8000059
:1054100000E000BFBDF80000411EADF8001080B2F2
:105420000028F6D101B0704700E000BF0100481E1F
:10543000C9B20029F9D1704770B504000D001600FB
:10544000280603D5DF219D48FDF73FFBE4B29A48CB
:1054500050F82400807850F03000E4B2964951F8BA
:10546000241088700120FFF7DFFFE4B2924850F863
:10547000240069000171E4B28F4850F82400C0781C
:105480008007F8D5E4B28C4850F82400C07850F07A
:105490000200E4B2884951F82410C8700120FFF7D7
:1054A000C3FFE4B2844850F824000671E4B2824895
:1054B00050F82400C0788007F8D5E4B27E4850F850
:1054C0002400C07850F00200E4B27B4951F8241067
:1054D000C8700120FFF7A8FFE4B2774850F8240015
:1054E000807850F00400E4B2734951F824108870B9
:1054F0000120FFF799FFE4B26F4850F824006900DB
:1055000051F001010171E4B26B4850F82400C078F9
:105510008007F8D5E4B2684850F82400C07850F00D
:105520000200E4B2644951F82410C8700120FFF76A
:105530007BFFE4B2604850F82400807810F0EF0060
:10554000E4B25D4951F824108870E4B25A4850F82A
:105550002400807850F00800E4B2574951F8241034
:105560008870E4B2544850F824000579E4B25248F7
:1055700050F82400C0788007F8D5E4B24E4850F8BF
:105580002400C07850F00200E4B24B4951F82410D6
:10559000C870E4B2484850F82400807810F0CF007A
:1055A000E4B2454951F824108870E4B2424850F8FA
:1055B00024000579FFF728FF2800C0B270BDF8B5B8
:1055C00004000D0016001F00E4B23B4850F8240010
:1055D000807850F03000E4B2374951F824108870D8
:1055E0000120FFF721FFE4B2334850F8240069009E
:1055F0000171E4B2304850F82400C0788007F8D533
:10560000E4B22D4850F82400C07850F00200E4B213
:10561000294951F82410C8700120FFF705FFE4B2B2
:10562000254850F824000671E4B2234850F82400BD
:10563000C0788007F8D5E4B21F4850F82400C0783D
:1056400050F00200E4B21C4951F82410C870012047
:10565000FFF7EAFEE4B2184850F824000771E4B2FC
:10566000154850F82400C0788007F8D5E4B21248F5
:1056700050F82400C07850F00200E4B20E4951F80E
:105680002410C8700120FFF7CFFEE4B20A4850F89A
:105690002400807810F0CF00E4B2074951F82410BC
:1056A0008870FFF7B1FEF1BD348004407C7D0000BE
:1056B000FC0C0014A186010014090014007F0000F6
:1056C0006666E63FACC5A73848E17A3F0000F04186
:1056D0000AD7A33BEC51B83D0000984133337340E7
:1056E0000AD7A33B9A99993F640000000A00000082
:1056F0000000000000C072409A9999999999A93FB9
:105700000000000000408F400000803FCDCC0C3FE7
:105710000000803F000000004260E53B1B2FDD3CA5
:10572000A69B443D23DB793FF46C163E70CEC83E09
:10573000000000008FC2F53C1B2F5D3D295C0F3E31
:10574000D93D393EEA95723EE336BA3EF90215502C
:1057500000001841000018410000F0400000F04037
:105760000000D0400000D0400000B0400000B04039
:105770000000804000008040000060400000000009
:105780000000000000002041000000410000004136
:105790000000C0400000C0400000A0400000A04049
:1057A0006666964066669640CDCC4C40CDCC4C406B
:1057B0003333334000000000000000000000D04000
:1057C0000000C0400000C0400000A0400000A04019
:1057D00000009040000090409A9979409A99794051
:1057E0000000604000006040666626400000000047
:1057F000000000003333A3403333934033339340EE
:105800000000804000008040666666406666664034
:1058100000004040000040409A9919409A99194070
:10582000CDCCCC3F00000000000000009A997940E8
:105830000000604000006040333333403333334076
:10584000CDCC0C40CDCC0C409A99D93F9A99D93FF8
:105850003333B33F3333B33F9A99993F000000008D
:1058600000000000CDCCCC3F6666A63F6666A63F32
:105870009A99993F9A99993F3333933F3333933FA2
:105880001F858B3F1F858B3FB81E853FB81E853F08
:10589000AE47813F0000000000000000CE00000085
:1058A0000300000000B0034000B00B400000000007
:1058B00000000000000000000000000000000000E8
:1058C000000000000000000000004E6F6E4D61738C
:1058D0006B61626C6500000000486172644661752E
:1058E0006C740000000000004D656D4D616E6167D5
:1058F000656D656E7400004275734661756C740069
:1059000000000000000055736167654661756C74A6
:105910000000000000000000000000000000000087
:105920000000000000000000000000000000000077
:105930000000000000000000000000000000000067
:105940000000000000000000000000000000000057
:1059500000535643616C6C00000000000000000022
:1059600044656275674D6F6E69746F720000000068
:105970000000000000000000000000000000506572
:105980006E6453560000000000000000005379735D
:105990005469636B0000000000000000444D41307A
:1059A0000000000000000000000000444D413100F4
:1059B00000000000000000000000444D41320000E3
:1059C000000000000000000000444D4133000000D2
:1059D0000000000000000000444D413400000000C1
:1059E00000000000000000444D41350000000000B0
:1059F000000000000000444D41360000000000009F
:105A00000000000000444D4137000000000000008D
:105A100000000000444D413800000000000000007C
:105A2000000000444D41390000000000000000006B
:105A30000000444D41313000000000000000000033
:105A400000444D4131310000000000000000000022
:105A5000444D4131320000000000000000000044CD
:105A60004D41313300000000000000000000444DB3
:105A700041313400000000000000000000444D41AE
:105A8000313500000000000000000000444D415F7F
:105A90004572726F720000000000004D434D00001F
:105AA000000000000000000000004654464C0000CA
:105AB000000000000000000000526561645F436F59
:105AC0006C6C6973696F6E004C56445F4C5657009E
:105AD000000000000000004C4C57000000000000D7
:105AE0000000000000005761746368646F67000085
:105AF0000000000000524E470000000000000000BF
:105B000000000000493243300000000000000000A7
:105B10000000004932433100000000000000000096
:105B20000000535049300000000000000000000059
:105B30000053504931000000000000000000000048
:105B400053504932000000000000000000000043F4
:105B5000414E305F4F525F4D425F62756600434178
:105B60004E305F4275735F4F666600000043414EE2
:105B7000305F4572726F72000000000043414E308A
:105B80005F54785F5761726E696E6743414E305F54
:105B900052785F5761726E696E6743414E305F574E
:105BA000616B655F557000000052657365727665C4
:105BB00064353100000000005265736572766564DB
:105BC0003532000000000043414E315F4F525F4DBF
:105BD000425F6275660043414E315F4275735F4FAD
:105BE000666600000043414E315F4572726F72007D
:105BF0000000000043414E315F54785F5761726E80
:105C0000696E6743414E315F52785F5761726E69CA
:105C10006E6743414E315F57616B655F55700000A1
:105C200000526573657276656435390000000000C6
:105C30005265736572766564363000000000005569
:105C4000415254305F52585F545800000000554193
:105C50005254305F4552520000000000005541523E
:105C600054315F52585F545800000000554152545F
:105C7000315F45525200000000000055415254323D
:105C80005F52585F54580000000055415254325F33
:105C900045525200000000000055415254335F52FB
:105CA000585F54580000000055415254335F45522C
:105CB0005200000000000055415254345F52585FBA
:105CC00054580000000055415254345F4552520070
:105CD000000000000055415254355F52585F54583F
:105CE0000000000055415254355F455252000000FB
:105CF00000000041444330000000000000000000AC
:105D0000000041444331000000000000000000009A
:105D100000434D5030000000000000000000000073
:105D2000434D50310000000000000000000000431F
:105D30004D503200000000000000000000004654FA
:105D40004D30000000000000000000000046544DEF
:105D500031000000000000000000000046544D32F9
:105D60000000000000000000000000434D5400004F
:105D7000000000000000000000005254430000003A
:105D80000000000000000000005265736572766537
:105D90006438330000000000504954300000000017
:105DA00000000000000000504954310000000000D5
:105DB00000000000000050495432000000000000C4
:105DC00000000000005049543300000000000000B3
:105DD00000000000504442300000000000000000BD
:105DE0000000005553423000000000000000000099
:105DF00000005553424443440000000000000000EE
:105E000000454E45545F313538385F54696D6572D1
:105E1000454E45545F5472616E736D697400004560
:105E20004E45545F52656365697665000000454ED6
:105E300045545F4572726F72000000000049325392
:105E40003000000000000000000000005344484300
:105E5000000000000000000000000044414330004A
:105E60000000000000000000000044414331000039
:105E70000000000000000000005453493000000002
:105E800000000000000000004D434700000000003B
