:10000000F8FF002011040000912900009129000050
:1000100091290000912900009129000091290000F8
:1000200091290000912900009129000091290000E8
:1000300091290000912900009129000091290000D8
:1000400091290000912900009129000091290000C8
:10040000FFFFFFFFFFFFFFFFFFFFFFFFFEFFFFFFFD
:1004100062B607F02DFAFEE738B5DFF8F00A036898
:10042000DFF8EC0A026814001D00DFF8E80A016832
:10043000DFF8E40A006800F089FF01002B002200C9
:10044000DFF8D80A00F0EEFFDFF8D40A0368DFF81F
:10045000D40A0268DFF8D00A0168DFF8240D00F042
:10046000E1FF31BD2DE9F0410400884610001D0078
:10047000DFF8B81A0968052298FBF2F2B1FBF2F333
:1004800002FB1311002950D1DFF8A01A09680029D6
:100490002CD1DFF89C1A0978090708D4DFF8900AF4
:1004A000007850F00800DFF8881A087005E000F0C6
:1004B000C3FF216800F0EAFF2060206801F028F8FF
:1004C00006000F00404601F04BF80022DFF8B43C74
:1004D00001F05EF802000B003000390001F058F81E
:1004E00001F07AF928600020206024E000F0A4FFE9
:1004F000216800F0CBFF2060206801F009F80600B9
:100500000F00404601F02CF80022DFF8783C01F0A3
:100510003FF802000B003000390001F039F801F01B
:100520005BF928600020206005E000F085FF21686D
:1005300000F0ACFF2060BDE8F0812DE9F04F83B002
:1005400081468B460024002500264846DFF8381CEB
:10055000096801F089F9804600275FF0000ADFF89A
:100560002C0CB0F90000DFF8281DB1F900100818B4
:10057000022190FBF1F0DFF8181C0880DFF8143C32
:10058000DFF80C0CB0F90020DFF8080D0168DFF887
:10059000080CFFF767FFDFF8040C0068DFF8F41BB6
:1005A000096801F061F98246DFF8F43BDFF8DC0B03
:1005B000B0F90020DFF8EC0B0168DFF8EC0BFFF777
:1005C00051FFDFF8D43CDFF8C80CB0F90020DFF8A9
:1005D000D40B0168DFF8D40BFFF744FFDFF85009B4
:1005E000007810F0FD00DFF848190870DFF84009C6
:1005F000007810F0EF00DFF838190870DFF83009E4
:10060000007880074DD4DFF8940B006800F080FF7D
:10061000DFF8882CDFF8983B01F09AF902000B0014
:1006200014001D00DFF8680BB0F9000000F004FFB3
:10063000DFF8681B096801F017F900F069FF220074
:100640002B0001F057FA2CD2DFF8440BB0F9000070
:1006500000F0F2FEDFF8441B096801F005F900F034
:1006600057FF02000B0014001D00DFF8300B00687C
:1006700000F04EFFDFF8242CDFF8243C01F068F98D
:1006800022002B0001F036FA0BD2DFF8A408007824
:1006900050F00200DFF898180870DFF8080C00210D
:1006A0000160DFF87808DFF8F01A0968C160484691
:1006B00000F080FD4046002101F034FA2FD8DFF829
:1006C00054080068494600F041FE0400DFF8D80BEA
:1006D0000068414600F03AFE210000F0D7FE00F02D
:1006E00017FFCDE90001404600F012FFDFF8AC2B08
:1006F000DFF8B83B01F02CF904000D00404600F093
:1007000007FF22002B0001F023F9DDE9002301F0AF
:100710001BFA01F061F8DFF8981B086030E0DFF8A1
:10072000F4070068494600F011FE0400DFF8780B7A
:100730000068414600F00AFE210000F0A7FE00F02C
:10074000E7FECDE90001404600F0E2FEDFF84C2B69
:10075000DFF8583B01F0FCF804000D00404600F0C3
:10076000D7FE22002B0001F0F3F802000B00DDE9B8
:10077000000101F05DFA01F02FF8DFF8341B08608A
:10078000DFF8040AC0F80090DFF8A4070078C0077B
:100790006CD44846DFF81C1B01F0C4F92FD9484639
:1007A000DFF8141B01F004FB29D35846DFF80C1BBB
:1007B00001F0FEFA23D3DFF8D809B0F900004FF6B4
:1007C0000D61401A40F2E73180B2884217D2DFF85B
:1007D000BC09B0F900004FF60D61401A40F2E73154
:1007E00080B288420BD2DFF8A80AB0F900004FF6B9
:1007F0000D61401A40F2E73180B2884216D3DFF82B
:100800003007007850F00100DFF824170870DFF897
:10081000B00A006800F010FEDFF8A81A096800F0BE
:1008200095FD390000F032FE07006CE0DFF8FC06B1
:100830000068DFF8601A0968052291FBF2F1B0FB4D
:10084000F1F201FB120000280CD1CDF80080DFF896
:10085000600A0368DFF8702ADFF8480A016850462A
:1008600000F068FBDFF8600A07684CE0DFF8C006BC
:100870000078C00747D54846DFF8501A01F098FACB
:1008800033D24846DFF8481A01F04CF92DD85846C3
:10089000DFF8401A01F046F927D8DFF8940600780F
:1008A00010F0FE00DFF888160870DFF88006006898
:1008B000DFF8E0190968052291FBF2F1B0FBF1F2D3
:1008C00001FB120000280CD1CDF80080DFF8E00910
:1008D0000368DFF8F429DFF8CC090168504600F01E
:1008E00029FBDFF8E40907680DE0DFF8D4090068A8
:1008F00000F0A2FDDFF8CC19096800F027FD3900EF
:1009000000F0C4FD0700DFF8D0090078400708D5E3
:10091000DFF89C090068390000F0B8FDDFF8901995
:10092000086001F057FADFF888090068002101F03B
:10093000F9F80AD2DFF878090168DFF8A00900F0B9
:10094000A5FDDFF86C19086010E0DFF864090068A5
:10095000002101F02DFA09D2DFF854090168DFF80F
:10096000800900F093FDDFF848190860DFF8680996
:100970000078002801D1012000E00020DFF82008E5
:100980000068DFF81419096801F0CAFB13D1DFF819
:1009900054090068002101F0C5F802D2DFF8486967
:1009A00035E0DFF840090068002101F001FA2ED29D
:1009B000DFF838692BE0DFF8E8070168DFF8D808CE
:1009C000006800F063FD002101F0AAFB09D1DFF807
:1009D000C8080068002101F0A3FB02D0DFF810690D
:1009E00015E0DFF8BC070168DFF8AC08006800F02C
:1009F0004DFD0400DFF8A0080068DFF8A4170968BF
:100A000000F032FF0100200001F098FB0600DFF843
:100A10008007B0F9000001F00FFC02284FDADFF880
:100A20007007B0F9000001F007FC0700300000F08B
:100A30006FFD31F0004102000B000020DFF8B41818
:100A400000F0A6FD02000B0014001D00380000F0AD
:100A500087FD22002B0001F04DF880F099803000D6
:100A6000002101F05FF812D2DFF82407B0F900008E
:100A700001F0E2FB00F074FD02000B000020DFF843
:100A8000741800F085FD00F0A7FE060080E030003D
:100A9000002101F08DF97BD2DFF8F406B0F90000F7
:100AA00001F0CAFB00F05CFD02000B000020DFF843
:100AB000481800F06DFD00F08FFE060068E0300081
:100AC00000F026FD31F00041DFF83028DFF8303843
:100AD00001F010F80ED23000002101F023F802D20C
:100AE000DFF80C6806E03000002101F061F901D266
:100AF000DFF81068DFF89806B0F9000001F09CFB01
:100B00000700300000F004FD31F0004102000B004E
:100B100000205FF0804100F03BFD02000B0014005C
:100B20001D00380000F01CFD22002B0000F0E2FF49
:100B30002ED23000002100F0F5FF12D2DFF850066F
:100B4000B0F9000001F078FB00F00AFD02000B0094
:100B500000205FF0804100F01BFD00F03DFE06002C
:100B600016E03000002101F023F911D2DFF8200651
:100B7000B0F9000001F060FB00F0F2FC02000B0095
:100B800000205FF0404100F003FD00F025FE06006C
:100B9000DFF85007006800F0BBFC02000B000020EB
:100BA000DFF8641700F0F4FC04000D00300000F0E2
:100BB000AFFC02000B000020DFF84C1700F0E8FC4F
:100BC00002000B002000290001F032F800F004FEC2
:100BD000DFF8AC15C860DFF8B805B0F900000128EF
:100BE00035DBD1480168DFF89805C06800F0AEFB3E
:100BF0000400DFF88C05C068DFF88415096900F08F
:100C000033FEC749096800F0A1FB210000F03EFC5B
:100C100000F07EFC04000D00DFF87405B0F9000060
:100C200000F00AFCDFF8E41601F088FA00F070FC2E
:100C30000022DFF8D43600F087FF22002B0000F0FE
:100C400087FE00F0C9FDDFF8C816086036E0B64838
:100C50000168DFF82C05C06800F078FB0400DFF8BD
:100C60002005C068DFF81815096900F0FDFDAC49E2
:100C7000096800F06BFB210000F008FC00F048FC64
:100C800004000D00DFF80805B0F9000000F0D4FB07
:100C9000DFF8781601F052FA00F03AFC02000B007F
:100CA0000020DFF8641600F0C3FF22002B0000F0E4
:100CB0004FFE00F091FDDFF858160860DFF8F005F0
:100CC000006800F025FC06000F00DFF81806006839
:100CD00000F01EFC02000B000020DFF82C1600F0D4
:100CE00057FC04000D00DFF82806006800F010FC37
:100CF00022002B0000F028FF02000B000020DFF88C
:100D0000081600F095FF32003B0000F021FE01F0D4
:100D100097FA0400DFF89805006800F0F9FB8046B8
:100D20008946DFF8C005006800F0F2FB02000B0006
:100D30000020DFF8D41500F02BFC06000F00DFF8D0
:100D4000D005006800F0E4FB32003B0000F0FCFE40
:100D50000022DFF8B43500F0F7FE42464B4600F0C3
:100D6000F7FD01F06DFA0500200000F0F9FB804668
:100D70008946DFF81804B0F90000404200F0F0FBAB
:100D8000DFF87825DFF88C3500F0E2FDDFF86C2520
:100D9000DFF8803500F0FCFB06000F00DFF8780577
:100DA000006800F0B5FB32003B0000F0D1FD06000A
:100DB0000F00C820DFF8DC14096890FBF1F000F0A8
:100DC000CFFB32003B0000F0C3FD42464B4600F033
:100DD000BBFE01F035FA0400280000F0C1FB80469C
:100DE0008946DFF8AC04B0F90000404200F0B8FBDF
:100DF000DFF80825DFF81C3500F0AAFDDFF8FC2439
:100E0000DFF8103500F0C4FB06000F00DFF80C051A
:100E1000006800F07DFB32003B0000F099FD060009
:100E20000F00C820DFF86C14096890FBF1F000F0A7
:100E300097FB32003B0000F08BFD42464B4600F032
:100E400083FE01F0FDF90500344834490969416128
:100E500032483249C9680161C948C94909694161D3
:100E6000C748C749C96801614FF47970854201DB01
:100E700040F2E335DFF8A804854201DADFF8A05438
:100E80004FF47970844201DB40F2E334DFF89004E0
:100E9000844201DADFF88844002D0DD44FF47A70D3
:100EA000421B0421002001F02CFB4FF47A72052133
:100EB000002001F026FB0BE04FF47A7204210020A1
:100EC00001F01FFB05F2E8320521002001F019FBBB
:100ED000002C0DD44FF47A720621002001F011FB92
:100EE0004FF47A70021B0721002001F00AFB0BE08F
:100EF00004F2E8320621002001F003FB4FF47A727D
:100F00000721002001F0FDFABDE8F78F4009001429
:100F10003C0900142C09001438090014340E001484
:100F2000500900144C09001448090014B80E0014AC
:100F30002A0F00142DE9F04F04000D001600099F40
:100F40002800002100F034FF60D82000002100F0CC
:100F5000E9FD2FD8DFF8CC030168DFF8CC03006887
:100F600000F0F4F9210000F0F1F900F0D1FA824626
:100F70008B46DFF8B0030168DFF8AC03006800F0CF
:100F8000E5F900F0C5FA02000B000020002100F096
:100F9000DFFC80468946280000F0BAFA42464B46FC
:100FA00000F0D6FC52465B4600F0CEFD00F014FC8B
:100FB00030608FE0DB480168DB48006800F0C6F96C
:100FC000210000F0C3F900F0A3FA82468B46D54811
:100FD0000168D548006800F0B9F900F099FA0200FC
:100FE0000B000020002100F0B3FC80468946280059
:100FF00000F08EFA42464B4600F0AAFC52465B4691
:1010000000F0A2FD00F0E8FB306063E0200000216A
:1010100000F088FD2FD8C3480168C348006800F07D
:1010200095F95FF07E5100F091F9210000F08EF902
:1010300000F06EFA82468B46BA480168BA480068EA
:1010400000F084F900F064FA02000B000020002197
:1010500000F07EFC80468946280000F059FA42469E
:101060004B4600F075FC52465B4600F06DFD00F00B
:10107000B3FB30602EE0AB480168AB48006800F07D
:1010800065F95FF07E5100F061F9210000F05EF932
:1010900000F03EFA82468B46A2480168A2480068EA
:1010A00000F054F900F034FA02000B000020002197
:1010B00000F04EFC80468946280000F029FA42469E
:1010C0004B4600F045FC52465B4600F03DFD00F00B
:1010D00083FB30602000002100F024FD40D2380066
:1010E000002100F065FE3BD2306800F011FA824624
:1010F0008B466D480068390000F028F95FF08141A7
:1011000001F01CF800F004FA80468946380000F02F
:10111000FFF902000B006148644900F019FC04006B
:101120000D00380000F0F4F922002B0000F010FC54
:1011300002000B004046494600F07AFD00227B4B3E
:1011400000F026FA00225FF0804300F001FC02006C
:101150000B005046594600F06BFD00F03DFB30603F
:101160003068734900F0DEFC01D8724830603068A6
:10117000714900F01DFE01D270483060BDE8F08F6B
:10118000540E001400001440880D00141A0F0014AF
:10119000180F00148C0E00147C0E00144409001467
:1011A000940E001458090014840E0014880E0014C4
:1011B0009999B93F30B50021614A12680523B2FB05
:1011C000F3F2502A24D25E4909680522B1FBF2F3FA
:1011D00002FB131100291BD1594909680522B1FBF3
:1011E000F2F4584D01F0ACFA25F81400344800210F
:1011F00001600021C9B2502939D231480068C9B212
:10120000504A32F9112080182D4A1060491CF1E72C
:101210004B4909680522B1FBF2F15039502926D219
:10122000474909680522B1FBF2F302FB13110029BB
:101230001DD1434909680522B1FBF2F1414A12EB85
:10124000410401F07DFA24F8A00C3F480021016020
:10125000002109E01A480068C9B23A4A32F911205F
:101260008018174A1060491CC9B25029F2D334487B
:101270000068401C32490860314800684FF44871EA
:10128000884203D12E484FF4A071016030BD0000A8
:101290001C0F001454090014900E00149A99999987
:1012A0009999B9BF800E0014340900149999993F97
:1012B000800D001401007A4400002FC40080BBC4DC
:1012C0008C0D001430090014840D00140000164326
:1012D000FFFF15C3FFFFF9C31C09001400002042E3
:1012E000000020C2680B001420BCBE4C20BCBECC49
:1012F0000AD7233C00002440000024C07B14AE47E2
:10130000E17A843F0AD723BC0000F03F00008C4202
:10131000780E0014E17A743F700E0014740E0014FD
:101320001DFCFFFF2C0900143809001400000840C0
:101330000100484400004844008009C6000048C439
:10134000300E0014900D0014500E0014FF2212EA0B
:10135000D05C1DBF12EAD153944593422BE09C44CC
:10136000D30780EA01021A4043EA002043EA012140
:10137000A1FB0030410038BF40007CF17F010BDB56
:10138000FE294ADA5B0842EAC15153EA006373F16D
:10139000004C51EB10207047D1F1080CDCF120011A
:1013A0002FDB5B0810FA01F10B4373F1004120FAC7
:1013B0000CF05041704794451CBF02EAD153934250
:1013C00080EA010202F000421DD0400019D049001D
:1013D00017D05BB9634514D00902B1FA81F3994083
:1013E000BCEB030CC00140F00040C1E70002B0FAC2
:1013F00080FC10FA0CF0B3EB0C0CC90141F0004179
:10140000B6E71000704740000AD0490008D010F13C
:10141000807F94BF11F1807F02E042F0FF4070476F
:10142000D04370470160426083600021C1600021A9
:101430000161002141617047002840F10980F446B4
:10144000404200F005F850F000406047002800BF1F
:101450000AD0B0FA80F18840D1F19D01C905020699
:1014600072F1004241EB1020704750F8041B61B14B
:1014700050F8042BD30744BFA9F101039A180023A5
:1014800042F8043B091FFAD1EFE7704790EA010FD9
:1014900044BF81F0004100F0EFB900BF421A3CBFE9
:1014A000801A89184FF0004CC0F3C752FF2A24D08D
:1014B000C1F3C75313B3D21AD2F1190327DD4CEA93
:1014C00001214CFA03F321EA0303D140C20D4CEA97
:1014D0000020401834BF20EA0C004CEA5000D2052E
:1014E00053EA006373EB0C0C52EB1020420012F134
:1014F000807F38BF7047C00DC0057047490212BFDA
:101500009A4200EB5120F8E7D2F11703D9D5704782
:101510005FF0FF0C1CEAD05114BF614506E0C1101A
:10152000400721F0E04101F16051704779B900F0C6
:10153000004100020AD0B0FA80FC00FA0CF001F180
:101540006051A1EB0C5101EBD021400570474102E5
:101550000CBF40F4E0016FF0000100207047000074
:10156000010040F10980F446404200F005F851F0D6
:1015700000416047010000BF09D0B0FA80F1884007
:10158000C91CC1F58461090501EBD02140057047F4
:10159000F0B540F2FF7581EA030C0CF0004C15EA3F
:1015A00011541DBF15EA1357AC42AF42E5E0BC41F0
:1015B000C1F31301C3F31303801A994143F4801359
:1015C00004D2641E4000494180185941C90241EAD1
:1015D0005051B1FBF3F603FB1611A2FB0675D7EBD6
:1015E000C020A94102D2761E80185941C90241EAA1
:1015F0005051B1FBF3FE03FB1E11A2FB0E75D7EB9E
:10160000C020A94103D2AEF1010E801859418902D0
:1016100041EA9051760546EA8E2EB1FBF3F603FBC4
:101620001611A2FB0675D7EB8020A94102D2761EC7
:1016300080185941C90241EA50514EEA060EB1FBE9
:10164000F3F603FB1611A2FB0675D7EBC020A941E8
:1016500002D2761E80185941C90241EA5051B1FBAD
:10166000F3F703FB1711A2FB0735D3EBC020A94109
:1016700067F100070CBF004247F0010766F3D5276A
:101680004FEA1E31B80814F5806412DDBD0775F10C
:10169000004250EB0E5051EB045111F5801F5CBF1E
:1016A00041EA0C01F0BD4CF07F6141F0E0410020C7
:1016B000F0BDBD076D0840EA0E5041F48011D4F131
:1016C0000104B4F120060ADAC4F120060200E04069
:1016D00001FA06F3E1401843B24015430EE0342C02
:1016E00013DCC6F1200445EA40056D0820FA06F235
:1016F000154321FA06F0A1400D43002175F1004287
:1017000050F1000051EB0C01F0BD00205FEA0C012C
:10171000F0BDCFB992185B41B3FA83F704BFB2FAB8
:1017200082F6BF190B3FB7F120062FBF02FA06F36E
:10173000BB40C7F1200622FA06F638BF3343BA4051
:101740001CB1E419641E33E77F4231F00041B1FA65
:1017500081F404BFB0FA80F6A4190B3CB4F1200662
:101760002FBF00FA06F1A140C4F1200620FA06F6C8
:1017700038BF3143A0403C1B1AE7AC421ABF05EA10
:101780001357AF4212E050EA41061CBF52EA43062B
:10179000BFE750EA4107304661461CBF41EA0551A8
:1017A000F0BD52EA430C08BFC143F0BD00204FF426
:1017B000001616EB410F98BF16EB430F08BF16EB50
:1017C000410F24BFC14305E016EB430F0CBF614638
:1017D0004CEA0551F0BD00004FEAF17CBCF1E04C51
:1017E0002CBFBCF5001F11E05FEA4C0C34BFBCF10C
:1017F0007F5F2EE05FEA9C0C4FEA0C1C4FEA3C0C2A
:10180000C10071F100414CEB50707047C90241EAD0
:101810005051C00218BF41F0010141F000414FEAB0
:101820006C50C0F10900212810D240EACC7CCCF1E8
:10183000200C11FA0CF070F10040CCF1200C21FAD0
:101840000CF00CF0004C40EB0C0070474FEACC70F1
:101850007047490011F5001F04D84FEACC10FF3043
:10186000C0057047C817704790EA010F44BF81F068
:101870000041FFF713BE00BF431A4FF000423EBFC6
:101880005340C01AC91800BFD3095FEAD05C13EBFC
:10189000400F34BFB3EB410F40E07CEBD1530CD38E
:1018A00042EA012122D8D1EB402009D3400A28BFC7
:1018B0005FEA500140EBCC507047401A15D040020F
:1018C000B0FA80F2521C9040400A4FEA3C23B3EB3E
:1018D000026384BF00EB730007E040F400001A16B7
:1018E000DB07C2F10102D04018437047182BFCDC23
:1018F00031FA03F202FA03F3591A38BF42F0010237
:10190000D2EB40203CBF4000ACF1010C5FEACC5C64
:10191000C20572F100414CEB5020704713EB400FB1
:101920000FD24B0009D0ACEBD153022B03DB4902A1
:10193000172BDDDD70479143401A4300D5D10020BD
:10194000704713EB410FD0D36FF0000070470000D9
:10195000B0B581EA030C0CF0004C40F2FF7515EABB
:1019600011541DBF15EA1357AC42AF4239E0E419D8
:1019700023EA455343F48013C90241F0004141EA90
:10198000505EC7021100A7FB020200284FF00000C2
:10199000EEFB01204FF00001E3FB072118BF42F0EE
:1019A0000102401800214941E3FB0E01A4F58064C7
:1019B0000F0302D252004041494154F101046CDD51
:1019C000470872F1004250F1000051EB0451A1F5BB
:1019D00080115CBF41EA0C01B0BD4CEA055100200A
:1019E000B0BD05EA1357AC4214BFAF4241E050EA24
:1019F000410E1CBF52EA430E02E061460020B0BD1A
:101A000024423C441BD15FEA070EF6D0090302BF13
:101A100001460020AEF1140EB1FA81F7AEEB0704D7
:101A200001FA07FE0C37C7F1200100FA07F7C8409A
:101A30004EEA000E23EA455343F48013A2E733F045
:101A40000043B3FA83F704BFB2FA82FE77440B3F38
:101A5000E41BB7F1200E2FBF02FA0EF3BB40C7F113
:101A6000200E22FA0EFE38BF43EA0E03BA40641C71
:101A700082E750EA410E14BF52EA430E6FF00001B4
:101A80004FF4001717EB430F8ABF194617EB410FAE
:101A9000B5E74CEA05510020B0BDD4F10104B4F122
:101AA00020070FDAC4F12007520828BF42F00102D4
:101AB00010FA07F501FA07F7E1BF2A43E04038437F
:101AC000E1400FE0352C98DCC7F1200452EA4002D7
:101AD00020FA07F218BF42F0010231FA07F0A140E4
:101AE0000A43002172F1004250F1000051EB0C0159
:101AF000B0BD00004FF4001C1CEB410F94BF1CEB69
:101B0000430F09E041EA030C50EA4C0C52EA0C0C7A
:101B100003D2994208BF9042704714BF8B42824261
:101B2000704700004FF0807C1CEB400F94BF1CEB13
:101B3000410F05E040EA010C5FEA4C0C01D2814202
:101B4000704718BF8842704770B44FF0004591EA63
:101B5000030C44BF6B4000F075B800BF841A71EBF2
:101B6000030603D2001BB141121973414FF4001C4C
:101B70001CEB410F34BF7CEB430443E00C0DA4EBA2
:101B80001356352E50DC45EAC323DB0A45EAC12152
:101B9000C912B6F120050DDD63FA05F6EB4086EAC1
:101BA0000305124218BF45F00105C01851F10001AC
:101BB0000CD213E062FA06F5F2405540F3415A4068
:101BC000B340F3405A408018594107D349085FEAAF
:101BD00030005FEA350528BF45F0010501F58011A9
:101BE000420875F1004250F1000041EB045170BC15
:101BF0004FF4001C1CEB410F38BF70470020090D4B
:101C0000090570471CEB410F10D252EA43060BD076
:101C1000BCEB410F05D80C0DAB43661E342EB5DD71
:101C200002E0AB438018594170BC704770BC7047EC
:101C300070B44FF0004591EA030F44BF6B40FFF7CB
:101C40008DBF00BF841A71EB030604D26E40001BE7
:101C5000B141121973414FF4001C1CEB410F34BF0A
:101C60007CEB430684E00C0DA4EB1356362E7DDC92
:101C7000012E43DC45EAC32343EA525312BFD2028A
:101C800092025B08240545EAC12141EA5051D2EB9A
:101C9000C020994125D407D1B0FA80F610FA06F198
:101CA00064D00020203608E0B1FA81F6B140C6F1D8
:101CB000200220FA02F21143B0404FEAF474B4EB70
:101CC000465434F001064FEA74040AD8D6F50016DB
:101CD000760D04F00044F04061FA06F25040F14005
:101CE0004840C00A40EA415021F0004128BF5FEA65
:101CF000500550F1000044EBD12137E045EAC32301
:101D0000DB0A45EAC121C90AB6F120050EDD42EA27
:101D10000242120CC5F1200603FA06F6EB4042EA35
:101D200006056D42984161F100010DE062FA06F589
:101D3000F240554063FA06FC82EA0C02F3405A4036
:101D40006D42904161EB030111F4801F05D1641EC7
:101D5000620502D06D004041494121F480114308E1
:101D600075F1004350F1000041EB045170BC704725
:101D70001CEB410F15D223F0004352EA43060BD06F
:101D80004FEA4C0CBCEB410F04D80C0D661E342EF0
:101D9000B7DDEBE7801A994150EA410608BF002100
:101DA000E4E708BF1CEB430F28BF6FF00001DDE73D
:101DB0004FF0807C1CEB400F94BF1CEB410F05E003
:101DC00040EA010C5FEA4C0C01D28842704718BF10
:101DD000814270472DE9F84F002500240026002796
:101DE0005FF000084FF0FF0940F2FF308146BC4829
:101DF0000068FFF72BFBBB49FFF7A8FA824648466D
:101E0000FFF724FB0100504600F098F90500B648A2
:101E10000068FFF71BFBB349FFF798FA8246484674
:101E2000FFF714FB0100504600F088F90400AF48AA
:101E30000068FFF70BFBAB49FFF788FA824648467C
:101E4000FFF704FB0100504600F078F90600A848AF
:101E50000068FFF7FBFAA349FFF778FA8246484685
:101E6000FFF7F4FA0100504600F068F90700A148B6
:101E70000068FFF7EBFA9B49FFF768FA824648468D
:101E8000FFF7E4FA0100504600F058F980462800B8
:101E90003100FFF7E9FC934900F050F905003800E4
:101EA0004146FFF7E1FC8F4900F048F92900FFF7B0
:101EB000EDFA5FF0804100F041F90500894821000A
:101EC000FFF7D2FC874900F039F98146002600224D
:101ED000002300208DF8000000244FF0FF0A4FF08F
:101EE000FF0B06208DF800000720040028000021C9
:101EF000FFF718FE01D2012606E028000021FFF7B7
:101F000057FF01D25FF0FF3628000021FFF750FF96
:101F100001D295F000452800002100F001F904D11C
:101F20007548764909680160BDE0002200E0521C56
:101F30009DF80000D2B2824211D24846D2B2704916
:101F400051F82210FFF7EEFDF1D84846D2B26C49A5
:101F500011EB82014968FFF72BFFE8D2924600237C
:101F600000E05B1CDBB2E4B2A34211D22800DBB27A
:101F7000644951F82310FFF7D5FDF2D82800DBB2F1
:101F8000604911EB83014968FFF712FFE9D29B46D4
:101F90005FFA8BFB5FFA8AFA38205B4900FB0A1074
:101FA00010EBCB0040685FFA8BFB5FFA8AFA3821AE
:101FB000554A01FB0A2151F83B10FFF755FC04007C
:101FC00028005FFA8BFB4F4951F82B10FFF74CFCB0
:101FD00005005FFA8BFB4B4810EB8B0040685FFA03
:101FE0008BFB484951F82B10FFF73EFC01002800FD
:101FF00000F0A4F8050048465FFA8AFA404951F813
:102000002A10FFF731FC81465FFA8AFA3C4810EB50
:102010008A0040685FFA8AFA394951F82A10FFF7B6
:1020200023FC0100484600F089F82900FFF78EF9EB
:102030002100FFF78BF95FFA8BFB5FFA8AFA3821F0
:10204000314A01FB0A2151F83B10FFF71FFA2A49D8
:10205000086038004146FFF719FAFFF759FA0022E5
:102060005FF08043FFF794FA0022284BFFF790FAC5
:10207000274A284B00F086FB0AD81F4800685FF00B
:102080008241FFF795FE03D21B485FF08241016059
:102090005FF0FF3036B2864205D11748164909680D
:1020A00091F000410160144804681B48016812481F
:1020B0000068FFF74BF905000F4800680F490968F1
:1020C000FFF7D2FB15490968FFF740F92900FFF730
:1020D000DDF90949086009480460BDE8F18F00BFD7
:1020E000A40E001400C07F44A80E0014AC0E00140F
:1020F000B00E0014B40E0014680B00146C0B001426
:10210000EC070014D00700140408001400F88F40F6
:10211000115839B4C876EA3FC4070014C807001440
:1021200040EA010C5FEA4C0C07D0884205D14FEA27
:10213000400C1CF1807F98BF8042704710B5FF2390
:1021400013EAD0541DBF13EAD1529C429A4239E09F
:10215000A41ADA0780EA0103134042EA012142EAA5
:102160000020421A3CBF641E01EB4202090AB2FB86
:10217000F1FE01FB1E221202B2FBF1F001FB102264
:102180006EF30F201202B2FBF1FE4EEA00207F3404
:1021900006DDFE2C24DA53EA500050EBC45010BD8B
:1021A000D4F1020401FB1E2240F08071192C1DDCC9
:1021B00021FA04F0C4F12004A140114371F100425E
:1021C000584110BD9C421ABF03EAD1529A420FE017
:1021D00080EA010E0EF00043400004D0490016D101
:1021E00043F0FF4010BD490008BFD343180010BDA5
:1021F0009C4205D1D21AF7D001F00041484010BDF1
:102200004A0212BF0846484000F0004010BD4AB9DB
:102210000902B1FA81F2914044B1A418C00140F022
:1022200000409EE7C90141F0004152420002B0FA6D
:1022300080F4A040141B94E7002848BF4042704738
:10224000F446400D40EAC120490006D200F014F8DF
:10225000004248BF6FF00040604700F00DF84FF0BB
:10226000004188428CBF084640426047400D40EA2A
:10227000C120490080F00D8040F00040490DA1F5DB
:102280008061491C05D4D1F11F0154BFC840C0175B
:1022900070474FF00000704780B5C0B2002803D0EF
:1022A000022864D048D37DE0DFF88004006850F055
:1022B0008070DFF878241060C9B200290BD00229A1
:1022C00015D00ED304291ED017D3062927D020D32A
:1022D00007292AD02FE04FF48061412000F06AFAEC
:1022E00060E04FF48061422000F064FAF8E74FF4B8
:1022F0008061432000F05EFAF2E74FF480614420F1
:1023000000F058FAECE74FF48061642000F052FAD4
:10231000E6E74FF48061652000F04CFAE0E74FF407
:102320008061662000F046FADAE74FF480616720AA
:1023300000F040FAD4E735E0DFF8F003006850F031
:102340000070DFF8E8231060C9B2002902D001292B
:1023500006D00BE04FF440710C2000F02BFA21E086
:102360004FF440710D2000F025FAF8E71AE0DFF88D
:10237000C003006850F08070DFF8B4231060C9B269
:10238000002902D0012906D00BE04FF440710A2049
:1023900000F010FA06E04FF440710B2000F00AFA4A
:1023A000F8E7FFE701BD2DE9F04704000D00160036
:1023B0001F00E4B2002C0DD0E4B2012C02D0E4B234
:1023C000022C02D1EDB2022D04D3FC21DFF864030C
:1023D00000F05DFA2900C9B22000C0B2FFF75CFF2F
:1023E000DFF8540300684FF47A7101FB00F95FEAEB
:1023F0001940B0FBF6F05FF0000A01E01AF1010AA3
:1024000080B250FA0AF10129F8DA5FFA8AFABAF1D1
:10241000080F05D340F21711DFF8180300F037FA60
:1024200039FA0AF0B0FBF6F0E4B2002C03D0022C2B
:1024300012D009D318E080B2411C01FB07F14FF420
:102440007A72B1FBF2F80FE080B2411C01FB07F198
:102450006422B1FBF2F807E080B2411C01FB07F1F6
:102460006422B1FBF2F8FFE7EDB2E4B2DFF8CC1280
:1024700051F8241011EBC501EDB2E4B2DFF8BC2233
:1024800052F8242012EBC502D26832F00402CA606E
:10249000EDB2E4B2DFF8A41251F8241011EBC5013B
:1024A0002822CA60E4B2DFF8941251F824105FFACF
:1024B0008AFA1AF0070252F008020A60E4B2DFF862
:1024C0007C1251F8241080B28860E4B2DFF86C020C
:1024D00050F824000021C164EDB2E4B2DFF85C02E0
:1024E00050F8240010EBC5001FFA88F8C0F81080DF
:1024F000E4B2DFF8480250F8240000214160BDE852
:10250000F087F8B504000D0016000020E4B2002C9E
:102510000ED0E4B2012C02D0E4B2022C02D1EDB212
:10252000022D05D34FF4A971DFF8080200F0AFF9CE
:10253000E4B2002C03D0022C14D00AD31BE0B6F571
:102540007A7F05D940F25711DFF8E80100F09FF9D2
:1025500011E0652E05D340F25B11DFF8D80100F0E1
:1025600096F908E0652E05D340F25F11DFF8C4014B
:1025700000F08DF9FFE7E4B2DFF8C00150F8240065
:1025800080680028F7D0E4B2002C03D0022C10D0D1
:1025900008D315E0401C00FB06F04FF47A71B0FB45
:1025A000F1F70DE0401C00FB06F06421B0FBF1F7F1
:1025B00006E0401C00FB06F06421B0FBF1F7FFE7EA
:1025C000EDB2E4B2DFF8740150F8240010EBC5005E
:1025D0000761F1BD10B50400E4B2012C07D0E4B2EC
:1025E000022C04D040F21D21524800F050F9E4B210
:1025F0002000012802D0022811D021E04B480068B9
:1026000050F00070494908604FF4C061082000F0A4
:10261000D1F84FF4C061092000F0CCF815E044482F
:10262000006850F08070424908604FF4C0610A2091
:1026300000F0C0F84FF4C0610B2000F0BBF804E0DC
:1026400040F265213B4800F022F9E4B23B4850F8E3
:102650002400406D50F00400E4B2384951F82410D1
:102660004865E4B2354850F82400D0F8800050F0B6
:102670000800E4B2314951F82410C1F88000E4B2F6
:102680002E4850F824000021C164E4B22B4850F8D1
:1026900024004FF6FF718160E4B2284850F824000E
:1026A000D0F8800050F00100E4B2244951F8241021
:1026B000C1F88000E4B2214850F82400406D50F089
:1026C0000100E4B21D4951F824104865E4B21B48EA
:1026D00050F824000021416010BD10B50400E4B2A0
:1026E000012C07D0E4B2022C04D040F28221114820
:1026F00000F0CDF8E4B2114850F82400406800B270
:1027000010BD10B50400E4B2012C07D0E4B2022CD5
:1027100004D04FF42471074800F0B9F8E4B2074838
:1027200050F824000021416010BD00003C800440AE
:1027300030800440F47A0000C40E0014280700140E
:102740004100090E7F3915D4D1F11F0114D4400086
:1027500007D2C00140F00040C84048BF6FF00040C1
:102760007047C00140F00040C8404CBF4FF00040EF
:10277000404270470020704700424FF0004058BF71
:10278000C04370474FF4001C1CEB410F94BF1CEB7F
:10279000430F09E041EA030C50EA4C0C52EA0C0CDE
:1027A00003D28B4208BF8242704714BF99429042C5
:1027B0007047000010B4294A12684FF40073C0B289
:1027C0004409A3401A43254B1A60C0B24211244B5E
:1027D00053F82220012310F01F04A340C2F8A030B8
:1027E000C0B210F01F02C0B240111D4B53F82000C0
:1027F00040F8221010BC704710B4184A12684FF409
:102800000073C0B24409A3401A43144B1A60C0B20B
:102810004211134B53F82220012310F01F04A34050
:10282000C2F8A03031F4E061C0B210F01F02C0B2B3
:1028300043110B4C54F8233053F8222012F4E06279
:102840001143C0B210F01F02C0B24011044B53F844
:10285000200040F8221010BC70470000388004406F
:1028600098070014DFF800F0CD090014DFF800F03D
:10287000F5090014BFF34F8F5448006810F4E0606E
:102880005349084351490860BFF34F8FFEE738B5FD
:1028900004000D00002000F0ABF82A0021004D4894
:1028A00000F0CCF8002000F0BFF84B4800684FF46F
:1028B0007A7101FB00F1032000F008F9EDE710B593
:1028C00004002100C9B2042000F05CFA200010BD11
:1028D00010B50024052000F06FFA052000F0A0FAE2
:1028E000002854D1002000F083F811E03B4800F0AC
:1028F000A5F8FFF7B7FF38480068642101FB00F135
:10290000032000F0E3F80020FFF7B0FFFFF7B2FF6D
:10291000052000F085FA012800D10124002000F0F4
:1029200083F82F4800F08AF82B4800684FF4FA71BA
:1029300001FB00F1032000F0C9F8E4B2012CE7D15B
:10294000052000F06DFA0028E2D10AE0002000F036
:102950006BF821480068642101FB00F1032000F0BE
:10296000B5F8052000F05CFA0028EFD0052000F053
:1029700057FA0128BAD1002000F056F8164800682E
:10298000322101FB00F1032000F0A0F8EEE710BDBA
:1029900010B514480468012000F02AF8012000F066
:1029A00043F8E4B20F20104900FB0412E4B2210006
:1029B0000E4800F043F8084800684FF47A7101FBB4
:1029C00000F1032000F082F8E8E700000CED00E0E1
:1029D0000400FA05987C0000C40E0014CC7C0000B2
:1029E000807D000004ED00E020000014F47B000076
:1029F00010B50400E4B2042C07D201220121E4B294
:102A00000D48205C00F0F0FA0DE0042406E00122FD
:102A10000121E4B20848205C00F0E6FA2000441EE0
:102A2000C0B20028F3D110BD80B5C0B20249405CED
:102A300000F031FB01BD0000200900140EB400B508
:102A400082B003A9009100AB0246012103487844FB
:102A50000A3000F05FFB06BC5DF810FB015300007C
:102A600038B504000D00002D03D124214348FFF7A1
:102A70000EFF4348006850F4000041490860414897
:102A800000210160E4B220013F496A1E4250E4B2D5
:102A90003D4810EB0410C06850F00100E4B23A4920
:102AA00011EB0411C860E4B2374810EB04108068E1
:102AB00040084000E4B2344911EB04118860E4B2EC
:102AC000314810EB04100321816031BD38B504009A
:102AD0000D00002D03D147212848FFF7D8FE2848D4
:102AE000006850F400002649086026480068800805
:102AF000800024490860E4B2234810EB0410806889
:102B000040084000E4B2204911EB04118860E4B2AF
:102B100020011D496A1E4250E4B21B4810EB04100C
:102B2000C06850F00100E4B2174911EB0411C8600D
:102B3000E4B2154810EB0410806840084000E4B28D
:102B4000114911EB04118860E4B20F4810EB041036
:102B500001218160E4B20C4810EB0410C068C0078A
:102B6000F8D5E4B2084810EB0410C06850F001003A
:102B7000E4B2054911EB0411C86031BD747A00005C
:102B80003C800440007003400071034070B50400B5
:102B90000D00E4B2002C08D0022C2CD018D3042C49
:102BA0004FD03BD3052C5FD071E0DFF8F401006813
:102BB00050F48060DFF8E81108604FF4407166203F
:102BC000FFF7F8FD4FF440716720FFF7F3FD5EE07B
:102BD000DFF8CC01006850F40060DFF8C411086031
:102BE0004FF440714320FFF7E5FD4FF4407144205E
:102BF000FFF7E0FD4BE0DFF8A801006850F48050DB
:102C0000DFF89C1108604FF440716320FFF7D2FD9C
:102C10004FF440716220FFF7CDFD38E0DFF880010E
:102C2000006850F40050DFF8781108604FF44071EC
:102C30005020FFF7BFFD4FF440715120FFF7BAFD60
:102C400025E0DFF86001006850F48060DFF854117F
:102C500008604FF440719920FFF7ACFD4FF44071CC
:102C60009820FFF7A7FD12E0DFF83801006850F464
:102C70000060DFF8301108604FF440718920FFF7E1
:102C800099FD4FF440718820FFF794FDFFE7E4B20F
:102C9000454850F82400C07810F0F300E4B24249EF
:102CA00051F82410C870E4B23F4850F82400E4B250
:102CB0003D4951F8241089788170E4B2002C02D08B
:102CC000E4B2012C05D1394800684FF47A714843C9
:102CD00004E0374800684FF47A7148432901B0FB9B
:102CE000F1F6B6B2B6F5005F01D341F6FF76B0FB60
:102CF000F5F0B6B2B0EB0615ADB2202D04D340F21C
:102D000003112C48FFF7C3FDE4B2274850F8240014
:102D1000007810F0E000B6B2310A11F01F0108434C
:102D2000E4B2214951F824100870E4B21E4850F86A
:102D300024004670E4B21C4850F82400807A10F059
:102D4000E000E4B2184951F8241015F01F021043B6
:102D50008872E4B2144850F82400007C50F08800D7
:102D6000E4B2114951F824100874E4B20E4850F846
:102D70002400C07850F00C00E4B20B4951F8241044
:102D8000C87070BDC0B2084A52F8202012791206ED
:102D9000F8D5C0B2044A52F82000C1717047000053
:102DA0003480044028800440AC070014BC0E00149A
:102DB000C40E0014B47B000010B50400E4B2062C6D
:102DC0000DD200220021E4B28048205C00F00CF912
:102DD0000321E4B27D48205CFFF70EFD13E00624DA
:102DE0000CE000220021E4B27848205C00F0FCF8FE
:102DF0000321E4B27548205CFFF7FEFC2000441E6E
:102E0000C0B20028EDD110BD80B5C0B26F49405CA2
:102E100000F05DF9002801D1002000E0012002BD92
:102E200010B504002000C0B2FFF7EEFF00280FD15C
:102E3000674800680A2101FB00F10320FFF746FE06
:102E40002000C0B2FFF7E0FF002801D1002000E021
:102E5000012010BD01B45F480078022828D05E48E8
:102E600000785E499DF8002001F810205A4800784B
:102E70005A4911EB40009DF8011041705648007806
:102E8000401C5549087054480078142802D3524811
:102E9000002101705048007851490978C0B2884239
:102EA00003D14C480221017002E04A48012101701F
:102EB00001B0704781B04A480078484911F81000C5
:102EC0008DF8000046480078444911EB40004078F6
:102ED0008DF8010042480078401C41490870404884
:102EE0000078142802D33E48002101703A48007847
:102EF0003B490978C0B2814203D1364800210170B4
:102F000002E0344801210170009801B07047314857
:102F10000078002801D1002000E00120704710B5A2
:102F200082B0002411E0E4B22E48205C022807D3CE
:102F30008DF8004001208DF801000098FFF78AFF0E
:102F4000E4B2284800212154641CE4B2062C3BD290
:102F50002000C0B2FFF758FF0028E4D1E4B22148B6
:102F6000205C401CE4B21F496054E4B21D48205C60
:102F70000228E9D3E4B21B48205C022808D18DF86E
:102F8000004000208DF801000098FFF763FFDBE7A9
:102F9000E4B21448205C3328D6D3E4B21148205C54
:102FA00033280CD18DF8004002208DF801000098E4
:102FB000FFF750FFE4B20B4802212154C4E7E4B20A
:102FC000084802212154BFE713BD00002409001462
:102FD000C40E0014290F0014280F0014500D001403
:102FE000270F0014780D001470B504000E001500B2
:102FF0004FF480712000C0B2FFF7DCFBF6B2002E68
:1030000011D1E4B26011414951F82000E4B26111DC
:103010003E4A52F821104969012214F01F039A40D8
:103020009143416136E0E4B26011384951F8200023
:10303000E4B26111354A52F821104969012214F0B5
:103040001F039A4011434161EDB2002D11D1E4B24A
:1030500060112E4951F820000068012114F01F0270
:1030600091408843E4B26111284A52F82110086067
:1030700010E0E4B26011254951F8200000680121F8
:1030800014F01F0291400843E4B261111F4A52F844
:103090002110086070BD10B50400E4B260111B4936
:1030A00051F82000406914F01F01C840C00703D444
:1030B0007B211748FFF7EBFBE4B26011134951F88D
:1030C0002000012114F01F029140C16010BD10B515
:1030D0000400E4B260110D4951F82000406914F079
:1030E0001F01C840C00703D58C210948FFF7CFFB5B
:1030F000E4B26011054951F82000006914F01F0185
:10310000C84010F0010010BD00000000340700149A
:10311000347B00002DE9F04FA1B0804617461D46D4
:10312000029102AE0020706211AC6FF000490AE01B
:1031300017F8011B0298C0470290002800F07C821B
:10314000706A401C7062387808B9706A76E2252887
:10315000EED10020F06030617061B061F0613062EA
:1031600001E040F0010017F8011F2029F9D02329C0
:103170000ED02B2904D02D2906D030290CD00FE0F9
:1031800040F0020080B2EEE740F0040080B2EAE7CF
:1031900040F0080080B2E6E740F0100080B2E2E7BD
:1031A0002A290DD129680A1D2A600968F1620029BF
:1031B00004D54942F16240F0040080B27F1C11E066
:1031C0000021F16209E0F16A494505D001EB810374
:1031D00002EB43013039F1627F1C3A78A2F13001F1
:1031E0000A29F0D339782E291CBF4FF0FF31B16284
:1031F0001CD117F8011F2A2906D129680A1D2A6047
:103200000968B1627F1C11E00021B16209E0B16A76
:10321000494505D001EB810302EB43013039B1622E
:103220007F1C3A78A2F130010A29F0D33086397830
:103230000FF6CC3000F0F2FD08B117F8010B8DF855
:103240003A009DF83A00682804D1387868280AD1F5
:10325000622005E06C2804BF38786C2803D1712007
:103260008DF83A007F1C11A8B0603A7810462538D6
:1032700025D01C3875D0001F022872D9133800F0F1
:103280009C8009386DD0801E00F03781401E00F010
:10329000DD80401E022864D9001F00F0D780401F47
:1032A00034D0401E00F08980401E24D0C01E0CD0B7
:1032B000801E00F08280C01E00F07F8026E1F06852
:1032C000411CF160252101552AE12868011D296072
:1032D00000687060B26A002A03D500F0ABFD30616F
:1032E0001EE1002100F0C2FD00281ABF7168401ADB
:1032F000B06A306114E12868011D2960006800216E
:10330000CDE9000111A870607821F2E09DF83A0043
:10331000622818D0682806D06A280BD06C2819D0EB
:10332000712807D016E02868011D2960716A0068BD
:103330000180F5E02A68101D2860706AC1171268C4
:10334000C2E90001ECE02868011D2960716A00688B
:103350000170E5E02868011D2960716A006801605C
:10336000DEE02868C01D20F007002860034603F156
:1033700008002860D3E90001CDE90001002904D547
:10338000F068411CF1602D210DE0308E810704D5DD
:10339000F068411CF1602B2105E0C00704D5F068FE
:1033A000411CF16020210155F06811A9401870609E
:1033B000114600A800F0D8F9B2E09DF83A306C2B25
:1033C00008BF286811D0712B08BF286802D06A2B6B
:1033D00028680AD1C01D20F00700286084460CF13F
:1033E00008002860DCE9000103E0011D2960006895
:1033F0000021CDE90001682B04BFDDE9000180B2A6
:103400000BD0622B04BFDDE90001C0B205D0742BE4
:1034100018BF7A2B04D1DDE900010021CDE90001BC
:1034200096F8300000075FD5DDE90001002908BFEC
:10343000002859D042F02000782855D1F06830217A
:103440000155401C411CF16002554DE09DF83A00C9
:1034500062280CD0682810D06A281AD06C2824D092
:10346000712816D0742820D07A280CD01DE0286846
:10347000011D296090F900001BE02868011D2960EA
:10348000B0F9000015E02868011D296000680021DE
:1034900010E02868C01D20F007002860034603F1F3
:1034A00008002860D3E9000104E02868011D2960B4
:1034B0000068C117CDE90001DDE90001002904DA47
:1034C000F068411CF1602D210DE0308E810704D59C
:1034D000F068411CF1602B2105E0C00704D5F068BD
:1034E000411CF16020210155F06811A9401870605D
:1034F000114600A800F0A5F812E0F068411CF16048
:1035000029680A1D2A600968015509E0F068411C14
:10351000F160252101551AB1F068411CF160025596
:103520007F1CF06AF168401AB169401A3169401A8B
:10353000F169401A7169401A316AA0EB010A96F8E4
:103540003000400711D420208DF84000BAF1010F5F
:103550000BDBD346012310AA00A9404600F038FC3B
:10356000002869D1BBF1010BF4D1F36811AA00A9BD
:10357000404600F02DFC00285ED130208DF8400040
:10358000D6F818B0BBF1010F0ADB012310AA00A97D
:10359000404600F01DFC00284ED1BBF1010BF4D1D8
:1035A0003369726800A9404600F012FC002843D13C
:1035B00030208DF84000D6F81CB0BBF1010F09DBBC
:1035C000012310AA00A9404600F002FCA0BBBBF1F9
:1035D000010BF5D1736930697168421800A9404642
:1035E00000F0F6FB40BB30208DF84000D6F820B04C
:1035F000BBF1010F09DB012310AA00A9404600F02E
:10360000E7FBC8B9BBF1010BF5D196F830004007D4
:103610007FF599AD20208DF84000BAF1010FFFF63B
:1036200092AD012310AA00A9404600F0D1FB18B9C1
:10363000BAF1010AF5D186E54FF0FF3021B0BDE8BF
:10364000F08F2DE9FA4B86B005462F696F2908BF28
:10365000082605D041F02000782814BF0A2610263D
:103660003C24D5E9000181468B469DF81820642A48
:1036700018BF692A05D1002903DAD9F100096BEBDB
:103680004B0BBBF1000F08BFB9F1000F0CD1286B39
:1036900050B9082E44D195F83800000740D53B2496
:1036A000302087F83B003BE0A4F101084446F017C6
:1036B000CDE9046048465946DDE9042300F002FCE8
:1036C000CDE90201CDE9009BDDE90223DDE904013A
:1036D000A0FB029BDDE90001A0EB09003030C0B285
:1036E0003A2803D39DF818105139081808F8070034
:1036F000DDE9029BBBF1000F08BFB9F1000F03D059
:10370000E868E1198842CFD3082E09D195F838002E
:10371000000705D5E05D302802D0641E3020E0555A
:10372000C4F13C00A861E119E960296B884207DA1D
:10373000081A2862288F4FF6EF710840288710E09A
:1037400000290ED595F8381001F01401102908D180
:10375000696B6A69891A2A6A891A0C1A012CA8BF2E
:103760002C6208B0BDE8F08B2DE9F24F8EB0054613
:1037700004AFD5E90001CDE902019DF8380040F021
:1037800020008DF8000061280BD0286B002848BF6E
:10379000062005D404BF9DF80000672801D1012050
:1037A00028636968C1F30A5040F2FF7398421CD144
:1037B000080304BF2868002809D10320A8619DF8E8
:1037C000380061381A2837D30FF2486108E0032027
:1037D000A8619DF8380061381A282AD30FF22C61AD
:1037E0000322E86800F0E6FBBBE1010017D12846A0
:1037F00000F01BFC012812DB002400209DF80010C3
:10380000612920D1E968302201F8012B4A1CEA60C5
:103810009DF83820612A0CBF782258220FE040F230
:10382000FE316A6861F31E526A60441A4FF0FF303D
:10383000E4E70FF2D451D3E70FF2D451D0E70A7086
:103840006969891C696110B90026B0467FE19DF85D
:103850000000612840F09780286B00284CBF21268B
:10386000461C36B2771CD5E900ABDDE90201002227
:103870000023FEF73FF93ABF8BF00040CDE902A0EC
:10388000CDE902ABA4F104088DF810200DF1110967
:10389000012F33DBDDE9020100220023FEF772FF76
:1038A0002CD21C2102A800F0E3FBDDE90201FEF7A7
:1038B000C7FC0446FF1F012F09DBFDF751FE02463E
:1038C0000B46DDE90201FEF7B3F9CDE9020109F289
:1038D0000700072104E004F00F0200F8012D241175
:1038E000012C01DB491EF6D5491E5CBF002200F801
:1038F000012DF9D500F20709012FCBDA0DF11100E6
:10390000A9EB00010DF11107B142B8BF0E4636B266
:10391000002E31D43046884206DA04A9411849788D
:10392000082928BF0F2100D2002104AA821800E034
:10393000761E401E12F801398B42F9D00F2904D1AE
:1039400004A941184A78521C4A70002803D504AFD4
:10395000761C08F1040836B2701E0DD4C1190A781D
:103960003032D2B23A2A03D39DF838303A3B9A1813
:1039700001F80129401EF2D5286B002840F1E780AC
:10398000701E2863E3E0DDE9020100220023FEF758
:10399000B1F805D2DDE9020181F00041CDE9020173
:1039A00024B247F2975060436F4990FBF1F80FFA49
:1039B00088F8C8F107040027DFF8B091012C19DB63
:1039C000DDE902ABE00707D5504659463A464B467B
:1039D000FDF7BEFF82468B466410384649463A469C
:1039E0004B46FDF7B5FF07468946002CEAD1CDE9E5
:1039F00002AB21E064429246DFF874B114D0E007D4
:103A000007D5504659463A464B46FDF7A1FF824638
:103A10008B466410384649463A464B46FDF798FFB8
:103A200007468946002CEAD1DDE9020152465B4691
:103A3000FDF7AEFDCDE902019DF8000066280CBF40
:103A400008F10A000620296B4618142EA8BF132679
:103A500030208DF810000DF11104464F012E33DB9C
:103A6000DDE90201FEF702FC04F1080104220A2448
:103A7000B0FBF4F303EB830EA0EB4E00303001F803
:103A8000010DB3FBF4F000EB8004A3EB44033033EF
:103A900001F8013D521EEAD101F10804083E012E51
:103AA000DCDBDDE90201FEF7E1FBFDF763FD024629
:103AB0000B46DDE90201FEF7BBF800223B46FDF7AD
:103AC00047FFCDE90201CBE70DF11100201A0DF1FE
:103AD00011079DF81110302906D1401EA8F10108E8
:103AE00017F8011F3029F8D09DF80010662904BF8F
:103AF0000FFA88F808F1010103D065290CBF0121F4
:103B000000212A6B8E1836B2B042B8BF064636B2D4
:103B1000002E1CD43146814204DAC85D352828BF06
:103B2000392000D23020CA19521E00E0761E491EEC
:103B300012F801398342F9D0392802D1C85D401CFE
:103B4000C855002903D57F1E761C08F101080FFA1D
:103B500088F0009033B23A469DF83810284600F0BD
:103B60000BF80FB0BDE8F08FA086010000002440E4
:103B70000000F03F84D797412DE9F04786B0064614
:103B80008A4690461C46BDF9385000F01CFB406A3E
:103B900090F80090376B012C02DA01240FF278289C
:103BA0004AF02000662807D067287AD16FF0030119
:103BB0008D427CDBBD427ADA6D1C66280AD096F80D
:103BC0003800000702D4BC42B8BF27462DB27F1B85
:103BD00048BF0027F068B1692DB2012D21DA4A1CD7
:103BE00030230B54012F03DA96F83810090702D559
:103BF00002F80090521CB261EF42B8BF7D422DB274
:103C000069427162EF19A742B8BF3C4624B2F46121
:103C100022464146B369181800F0CCF9381BB0624F
:103C2000BFE00818AC4216DA2246414600F0C2F95D
:103C3000B1696118B161281B7062012F03DA96F82F
:103C40003800000705D5F06801F80090F069401CC5
:103C5000F061B762A5E02A46414600F0ABF9B069D1
:103C60002818B061641B012F03DA96F83810090791
:103C700004D5411CB161F16800F8019024B2A7425B
:103C8000B8BF3C4624B2224605EB0801B069F36890
:103C9000C01800F08FF9B0692018B061381B70624D
:103CA0007FE0BAF1610F14D14FF0700A16E0BC4208
:103CB00004DA96F83810090758BF27467F1E48BF18
:103CC0000027BAF1670F14BF4FF0450A4FF0650A9D
:103CD00004E0BAF1410F08BF4FF0500AB1694A1C25
:103CE000F06818F8013B0B54012F03DA96F83810EE
:103CF000090702D502F80090521CB261012F10DBB7
:103D0000641E24B2A742B8BF3C4624B222464146B4
:103D1000B369181800F04EF9B0692018B061381B6B
:103D20007062B069F16800EB010808F801AB002D82
:103D30005CBF2B2008F8010B03D52D2008F8010BE0
:103D40006D42002402AF2DB2012D0EDB0A2229465E
:103D500000A800F051FA019807F8010B009D641CBF
:103D60002DB2012DF2DA022C06DA4AF02000652885
:103D700004BF302008F8010B1CB9302008F8010BF3
:103D800009E0012C07DB641E02A8205C303008F833
:103D9000010B012CF7DAB069F1684018A8EB0000BC
:103DA000F06196F8380000F0140010280DD1706909
:103DB000B1690818716A0818F1690818B16A081819
:103DC000716B8842BCBF081A306206B0BDE8F0874C
:103DD000F8B504460D4616461F46002077B116F882
:103DE000011BA868A047A86030B1E86A401CE862DF
:103DF00000207F1EF3D1F2BD4FF0FF30F2BD000076
:103E0000686A6C747A4C00006E616E004E414E0020
:103E1000696E6600494E4600300000000278C9B263
:103E20008A421AB11CBF10F8012FF9E718BF002011
:103E30007047000000F10103810704D010F8011B56
:103E400089B18107FAD10268B2F10131914311F0D1
:103E5000803F04BF50F8042FF6E710F8011B11B1A2
:103E600010F8011BFBE7C01A70470000C9B28307B6
:103E700006D0521E22D310F8013B9942F7D11FE021
:103E8000083A13D302F1040241EA012141EA014157
:103E900050F8043B121F21BF4B40A3F1013C2CEA18
:103EA000030C1CF0803FF3D0C9B2001F083210F899
:103EB000013B521E28BF91EA030FF8D818BF01201A
:103EC000401E70471B4213D1094236D12AB18446A5
:103ED000B0FBF2F002FB10C2704700F095B9FCD3C2
:103EE0000022002370470B000200002100207047D1
:103EF000904271EB030CF6D370B5B1FA81F4B3FACA
:103F000083F52C1BA340C4F1200532FA05F6334398
:103F1000A2405FF00046E64002E05B085FEA320242
:103F2000841A71EB030524BF204629467641F4D359
:103F300002000B003000002170BD012ACFD970B5FE
:103F4000140C20D0B1FA81F4B2FA82F5C4F1200445
:103F50006419B4F12006D6D3B2405FF00044F440B7
:103F6000002502E052085FEA3303C61A71EB020E25
:103F700024BF3046714664416D41F3D302000B000B
:103F80002000290070BD0C46B1FBF2F102FB114587
:103F90002D0445EA1045B5FBF2F402FB145580B23E
:103FA00040EA0545B5FBF2F002FB105240EA04403E
:103FB00070BD000062B38B0708D0521E11F8013BA0
:103FC00000F8013B00F024808B07F6D1830740F016
:103FD000208000BF103A07D330B4B1E83810103A4F
:103FE000A0E83810F9D230BC530724BFB1E808105C
:103FF000A0E8081044BF51F8043B40F8043BD20746
:1040000024BF31F8022B20F8022B44BF0B78037039
:104010007047083A07D3B1E80810083A40F8043B63
:1040200040F804CBF7D25307E4E730B4416801F01D
:104030000042012143681B031B0B436004BF03685C
:10404000002B0ED003684468DD0F45EA4404446049
:104050005B000360491EE302F4D543681B031B0B9E
:10406000436043681A434260084630BC7047000012
:1040700070B504460D466068C0F30A5040F2FF7206
:10408000904207D16068000304BF2068002818D060
:10409000022070BD010004D12046FFF7C6FF0128B1
:1040A00067DA012D0FDB40F2FF71091A8D420AD346
:1040B0006068002847BF00202F4900202F49C4E92D
:1040C0000001012070BD4142A942616806DA2C4A14
:1040D0001140401941EA0050606053E001F0004196
:1040E00062681203120B42F480126260401E45198E
:1040F00005F13500352803D361600020206070BDD4
:10410000002215F11F0F05DA203522686068206053
:1041100000206060684213D0521E9241D243C0F129
:10412000200325689D4055EAD2722568C54066681F
:1041300006FA03F32B432360636823FA00F0606000
:10414000606808436060B2F1004F03D80BD120785B
:10415000C00708D52068401C2060206818B9606836
:10416000401C60600EE06068884204BF2068002840
:10417000F8D1002070BD00000000F0FF0000F07FCB
:10418000FFFF0F804FF0FF3070BD000080B5134877
:1041900000F03BF80FF24801016041608160C160AE
:1041A0000161416181610FF23C0242628162C16240
:1041B000016341630FF2300282630FF23402C26383
:1041C0000164416401BD10B5044800F01EF80446C6
:1041D000206808B9FFF7DAFF204610BD2C0F001445
:1041E000000000002E00000066616C736500000096
:1041F000747275650000000091FBF2F303FB12116D
:10420000C0E90031704700007047704780B500F08A
:104210005FFD002000F0D3FD0620FEF7CDFD01BDBF
:1042200010B5DFF80C0A007800F090F8022401E0E5
:10423000FEF775FE2000441EC0B20028F8D1FEF73C
:1042400066FEC0B2012801D100F0DCFA10BD30B426
:10425000DFF8E0291278142A01D100202EE0002294
:104260000CE0D2B2DFF8CC391B780C24DFF8C85947
:1042700004FB0353D2B2145CD454521CD2B2135C6C
:10428000002BEED1D2B2DFF8AC0900780C23DFF8B6
:10429000A84903FB004000231354DFF89809007875
:1042A0000C22DFF8943902FB00308160DFF88409CA
:1042B0000078401CDFF87C190870012030BC704782
:1042C00030B4DFF878291278142A01D100202EE0CA
:1042D00000220CE0D2B2DFF864391B780C24DFF83E
:1042E000605904FB0353D2B2145CD454521CD2B2B2
:1042F000135C002BEED1D2B2DFF8400900780C231A
:10430000DFF83C4903FB004000231354DFF82C097D
:1043100000780C22DFF8283902FB00308160DFF8DA
:104320001C090078401CDFF814190870012030BC0B
:10433000704710B5DFF8F8482478002C04D1DBB2C0
:10434000C9B2C0B200F0E0FD10BD000080B5C0B23F
:10435000002808D0022873D006D3042800F0248255
:10436000C0F040814AE249E20123DFF8DC28002165
:10437000012000F042FD0223DFF8D02801210D20AA
:1043800000F03BFD0123DFF8C8280421142000F0D1
:1043900034FD0123DFF8BC280521142000F02DFD99
:1043A0000123DFF8B4280621142000F026FD0123A4
:1043B00086A20721022000F020FD012384A207210C
:1043C000672000F01AFDDFF894080078C00707D5D1
:1043D0000123DFF88C2804214A2000F00EFD06E0BE
:1043E0000123DFF8802804214A2000F006FDDFF8D1
:1043F0006C080078800707D50123DFF864280521C1
:104400004A2000F0FAFC06E00123DFF858280521D5
:104410004A2000F0F2FCDFF844080078400707D596
:104420000123DFF83C2806214A2000F0E6FC06E0E4
:104430000123DFF8302806214A2000F0DEFCDDE110
:104440000123DFF824280521012000F0D6FC0223F7
:10445000DFF818280621012000F0CFFC0223E8A293
:1044600006215F2000F0C9FCDFF804080078401E38
:1044700000281FD40123DFF8F80700780C21DFF8AB
:10448000B82701FB0020B0F10C020021022000F04F
:10449000B4FC0123DFF8D80700780C21DFF8982757
:1044A00001FB002050F8040C02680021302000F0CD
:1044B0002BFD06E00123DFF8BC270021022000F0DD
:1044C0009CFCDFF8AC070078002824D4DFF8A007B4
:1044D0000078DFF86017097888421CD20223DFF8E1
:1044E000900700780C21DFF8502701FB0022012102
:1044F000022000F082FC0223DFF8740700780C2110
:10450000DFF8342701FB0020806802680121302099
:1045100000F0FAFC03E0DFF8580700210170DFF833
:1045200050070078401CDFF80C17097888421EDA23
:104530000123DFF83C0700780C21DFF8FC2601FBA3
:10454000002010F10C020321022000F056FC012390
:10455000DFF81C0700780C21DFF8DC2601FB0020C7
:10456000406902680321302000F0CEFC06E0012300
:10457000DFF800270321022000F03FFCDFF8F006FF
:104580000078801CDFF8AC160978884222DA012313
:10459000DFF8DC0600780C21DFF89C2601FB002008
:1045A00010F118020421022000F027FC0123DFF89B
:1045B000C00600780C21DFF8802601FB0020006A8D
:1045C00002680421302000F09FFC0AE046756E006E
:1045D000457363000123DFF89C260421022000F0CC
:1045E0000CFC0BE10123DFF880260521012000F0FF
:1045F00004FC0223DFF874260621012000F0FDFBF5
:1046000002237FA206215F2000F0F7FBDFF8680697
:104610000078401E002824D40123DFF85C060078CF
:104620000C21DFF81C2601FB0020B0F10C02002158
:10463000022000F0E2FB01200090DFF83C06007849
:104640000C21DFF8FC2501FB002050F8040C006869
:10465000FCF75EFF02000B000021302000F091FC0F
:1046600006E00123DFF80C260021022000F0C5FB44
:10467000DFF804060078002829D4DFF8FC0500786C
:10468000DFF8B8150978884221D20223DFF8E8055F
:1046900000780C21DFF8A82501FB0022012102206F
:1046A00000F0ABFB02200090DFF8CC0500780C2175
:1046B000DFF88C2501FB002080680068FCF728FFEC
:1046C00002000B000121302000F05BFC03E0DFF86A
:1046D000A80500210170DFF8A0050078401CDFF874
:1046E0005C150978884223DA0123DFF88C0500780D
:1046F0000C21DFF84C2501FB002010F10C020321F6
:10470000022000F07AFB01200090DFF86C050078B1
:104710000C21DFF82C2501FB002040690068FCF724
:10472000F7FE02000B000321302000F02AFC06E017
:104730000123DFF840250321022000F05EFBDFF8B3
:1047400038050078801CDFF8F4140978884223DAF1
:104750000123DFF8240500780C21DFF8E42401FBB5
:10476000002010F118020421022000F046FB012075
:104770000090DFF8040500780C21DFF8C42401FB69
:104780000020006A0068FCF7C3FE02000B00042151
:10479000302000F0F6FB06E00123DFF8D8240421E6
:1047A000022000F02AFB29E00223DFF8D0240021B8
:1047B0000C2000F022FB0223DFF8C42402210C208D
:1047C00000F01BFB0223DFF8BC2404210C2000F0C6
:1047D00014FB0123DFF890240621012000F00DFBDB
:1047E0000123DFF8A4240721012000F006FB0123A8
:1047F000DFF8982407215F2000F0FFFA01BD0000D8
:104800007C2D3E0080B5FEF755FB00909DF8000022
:10481000002853D0022800F09680C0F0F7800428CA
:1048200000F08D8103D3052800F05381B2E19DF89B
:104830000100002803D09DF8010002283DD1DFF8D7
:10484000F0030078002806D002281CD004D30428E6
:1048500033D025D331E030E0DFF800040078C00722
:1048600008D5DFF8F803007810F0FE00DFF8EC134D
:10487000087007E0DFF8E403007850F00100DFF88B
:10488000DC13087019E0DFF8E8030078012806D38C
:10489000DFF8DC030078401EDFF8D41308700CE06A
:1048A000DFF8D4030078012806D3DFF8CC030078C2
:1048B000401EDFF8C4130870FFE76BE19DF80100AC
:1048C000002803D09DF8010002283BD1DFF86003E7
:1048D0000078002806D0022806D004D3042831D05E
:1048E00019D32FE02EE02DE0DFF884030078401C80
:1048F000DFF87C130870DFF878030078DFF83413F2
:104900000978884206D3DFF82C030078401EDFF8D0
:104910006013087016E0DFF860030078401CDFF8D1
:1049200058130870DFF850030078DFF81013097887
:10493000884206D3DFF804030078401EDFF83813FE
:104940000870FFE726E19DF80100002803D09DF8DC
:104950000100022859D1B6480078002806D0022864
:1049600017D004D304284ED02BD34EE04DE0BB48E3
:104970000078800706D5B948007810F0FD00B749E7
:10498000087005E0B548007850F00200B34908709F
:104990003BE0B74800780C21A74A01FB0020806863
:1049A00000689DF80110002901D1401C00E0401D65
:1049B000AF4909780C22A04B02FB013189680860DD
:1049C00023E0AD4800780C219D4A01FB002080685F
:1049D0000068FCF79DFD9DF80120002A04D1AC4A37
:1049E000AC4BFDF7B1F803E00022AB4BFDF7ACF8A0
:1049F000FCF7F2FEA04909780C22914B02FB013131
:104A00008968086001E000F0C6F8C3E09DF8010085
:104A1000002803D09DF80100022859D1844800786D
:104A2000002806D0022817D004D304284ED02BD358
:104A30004EE04DE089480078400706D58748007869
:104A400010F0FB008549087005E08448007850F0BC
:104A50000400824908703BE0854800780C21764AC2
:104A600001FB0020806800689DF80110002901D139
:104A7000401E00E0401F7E4909780C226E4B02FB6D
:104A800001318968086023E07B4800780C216C4A7A
:104A900001FB002080680068FCF73AFD9DF80120CA
:104AA000002A04D17A4A7D4BFDF74EF803E000223C
:104AB0007B4BFDF749F8FCF78FFE6F4909780C2214
:104AC0005F4B02FB01318968086001E000F063F888
:104AD00060E09DF80100002830D15548007800289A
:104AE00006D0022816D00CD3042825D01BD325E0ED
:104AF000002000F064F94E480078401C4C490870D2
:104B00001CE0002000F05BF949480078401C48494F
:104B1000087013E0002000F052F945480078401C6E
:104B2000434908700AE0002000F049F94048007845
:104B3000401C3F49087001E000F02DF82AE09DF884
:104B40000100002826D13A480078012807D3002028
:104B500000F035F936480078401E35490870344871
:104B60000078002816D102234E4A0221052000F0C9
:104B700044F9002005E0491C4FF47A729142FADBB7
:104B8000401C42F21071884201DA6421F4E70020EF
:104B900000F015F901BD10B5254801210170002074
:104BA00000F00DF9002400E00834802C24DA022300
:104BB00024A202212000C0B200F01FF9022321A28A
:104BC00004212000C0B200F018F9002005E0491CC3
:104BD0004FF47A729142FADB401C42F21071884223
:104BE000E2DA382C06DB00214FF496729142F3DAB8
:104BF000491CF9E70021EBE7002000F0E0F8022370
:104C0000294A0221052000F0F8F8002005E0491C9F
:104C10004FF47A729142FADB401C42F210718842E2
:104C200001DA6421F4E7002000F0C9F810BD0000AB
:104C3000260F0014220F0014700B0014230F001411
:104C4000600C00143E000000EC7C0000947D00002D
:104C5000D47D0000E07D0000EC7D00001C09001404
:104C6000307E0000387E0000047D0000407E0000A1
:104C7000240F0014A47D0000250F0014F87D00000F
:104C8000047E0000107E0000487E0000507E000080
:104C90009A9999999999B93F0000E03F9999B9BFBC
:104CA0000000E0BFB47D0000C47D000080B50300BB
:104CB000DBB200223C21012000F039FB01BD80B5B0
:104CC0000300DBB240223C21012000F030FB01BD9B
:104CD00080B50020401C4FF47A71884204DA0A2122
:104CE000491E0129F6DBFBE7AE20FFF7DFFF20209E
:104CF000FFF7DCFF1020FFF7D9FFB020FFF7D6FF4A
:104D0000C820FFF7D3FF0020FFF7D0FF1020FFF7E8
:104D1000CDFF4020FFF7CAFF8120FFF7C7FFFF202C
:104D2000FFF7C4FFA120FFF7C1FFA620FFF7BEFFDA
:104D3000A820FFF7BBFF3F20FFF7B8FFA420FFF735
:104D4000B5FFD320FFF7B2FF0020FFF7AFFFD5205C
:104D5000FFF7ACFFF020FFF7A9FFD920FFF7A6FF70
:104D60002220FFF7A3FFDA20FFF7A0FF1220FFF7B2
:104D70009DFFDB20FFF79AFF2020FFF797FF8D2094
:104D8000FFF794FF1420FFF791FFAF20FFF78EFF8E
:104D900001BD10B50400B1F15000C0B2FFF786FFAD
:104DA000E4B2200950F01000C0B2FFF77FFF14F00A
:104DB0000F0050F00100C0B2FFF778FF10BD70B5D2
:104DC0000400002508E02000C0B2FFF778FF761C41
:104DD000F6B2802EF7D36D1CEDB2082D0CD2B5F1D2
:104DE0005000C0B2FFF762FF0020FFF75FFF102006
:104DF000FFF75CFF0026EBE770BD2DE9F8430400E8
:104E00000D00160000275FF000085FF00009DBB21C
:104E1000012B17D0022B43D074E05FFA88F8FFB261
:104E20000620884900FB071018F80000FFF747FF2D
:104E300018F101085FFA88F8B8F1060FEDD3A41D48
:104E400019F101095FFA89F919F80600002813D051
:104E50005FFA89F919F80600B0F12007E4B27F2C57
:104E600001D300246D1C2900C9B22000C0B2FFF795
:104E700090FF5FF00008DDE744E0FFB2380150FA30
:104E800088F071494018007AFFF719FF18F10108FE
:104E90005FFA88F8B8F1080FEFD3083419F1010967
:104EA0005FFA89F919F8060000282BD05FFA89F912
:104EB00019F80600B0F12007E4B2792C01D30024E0
:104EC0006D1C2900C9B22000C0B2FFF762FF5FF07D
:104ED000000809E0FFB2380150FA88F05A49405CF6
:104EE000FFF7EDFE18F101085FFA88F8B8F1080F36
:104EF000F0D3691CC9B22000C0B2FFF74AFF5FF0CF
:104F00000008C5E7BDE8F183F0B583B000AC4F4DB4
:104F1000C0CDC0C4083D083C00240025002A05D5AA
:104F20002D258DF80050641C524201250A2692FB63
:104F3000F6F706FB1726303600AFE6550A2692FB39
:104F4000F6F2641C012AF1DA00228DF80720641EB3
:104F50000022EDB2012D0BD1012209E000AD555D1B
:104F600000AE00AFE75D975500AEA555521C641E1C
:104F70009442F3DADBB200AAC9B2C0B2FFF73DFF38
:104F8000F7BD2DE9F8430600894614001D00DDF841
:104F9000208020002900FDF753F907004346DBB2CB
:104FA000984620002900FDF74BF902004346494688
:104FB000C9B23000C0B2FFF7A7FF20002900244A81
:104FC000244BFCF797FD01D295F000453800FCF723
:104FD000C7FA02000B0020002900FCF729FE00227E
:104FE0001D4BFCF7B5FCFDF72BF9040000256D1CEB
:104FF0000A2097FBF0F7012FF9DA012C1EDB43465C
:10500000DBB20FA24946C9B25FFA88F808FB05F087
:10501000C00050FA86F0C0B2FFF7EFFE4346DBB2A5
:1050200022004946C9B2681C5FFA88F808FB00F004
:10503000C00050FA86F0C0B2FFF766FFBDE8F1830A
:105040002E00000094740000B86A0000287E000062
:105050008DEDB5A0F7C6B03E000059402DE9F043F4
:10506000A1B004000D00E4B2002C12D1DFF8A803B7
:10507000006850F04000DFF8A013086040F22321E0
:105080006820FDF797FB40F223216920FDF792FB92
:1050900011E0DFF88403006850F08000DFF8781337
:1050A000086040F223214A20FDF784FB40F22321CF
:1050B0004B20FDF77FFB00A8DFF860138022FEF78E
:1050C00089FFD74800684CF25131884201DA002646
:1050D00007E0D3480068D349884201DA012600E09E
:1050E0000226CF4800684FF47A714843F6B2711C2B
:1050F0006943B0FBF1F75FF040084FF6FF7906E037
:1051000080B21FFA89F9484501D2454681465FFAC7
:1051100088F8B8F1000F0ED0B8F10108BFB25FFAFD
:1051200088F800A830F81800381AFDF785F880B222
:105130000028E5D14546E4B2BB4850F8240015F0FC
:105140003F0151EA86114170E4B2B74850F824009B
:1051500080218170B24800684FF47A714843F6B2FA
:10516000711CEDB200AA32F81520514390FBF1F00A
:1051700021B0BDE8F083000081B06420ADF80000EC
:1051800000E000BFBDF80000411EADF8001080B285
:105190000028F6D101B0704700E000BF0100481EB2
:1051A000C9B20029F9D1704770B504000D0016008E
:1051B000280603D5DF219D48FDF769FBE4B29A4834
:1051C00050F82400807850F03000E4B2964951F84D
:1051D000241088700120FFF7DFFFE4B2924850F8F6
:1051E000240069000171E4B28F4850F82400C078AF
:1051F0008007F8D5E4B28C4850F82400C07850F00D
:105200000200E4B2884951F82410C8700120FFF769
:10521000C3FFE4B2844850F824000671E4B2824827
:1052200050F82400C0788007F8D5E4B27E4850F8E2
:105230002400C07850F00200E4B27B4951F82410F9
:10524000C8700120FFF7A8FFE4B2774850F82400A7
:10525000807850F00400E4B2734951F8241088704B
:105260000120FFF799FFE4B26F4850F8240069006D
:1052700051F001010171E4B26B4850F82400C0788C
:105280008007F8D5E4B2684850F82400C07850F0A0
:105290000200E4B2644951F82410C8700120FFF7FD
:1052A0007BFFE4B2604850F82400807810F0EF00F3
:1052B000E4B25D4951F824108870E4B25A4850F8BD
:1052C0002400807850F00800E4B2574951F82410C7
:1052D0008870E4B2544850F824000579E4B252488A
:1052E00050F82400C0788007F8D5E4B24E4850F852
:1052F0002400C07850F00200E4B24B4951F8241069
:10530000C870E4B2484850F82400807810F0CF000C
:10531000E4B2454951F824108870E4B2424850F88C
:1053200024000579FFF728FF2800C0B270BDF8B54A
:1053300004000D0016001F00E4B23B4850F82400A2
:10534000807850F03000E4B2374951F8241088706A
:105350000120FFF721FFE4B2334850F82400690030
:105360000171E4B2304850F82400C0788007F8D5C5
:10537000E4B22D4850F82400C07850F00200E4B2A6
:10538000294951F82410C8700120FFF705FFE4B245
:10539000254850F824000671E4B2234850F8240050
:1053A000C0788007F8D5E4B21F4850F82400C078D0
:1053B00050F00200E4B21C4951F82410C8700120DA
:1053C000FFF7EAFEE4B2184850F824000771E4B28F
:1053D000154850F82400C0788007F8D5E4B2124888
:1053E00050F82400C07850F00200E4B20E4951F8A1
:1053F0002410C8700120FFF7CFFEE4B20A4850F82D
:105400002400807810F0CF00E4B2074951F824104E
:105410008870FFF7B1FEF1BD34800440B079000020
:10542000C40E0014A186010048070014747B00001C
:105430000000000000C07240FCA9F1D24D62403F64
:105440000000000000C0724000B0034000B00B40FC
:10545000000000000000000000000000000000004C
:1054600000000000000000000000000000004E6F7F
:105470006E4D61736B61626C650000000048617283
:10548000644661756C740000000000004D656D4D50
:10549000616E6167656D656E74000042757346618B
:1054A000756C74000000000000005573616765466C
:1054B00061756C7400000000000000000000000036
:1054C00000000000000000000000000000000000DC
:1054D00000000000000000000000000000000000CC
:1054E00000000000000000000000000000000000BC
:1054F0000000000000535643616C6C000000000087
:105500000000000044656275674D6F6E69746F72CC
:10551000000000000000000000000000000000008B
:10552000000050656E64535600000000000000004B
:10553000005379735469636B0000000000000000A1
:10554000444D413000000000000000000000004415
:105550004D41310000000000000000000000444DFB
:1055600041320000000000000000000000444D41F6
:10557000330000000000000000000000444D4134F2
:105580000000000000000000000000444D41350014
:1055900000000000000000000000444D4136000003
:1055A000000000000000000000444D4137000000F2
:1055B0000000000000000000444D413800000000E1
:1055C00000000000000000444D41390000000000D0
:1055D000000000000000444D413130000000000098
:1055E0000000000000444D41313100000000000087
:1055F00000000000444D4131320000000000000076
:10560000000000444D413133000000000000000064
:105610000000444D41313400000000000000000053
:1056200000444D4131350000000000000000000042
:10563000444D415F4572726F720000000000004DE2
:10564000434D000000000000000000000000465430
:10565000464C0000000000000000000000526561A0
:10566000645F436F6C6C6973696F6E004C56445F86
:105670004C565700000000000000004C4C57000042
:1056800000000000000000000000576174636864BF
:105690006F6700000000000000524E47000000004D
:1056A000000000000000000049324330000000000C
:1056B00000000000000000493243310000000000FB
:1056C00000000000000053504930000000000000BE
:1056D00000000000005350493100000000000000AD
:1056E000000000005350493200000000000000009C
:1056F00000000043414E305F4F525F4D425F627584
:10570000660043414E305F4275735F4F666600002E
:105710000043414E305F4572726F7200000000001E
:1057200043414E305F54785F5761726E696E6743D4
:10573000414E305F52785F5761726E696E674341C8
:105740004E305F57616B655F5570000000526573A6
:10575000657276656435310000000000526573653E
:10576000727665643532000000000043414E315FBF
:105770004F525F4D425F6275660043414E315F425A
:1057800075735F4F666600000043414E315F45729E
:10579000726F72000000000043414E315F54785F29
:1057A0005761726E696E6743414E315F52785F5741
:1057B00061726E696E6743414E315F57616B655F21
:1057C0005570000000526573657276656435390066
:1057D0000000000052657365727665643630000023
:1057E00000000055415254305F52585F5458000039
:1057F000000055415254305F4552520000000000F5
:105800000055415254315F52585F54580000000017
:1058100055415254315F455252000000000000557E
:10582000415254325F52585F5458000000005541B5
:105830005254325F45525200000000000055415260
:1058400054335F52585F5458000000005541525481
:10585000335F45525200000000000055415254345D
:105860005F52585F54580000000055415254345F55
:1058700045525200000000000055415254355F521D
:10588000585F54580000000055415254355F45524E
:1058900052000000000000414443300000000000BE
:1058A00000000000000041444331000000000000FF
:1058B0000000000000434D503000000000000000D8
:1058C00000000000434D50310000000000000000C7
:1058D000000000434D5032000000000000000000B6
:1058E000000046544D3000000000000000000000A1
:1058F0000046544D31000000000000000000000090
:1059000046544D320000000000000000000000433B
:105910004D54000000000000000000000000525440
:10592000430000000000000000000000005265730A
:1059300065727665643833000000000050495430C9
:105940000000000000000000000000504954310039
:105950000000000000000000000050495432000028
:105960000000000000000000005049543300000017
:105970000000000000000000504442300000000021
:1059800000000000000000555342300000000000FD
:105990000000000000005553424443440000000052
:1059A0000000000000454E45545F313538385F54E3
:1059B000696D6572454E45545F5472616E736D69D1
:1059C000740000454E45545F526563656976650015
:1059D0000000454E45545F4572726F720000000032
:1059E00000493253300000000000000000000000B9
:1059F0005344484300000000000000000000004441
:105A0000414330000000000000000000000044415D
:105A10004331000000000000000000000054534922
:105A20003000000000000000000000004D4347006F
:105A300000000000000000000000004C5054696DA0
:105A40006572000000000000000052657365727608
:105A5000656431303200000000504F525441000064
:105A60000000000000000000504F525442000000AF
:105A700000000000000000504F525443000000009E
:105A8000000000000000504F52544400000000008D
:105A90000000000000504F5254450000000000007C
:105AA000000000005265736572766564313038001D
:105AB000000000526573657276656431303900000C
:105AC0000000526573657276656431313000000004
:105AD00000526573657276656431313100000000F3
:105AE0005265736572766564313132000000005290
:105AF000657365727665643131330000000052656C
:105B0000736572766564313134000000005265734C
:105B10006572766564313135000000005265736549
:105B2000727665643131360000000052657365722B
:105B30007665643131370000000052657365727616
:105B40006564313138000000005265736572766516
:105B500064313139000000000080034000900340B0
:105B600000800B4000F00F4040F00F4080F00F40ED
:105B7000C0F00F4000F10F4000600640007006408A
:105B8000F0000A1D300018003200180160001818DB
:105B90006400181A6E00181F780013187D00131A7D
:105BA0008200131C8C000E1296000E15A0000E1819
:105BB000AA000E1BB4000E1EC8000C1CE1000B1E38
:105BC000FA000A1F000109080090044000A00440E8
:105BD00000B0044000C0044000D0044000A00640D3
:105BE00000B0064000C0064000D0064000A00E40B5
:105BF00000B00E400000803FCDCC4C3E0000803F06
:105C0000000000000AD7A33B1B2FDD3CA69B443DB0
:105C100023DB793FF46C163E70CEC83E00000000D6
:105C2000CDCC4C3DBBB80D3ED5E72A3E98DD533E6A
:105C3000E336BA3EF90215500000F0400000F04093
:105C400000009040000090409A9939409A9939405C
:105C50006666A63F6666A63F0000803F0000803F64
:105C6000CDCC4C3F000000000000000000002041AF
:105C70006666E6400000E040000090400000904072
:105C800033333340333333409A99993F9A99993F4C
:105C90006666663F6666663F3333333F000000004A
:105CA0000000000000008040CDCC4C40CDCC4C40EA
:105CB00033333340333333400000004000000040B2
:105CC000CDCC8C3FCDCC8C3FCDCC4C3FCDCC4C3FC4
:105CD0009A99193F00000000000000006666264007
:105CE000CDCC0C40CDCC0C406666E63F6666E63F08
:105CF0003333B33F3333B33FCDCC8C3FCDCC8C3F2C
:105D0000CDCC4C3FCDCC4C3F9A99193F00000000C0
:105D100000000000666606409A99D93F9A99D93FDB
:105D20009A99993F9A99993F0000803F0000803FDF
:105D30000000003F0000003F9A99993E9A99993ED1
:105D4000CDCCCC3D000000000000000007000000AA
:105D50003435363752606268696A0000000040409E
:105D6000ACC5A73800004040000048420AD7A33B1A
:105D7000EC51B83D0000A041000020400AD7A33BF1
:105D8000A69B443B64000000190000000A000000CC
:105D90000300000002040101C80E0014180F0014D3
:105DA000C80E0014C80E0014C80E0014A109001477
:105DB000880900140000000000000000000000003E
:105DC00000000000000000000000000000000000D3
:105DD0000000000010F00701DFF8C00600684FF671
:105DE000FF021040DFF8B82652EA01210843DFF82D
:105DF000AC1608607047DFF8A4060068C0F3022004
:105E0000704740B24109DFF89C26012310F01F00C3
:105E100013FA00F042F82100704740B2002809D57B
:105E200040B210F00F00DFF880268018090100F85A
:105E3000041C04E040B2DFF8742609018154704765
:105E400010B410F00700D0F10703052B01D3042391
:105E500001E0D0F10703041D072C01D2002000E06F
:105E6000C01E012414FA03F35B1E19408140012374
:105E700013FA00F0401E1040084310BC704780B574
:105E800072B6FAF7C9FA00F055F8DFF82416DFF811
