:10000000F8FF002011040000892800008928000062
:10001000892800008928000089280000892800001C
:10002000892800008928000089280000892800000C
:1000300089280000892800008928000089280000FC
:1000400089280000892800008928000089280000EC
:10040000FFFFFFFFFFFFFFFFFFFFFFFFFEFFFFFFFD
:1004100062B606F065FFFEE738B5DFF8E409036869
:10042000DFF8E009026814001D00DFF8DC0901684C
:10043000DFF8D809006800F013FF01002B0022004C
:10044000DFF8440C00F078FFDFF8400C0368DFF8B9
:10045000400C0268DFF83C0C0168DFF8200D00F06A
:100460006BFF31BD2DE9F0410400884610001D00EE
:10047000DFF8241C0968052298FBF2F2B1FBF2F3C5
:1004800002FB1311002950D1DFF80C1C0968002968
:100490002CD1DFF8081C0978090708D4DFF8FC0B19
:1004A000007850F00800DFF8F41B087005E000F059
:1004B0004DFF216800F074FF2060206800F0B2FF5B
:1004C00006000F00404600F0D5FF0022DFF8B03CE8
:1004D00000F0E8FF02000B003000390000F0E2FFFE
:1004E00001F004F928600020206024E000F02EFFD5
:1004F000216800F055FF2060206800F093FF06009F
:100500000F00404600F0B6FF0022DFF8743C00F018
:10051000C9FF02000B003000390000F0C3FF01F0FA
:10052000E5F828600020206005E000F00FFF21685A
:1005300000F036FF2060BDE8F0812DE9F04F83B078
:1005400081468A460024002500264846DFF8341CF0
:10055000096801F013F9804600275FF0000BDFF80F
:10056000280CB0F90000DFF8241CB1F900100818BD
:10057000022190FBF1F0DFF8181C0880DFF8143C32
:10058000DFF80C0CB0F90020DFF80C0C0168DFF884
:100590000C0CFFF767FFDFF8000C006800F0D6FED8
:1005A000DFF8FC1B096800F05BFEDFF8F81B01F0C8
:1005B00059F9DFF8E01B096801F0E0F88346DFF83D
:1005C000E83BDFF8C40BB0F90020DFF8E00B01686E
:1005D000DFF8DC0BFFF746FFDFF8D83BDFF8AC0BAA
:1005E000B0F90020DFF8C40B0168DFF8CC0BFFF78F
:1005F00039FFDFF8A80A007880074DD4DFF8A00B98
:10060000006800F00FFFDFF8B42BDFF8B43B01F017
:10061000A7F902000B0014001D00DFF8740BB0F9FD
:10062000000000F093FEDFF8781B096801F0A6F8DF
:1006300000F0F8FE22002B0001F064FA2CD2DFF863
:10064000500BB0F9000000F081FEDFF8541B096880
:1006500001F094F800F0E6FE02000B0014001D000B
:10066000DFF83C0B006800F0DDFEDFF8502BDFF810
:10067000543B01F075F922002B0001F043FA0BD234
:10068000DFF8180A007850F00200DFF8101A08703E
:10069000DFF8340B00210160DFF8EC09DFF8FC1A09
:1006A0000968C160484600F0FBFC4046002101F0AB
:1006B00041FA2FD8DFF850070068494600F0D0FD16
:1006C0000400DFF8080B0068414600F0C9FD210076
:1006D00000F066FE00F0A6FECDE90001404600F005
:1006E000A1FEDFF8EC2ADFF8EC3A01F039F904005A
:1006F0000D00404600F096FE22002B0001F030F97C
:10070000DDE9002301F028FA00F0F0FFDFF8C81A55
:10071000086030E0DFF8F0060068494600F0A0FD10
:100720000400DFF8A80A0068414600F099FD2100A6
:1007300000F036FE00F076FECDE90001404600F004
:1007400071FEDFF88C2ADFF88C3A01F009F9040019
:100750000D00404600F066FE22002B0001F000F97B
:1007600002000B00DDE9000101F06AFA00F0BEFFB3
:10077000DFF8641A0860DFF80C0AC0F80090DFF8B0
:100780001C090078C0076CD44846DFF8501A01F005
:10079000D1F92FD94846DFF8481A01F011FB29D3C7
:1007A0005046DFF83C1A01F00BFB23D3DFF8E009D9
:1007B000B0F900004FF60D61401A40F2E73180B207
:1007C000884217D2DFF8C009B0F900004FF60D617A
:1007D000401A40F2E73180B288420BD2DFF8AC0910
:1007E000B0F900004FF60D61401A40F2E73180B2D7
:1007F000884216D3DFF8A408007850F00100DFF833
:100800009C180870DFF8DC09006800F09FFDDFF835
:10081000D819096800F024FD390000F0C1FD070077
:100820006CE0DFF874080068DFF86C1909680522CD
:1008300091FBF2F1B0FBF1F201FB120000280CD1A8
:10084000CDF800A0DFF890090368DFF8A029DFF8F1
:1008500078090168584600F0DBFADFF8900907686C
:100860004CE0DFF838080078C00747D54846DFF885
:10087000801901F0A5FA33D24846DFF8781901F063
:1008800059F92DD85046DFF8701901F053F927D8DF
:10089000DFF80808007810F0FE00DFF80018087094
:1008A000DFF8F4070068DFF8F0180968052291FB0B
:1008B000F2F1B0FBF1F201FB120000280CD1CDF8EF
:1008C00000A0DFF814090368DFF82029DFF8F80832
:1008D0000168584600F09CFADFF8100907680DE03F
:1008E000DFF80009006800F031FDDFF8FC18096846
:1008F00000F0B6FC390000F053FD0700DFF8D8081F
:100900000068390000F04CFDDFF8CC18086001F0F9
:1009100069FADFF8C4080068002101F00BF90AD277
:10092000DFF8B4080168DFF8D40800F039FDDFF81B
:10093000A818086010E0DFF8A0080068002101F0A6
:100940003FFA09D2DFF890080168DFF8B40800F038
:1009500027FDDFF884180860DFF8A808DFF8A8187A
:100960000160DFF844080068DFF84818096801F002
:10097000D5FB13D1DFF88C080068002101F0DAF80C
:1009800002D2DFF8846835E0DFF8780800680021DB
:1009900001F016FA2ED2DFF874682BE0DFF80808B1
:1009A0000168DFF81008006800F0FAFC002101F08F
:1009B000B5FB09D1DFF8FC070068002101F0AEFBB0
:1009C00002D0DFF84C6815E0DFF8DC070168DFF8DB
:1009D000E407006800F0E4FC0400DFF8D8070068D2
:1009E000DFF8C417096800F0C9FE0100200000F01C
:1009F00039FF060030005FF07C5101F0E1F938D298
:100A00003000DFF8101801F095F832D8DFF88007D1
:100A1000B0F900004FF6FD71401A80B2072828D2C5
:100A2000DFF8E007006800F0FDFC02000B0000208A
:100A3000DFF8E41700F036FD04000D00300000F090
:100A4000F1FC02000B000020DFF8CC1700F02AFDBB
:100A500002000B002000290001F0F2F80022DFF86C
:100A6000BC3700F01FFD00F041FEDFF81017C86032
:100A700022E0DFF89007006800F0D4FC02000B00D1
:100A80000020DFF8941700F00DFD04000D00300089
:100A900000F0C8FC02000B000020DFF87C1700F01B
:100AA00001FD02000B002000290001F0C9F800F050
:100AB0001DFEDFF8C816C860DFF8D406B0F90000E4
:100AC000012837DBDFF8CC050168DFF8B006C06825
:100AD00000F0C6FB0400DFF8A406C068DFF89C162F
:100AE000096900F04BFEDFF8A415096800F0B8FBB7
:100AF000210000F055FC00F095FC04000D00DFF82B
:100B00009006B0F9000000F021FCDFF8141700F0A7
:100B1000A9FE00F087FC0022DFF8FC3601F01CF88B
:100B200022002B0000F01CFF00F0E0FDDFF8F416BF
:100B3000086038E0DFF85C050168DFF84006C0684F
:100B400000F08EFB0400DFF83406C068DFF82C16D6
:100B5000096900F013FEDFF83415096800F080FB26
:100B6000210000F01DFC00F05DFC04000D00DFF82A
:100B70002006B0F9000000F0E9FBDFF8A41600F051
:100B800071FE00F04FFC02000B000020DFF8881619
:100B900001F056F822002B0000F0E2FE00F0A6FD66
:100BA000DFF880160860DFF83006006800F03AFCD5
:100BB00006000F00DFF84C06006800F033FC02006E
:100BC0000B000020DFF8501600F06CFC04000D0054
:100BD000DFF85006006800F025FC22002B0000F032
:100BE000BBFF02000B000020DFF82C1601F028F8F4
:100BF00032003B0000F0B4FE01F09EFA0400DFF882
:100C0000D805006800F00EFC80468946DFF8F40540
:100C1000006800F007FC02000B000020DFF8F81568
:100C200000F040FC06000F00DFF8F805006800F057
:100C3000F9FB32003B0000F08FFF0022DFF8D835CF
:100C400000F08AFF42464B4600F08AFE01F074FA3B
:100C50000500200000F00EFC80468946DFF82805DC
:100C6000B0F90000404200F005FCDFF86425DFF831
:100C7000643500F075FEDFF85825DFF8583500F0D0
:100C800011FC06000F00DFF8A005006800F0CAFBA9
:100C900032003B0000F064FE06000F00C820DFF8C1
:100CA000F814096890FBF1F000F0E4FB32003B001F
:100CB00000F056FE42464B4600F04EFF01F03CFA73
:100CC0000400280000F0D6FB80468946DFF8BC040B
:100CD000B0F90000404200F0CDFBDFF8F424DFF86B
:100CE000F43400F03DFEDFF8E824DFF8E83400F0EB
:100CF000D9FB06000F00DFF83405006800F092FB16
:100D000032003B0000F02CFE06000F00C820DFF888
:100D10008814096890FBF1F000F0ACFB32003B0056
:100D200000F01EFE42464B4600F016FF01F004FAAA
:100D30000500D548D44909694161D348D249C968F9
:100D40000161DFF83804DFF8341409694161DFF824
:100D50002C04DFF82814C96801614FF479708542CA
:100D600001DB40F2E335DFF8C804854201DADFF841
:100D7000C0544FF47970844201DB40F2E334DFF871
:100D8000B004844201DADFF8A844002D0DD44FF4FA
:100D90007A70421B0421002001F02FFB4FF47A727D
:100DA0000521002001F029FB0BE04FF47A720421A9
:100DB000002001F022FB05F2E8320521002001F0BD
:100DC0001CFB002C0DD44FF47A720621002001F098
:100DD00014FB4FF47A70021B0721002001F00DFB79
:100DE0000BE004F2E8320621002001F006FB4FF48C
:100DF0007A720721002001F000FBBDE8F78F0000A8
:100E0000FC080014F8080014E8080014F4080014A2
:100E10002DE9F04F07000E001400099D300000215D
:100E200000F0CEFF66D83800002100F083FE31D8F4
:100E3000DFF800040168DFF80004006800F010FA31
:100E4000390000F00DFA00F0EDFA82468B46DFF82B
:100E5000E4030168DFF8E003006800F001FA00F045
:100E6000E1FA02000B00DFF8D403DFF8D41300F03E
:100E700077FD80468946300000F0D4FA42464B4662
:100E800000F06EFD52465B4600F066FE00F02EFC60
:100E9000206093E0DFF89C030168DFF89C030068A2
:100EA00000F0DEF9390000F0DBF900F0BBFA824611
:100EB0008B46DFF880030168DFF87C03006800F0F0
:100EC000CFF900F0AFFA02000B00DC48DC4900F07B
:100ED00047FD80468946300000F0A4FA42464B4662
:100EE00000F03EFD52465B4600F036FE00F0FEFB91
:100EF000206063E03800002100F01CFE2FD8CD48B0
:100F00000168CD48006800F0ABF95FF07E5100F059
:100F1000A7F9390000F0A4F900F084FA82468B4664
:100F2000C4480168C448006800F09AF900F07AFAF1
:100F300002000B00C148C24900F012FD80468946FC
:100F4000300000F06FFA42464B4600F009FD524671
:100F50005B4600F001FE00F0C9FB20602EE0B548C2
:100F60000168B548006800F07BF95FF07E5100F041
:100F700077F9390000F074F900F054FA82468B4694
:100F8000AC480168AC48006800F06AF900F04AFA21
:100F900002000B00A948AA4900F0E2FC80468946FD
:100FA000300000F03FFA42464B4600F0D9FC524672
:100FB0005B4600F0D1FD00F099FB20603800002175
:100FC00000F0B8FD25D22800002100F0B3FD0CD2BE
:100FD0007E480068290000F043F95FF0814100F08D
:100FE00041FC216800F0DCF920602800002100F0BD
:100FF000E7FE38D275480068290000F031F95FF04B
:10100000814100F02FFC0100206800F0B7FB206058
:1010100029E03800002100F0D3FE24D2280000216E
:1010200000F088FD0DD269480068290000F018F929
:101030005FF0814100F016FC0100206800F09EFB8B
:1010400020602800002100F0BBFE0CD25F48006841
:10105000290000F005F95FF0814100F003FC2168F0
:1010600000F09EF920602068764900F063FD01D809
:10107000754820602068754900F0A2FE01D27448CE
:101080002060BDE8F08F0000F40D00140C0900147E
:101090000809001404090014780E0014EA0E001464
:1010A00030B500216B4A12680523B2FBF3F2502AD7
:1010B00024D2684909680522B1FBF2F302FB13113F
:1010C00000291BD1634909680522B1FBF2F4624D86
:1010D00001F0B2FA25F81400424800210160002115
:1010E000C9B2502939D23F480068C9B25A4A32F9C8
:1010F000112080183B4A1060491CF1E755490968E6
:101100000522B1FBF2F15039502926D25149096824
:101110000522B1FBF2F302FB131100291DD14D4949
:1011200009680522B1FBF2F14B4A12EB410401F0D0
:1011300083FA24F8A00C494800210160002109E04D
:1011400028480068C9B2444A32F911208018254A5B
:101150001060491CC9B25029F2D33E480068401CB7
:101160003C4908603B4800684FF44871884203D10D
:1011700038484FF4A071016030BD0000140E001417
:1011800000001440480D0014DA0E0014DC0E0014A8
:10119000D80E00144C0E0014100900143C0E00145C
:1011A0000009001400004842540E001414090014F1
:1011B000440E0014500E0014480E00149A99999988
:1011C0009999B93F9999B9BF400E0014F0080014DD
:1011D0007B14AE47E17A743F400D00140100FA44DD
:1011E0000080BBC44C0D0014EC080014440D001426
:1011F00000001643FFFF15C3FFFFF9C300002042A4
:10120000000020C2280B001420BCBE4C20BCBECC69
:101210000AD7233CFEFFFFBE0000F03F000049401C
:101220000000A041380E0014300E0014340E0014DB
:101230001DFCFFFFE8080014F4080014FCA9F1D21B
:101240004D62503F0100484400004844008009C6F8
:10125000000048C4F00D0014500D0014100E0014CE
:10126000FF2212EAD05C1DBF12EAD153944593428B
:101270002BE09C44D30780EA01021A4043EA002095
:1012800043EA0121A1FB0030410038BF40007CF15E
:101290007F010BDBFE294ADA5B0842EAC15153EABF
:1012A000006373F1004C51EB10207047D1F1080C32
:1012B000DCF120012FDB5B0810FA01F10B4373F125
:1012C000004120FA0CF05041704794451CBF02EADF
:1012D000D153934280EA010202F000421DD0400047
:1012E00019D0490017D05BB9634514D00902B1FA8F
:1012F00081F39940BCEB030CC00140F00040C1E712
:101300000002B0FA80FC10FA0CF0B3EB0C0CC9012F
:1013100041F00041B6E71000704740000AD0490094
:1013200008D010F1807F94BF11F1807F02E042F07D
:10133000FF407047D04370470160426083600021E6
:10134000C16000210161002141617047002840F126
:101350000980F446404200F005F850F00040604734
:10136000002800BF0AD0B0FA80F18840D1F19D0179
:10137000C905020672F1004241EB1020704750F897
:10138000041B61B150F8042BD30744BFA9F101033A
:101390009A18002342F8043B091FFAD1EFE770477F
:1013A00090EA010F44BF81F0004100F0EFB900BFA7
:1013B000421A3CBF801A89184FF0004CC0F3C75244
:1013C000FF2A24D0C1F3C75313B3D21AD2F11903A1
:1013D00027DD4CEA01214CFA03F321EA0303D14053
:1013E000C20D4CEA0020401834BF20EA0C004CEA41
:1013F0005000D20553EA006373EB0C0C52EB102043
:10140000420012F1807F38BF7047C00DC0057047A1
:10141000490212BF9A4200EB5120F8E7D2F11703BC
:10142000D9D570475FF0FF0C1CEAD05114BF61455D
:1014300006E0C110400721F0E04101F16051704722
:1014400079B900F0004100020AD0B0FA80FC00FA3D
:101450000CF001F16051A1EB0C5101EBD0214005E2
:10146000704741020CBF40F4E0016FF00001002022
:1014700070470000010040F10980F446404200F04E
:1014800005F851F000416047010000BF09D0B0FAF3
:1014900080F18840C91CC1F58461090501EBD021A8
:1014A00040057047F0B540F2FF7581EA030C0CF07F
:1014B000004C15EA11541DBF15EA1357AC42AF4258
:1014C000E5E0BC41C1F31301C3F31303801A994152
:1014D00043F4801304D2641E4000494180185941EE
:1014E000C90241EA5051B1FBF3F603FB1611A2FB0E
:1014F0000675D7EBC020A94102D2761E801859414B
:10150000C90241EA5051B1FBF3FE03FB1E11A2FBDD
:101510000E75D7EBC020A94103D2AEF1010E8018A1
:101520005941890241EA9051760546EA8E2EB1FB77
:10153000F3F603FB1611A2FB0675D7EB8020A94139
:1015400002D2761E80185941C90241EA50514EEA32
:10155000060EB1FBF3F603FB1611A2FB0675D7EBE3
:10156000C020A94102D2761E80185941C90241EA21
:101570005051B1FBF3F703FB1711A2FB0735D3EB77
:10158000C020A94167F100070CBF004247F00107E6
:1015900066F3D5274FEA1E31B80814F5806412DDD2
:1015A000BD0775F1004250EB0E5051EB045111F59F
:1015B000801F5CBF41EA0C01F0BD4CF07F6141F03F
:1015C000E0410020F0BDBD076D0840EA0E5041F437
:1015D0008011D4F10104B4F120060ADAC4F1200626
:1015E0000200E04001FA06F3E1401843B24015431F
:1015F0000EE0342C13DCC6F1200445EA40056D08EA
:1016000020FA06F2154321FA06F0A1400D4300210D
:1016100075F1004250F1000051EB0C01F0BD0020CB
:101620005FEA0C01F0BDCFB992185B41B3FA83F7C2
:1016300004BFB2FA82F6BF190B3FB7F120062FBFE5
:1016400002FA06F3BB40C7F1200622FA06F638BFBD
:101650003343BA401CB1E419641E33E77F4231F0D2
:101660000041B1FA81F404BFB0FA80F6A4190B3C32
:10167000B4F120062FBF00FA06F1A140C4F1200604
:1016800020FA06F638BF3143A0403C1B1AE7AC42B3
:101690001ABF05EA1357AF4212E050EA41061CBFD9
:1016A00052EA4306BFE750EA4107304661461CBF95
:1016B00041EA0551F0BD52EA430C08BFC143F0BDF9
:1016C00000204FF4001616EB410F98BF16EB430FA6
:1016D00008BF16EB410F24BFC14305E016EB430FD3
:1016E0000CBF61464CEA0551F0BD00004FEAF17CA9
:1016F000BCF1E04C2CBFBCF5001F11E05FEA4C0CC4
:1017000034BFBCF17F5F2EE05FEA9C0C4FEA0C1CFB
:101710004FEA3C0CC10071F100414CEB5070704736
:10172000C90241EA5051C00218BF41F0010141F025
:1017300000414FEA6C50C0F10900212810D240EA64
:10174000CC7CCCF1200C11FA0CF070F10040CCF103
:10175000200C21FA0CF00CF0004C40EB0C00704710
:101760004FEACC707047490011F5001F04D84FEACA
:10177000CC10FF30C0057047C817704790EA010FC2
:1017800044BF81F00041FFF713BE00BF431A4FF082
:1017900000423EBF5340C01AC91800BFD3095FEAD8
:1017A000D05C13EB400F34BFB3EB410F40E07CEB58
:1017B000D1530CD342EA012122D8D1EB402009D3E6
:1017C000400A28BF5FEA500140EBCC507047401AF6
:1017D00015D04002B0FA80F2521C9040400A4FEA05
:1017E0003C23B3EB026384BF00EB730007E040F4DB
:1017F00000001A16DB07C2F10102D04018437047FF
:10180000182BFCDC31FA03F202FA03F3591A38BF41
:1018100042F00102D2EB40203CBF4000ACF1010C91
:101820005FEACC5CC20572F100414CEB502070477E
:1018300013EB400F0FD24B0009D0ACEBD153022B6E
:1018400003DB4902172BDDDD70479143401A43004B
:10185000D5D10020704713EB410FD0D36FF00000BB
:101860007047000010B5FF2313EAD0541DBF13EAE0
:10187000D1529C429A4239E0A41ADA0780EA010365
:10188000134042EA012142EA0020421A3CBF641E92
:1018900001EB4202090AB2FBF1FE01FB1E22120219
:1018A000B2FBF1F001FB10226EF30F201202B2FB2B
:1018B000F1FE4EEA00207F3406DDFE2C24DA53EAE6
:1018C000500050EBC45010BDD4F1020401FB1E22A5
:1018D00040F08071192C1DDC21FA04F0C4F12004C1
:1018E000A140114371F10042584110BD9C421ABF02
:1018F00003EAD1529A420FE080EA010E0EF0004353
:10190000400004D0490016D143F0FF4010BD49000B
:1019100008BFD343180010BD9C4205D1D21AF7D09E
:1019200001F00041484010BD4A0212BF084648403D
:1019300000F0004010BD4AB90902B1FA81F29140AD
:1019400044B1A418C00140F000409EE7C90141F035
:10195000004152420002B0FA80F4A040141B94E708
:10196000B0B581EA030C0CF0004C40F2FF7515EAAB
:1019700011541DBF15EA1357AC42AF4239E0E419C8
:1019800023EA455343F48013C90241F0004141EA80
:10199000505EC7021100A7FB020200284FF00000B2
:1019A000EEFB01204FF00001E3FB072118BF42F0DE
:1019B0000102401800214941E3FB0E01A4F58064B7
:1019C0000F0302D252004041494154F101046CDD41
:1019D000470872F1004250F1000051EB0451A1F5AB
:1019E00080115CBF41EA0C01B0BD4CEA05510020FA
:1019F000B0BD05EA1357AC4214BFAF4241E050EA14
:101A0000410E1CBF52EA430E02E061460020B0BD09
:101A100024423C441BD15FEA070EF6D0090302BF03
:101A200001460020AEF1140EB1FA81F7AEEB0704C7
:101A300001FA07FE0C37C7F1200100FA07F7C8408A
:101A40004EEA000E23EA455343F48013A2E733F035
:101A50000043B3FA83F704BFB2FA82FE77440B3F28
:101A6000E41BB7F1200E2FBF02FA0EF3BB40C7F103
:101A7000200E22FA0EFE38BF43EA0E03BA40641C61
:101A800082E750EA410E14BF52EA430E6FF00001A4
:101A90004FF4001717EB430F8ABF194617EB410F9E
:101AA000B5E74CEA05510020B0BDD4F10104B4F112
:101AB00020070FDAC4F12007520828BF42F00102C4
:101AC00010FA07F501FA07F7E1BF2A43E04038436F
:101AD000E1400FE0352C98DCC7F1200452EA4002C7
:101AE00020FA07F218BF42F0010231FA07F0A140D4
:101AF0000A43002172F1004250F1000051EB0C0149
:101B0000B0BD00004FF4001C1CEB410F94BF1CEB58
:101B1000430F09E041EA030C50EA4C0C52EA0C0C6A
:101B200003D2994208BF9042704714BF8B42824251
:101B3000704700004FF0807C1CEB400F94BF1CEB03
:101B4000410F05E040EA010C5FEA4C0C01D28142F2
:101B5000704718BF8842704770B44FF0004591EA53
:101B6000030C44BF6B4000F075B800BF841A71EBE2
:101B7000030603D2001BB141121973414FF4001C3C
:101B80001CEB410F34BF7CEB430443E00C0DA4EB92
:101B90001356352E50DC45EAC323DB0A45EAC12142
:101BA000C912B6F120050DDD63FA05F6EB4086EAB1
:101BB0000305124218BF45F00105C01851F100019C
:101BC0000CD213E062FA06F5F2405540F3415A4058
:101BD000B340F3405A408018594107D349085FEA9F
:101BE00030005FEA350528BF45F0010501F5801199
:101BF000420875F1004250F1000041EB045170BC05
:101C00004FF4001C1CEB410F38BF70470020090D3A
:101C1000090570471CEB410F10D252EA43060BD066
:101C2000BCEB410F05D80C0DAB43661E342EB5DD61
:101C300002E0AB438018594170BC704770BC7047DC
:101C400070B44FF0004591EA030F44BF6B40FFF7BB
:101C50008DBF00BF841A71EB030604D26E40001BD7
:101C6000B141121973414FF4001C1CEB410F34BFFA
:101C70007CEB430684E00C0DA4EB1356362E7DDC82
:101C8000012E43DC45EAC32343EA525312BFD2027A
:101C900092025B08240545EAC12141EA5051D2EB8A
:101CA000C020994125D407D1B0FA80F610FA06F188
:101CB00064D00020203608E0B1FA81F6B140C6F1C8
:101CC000200220FA02F21143B0404FEAF474B4EB60
:101CD000465434F001064FEA74040AD8D6F50016CB
:101CE000760D04F00044F04061FA06F25040F140F5
:101CF0004840C00A40EA415021F0004128BF5FEA55
:101D0000500550F1000044EBD12137E045EAC323F0
:101D1000DB0A45EAC121C90AB6F120050EDD42EA17
:101D20000242120CC5F1200603FA06F6EB4042EA25
:101D300006056D42984161F100010DE062FA06F579
:101D4000F240554063FA06FC82EA0C02F3405A4026
:101D50006D42904161EB030111F4801F05D1641EB7
:101D6000620502D06D004041494121F480114308D1
:101D700075F1004350F1000041EB045170BC704715
:101D80001CEB410F15D223F0004352EA43060BD05F
:101D90004FEA4C0CBCEB410F04D80C0D661E342EE0
:101DA000B7DDEBE7801A994150EA410608BF0021F0
:101DB000E4E708BF1CEB430F28BF6FF00001DDE72D
:101DC0004FF0807C1CEB400F94BF1CEB410F05E0F3
:101DD00040EA010C5FEA4C0C01D28842704718BF00
:101DE000814270472DE9F84F002500240026002786
:101DF0005FF000084FF0FF0940F2FF308146B7481E
:101E00000068FFF7ADFAB649FFF72AFA824648465E
:101E1000FFF7A6FA01005046FFF724FD0500B14880
:101E20000068FFF79DFAAE49FFF71AFA8246484666
:101E3000FFF796FA01005046FFF714FD0400AA4888
:101E40000068FFF78DFAA649FFF70AFA824648466E
:101E5000FFF786FA01005046FFF704FD0600A3488D
:101E60000068FFF77DFA9E49FFF7FAF98246484677
:101E7000FFF776FA01005046FFF7F4FC07009C4894
:101E80000068FFF76DFA9649FFF7EAF9824648467F
:101E9000FFF766FA01005046FFF7E4FC8046280091
:101EA0003100FFF76BFC8E49FFF7DCFC06003800C1
:101EB0004146FFF763FC8A49FFF7D4FC3100FFF786
:101EC0006FFA5FF08041FFF7CDFC050035008448D4
:101ED0002100FFF753FC8249FFF7C4FC814600262E
:101EE00028000021FFF726FE01D2012606E0280087
:101EF0000021FFF765FF01D25FF0FF3600220023CB
:101F000000208DF8000000244FF0FF0A4FF0FF0B77
:101F100005208DF800000720040028000021FFF7AD
:101F20004FFF01D295F00045002200E0521C9DF8C1
:101F30000000D2B2824211D24846D2B26D4951F865
:101F40002210FFF7F7FDF1D84846D2B2694911EBEC
:101F500082014968FFF734FFE8D29246002300E08F
:101F60005B1CDBB2E4B2A34211D22800DBB26249AF
:101F700051F82310FFF7DEFDF2D82800DBB25E49EE
:101F800011EB83014968FFF71BFFE9D29B465FFA1B
:101F90008BFB5FFA8AFA3820584900FB0A1010EBD5
:101FA000CB0040685FFA8BFB5FFA8AFA3821534A0C
:101FB00001FB0A2151F83B10FFF7E0FB0400280069
:101FC0005FFA8BFB4C4951F82B10FFF7D7FB05004C
:101FD0005FFA8BFB484810EB8B0040685FFA8BFB85
:101FE000454951F82B10FFF7C9FB01002800FFF706
:101FF00039FC050048465FFA8AFA3E4951F82A1032
:10200000FFF7BCFB81465FFA8AFA3A4810EB8A0078
:1020100040685FFA8AFA374951F82A10FFF7AEFB99
:1020200001004846FFF71EFC2900FFF719F92100BF
:10203000FFF716F95FFA8BFB5FFA8AFA38212F4A0D
:1020400001FB0A2151F83B10FFF7AAF92C4908605F
:1020500038004146FFF7A4F9FFF7E4F900225FF0EA
:102060008043FFF71FFA0022264BFFF71BFA264A90
:10207000264B00F003FB0AD8214800685FF082413C
:10208000FFF79EFE03D21E485FF0824101605FF0C1
:10209000FF3036B2864205D119481949096891F0D6
:1020A0000041016016480468194801681448006836
:1020B000FFF7D6F805001248006816490968FFF7CF
:1020C0005DFB15490968FFF7CBF82900FFF768F9B0
:1020D0000B4908600F480460BDE8F18F640E0014DE
:1020E00000C07F44680E00146C0E0014700E0014C3
:1020F000740E0014E8070014CC070014FC07001449
:10210000280B001400F88F40E27A14AE47E1EA3F52
:10211000C40700142C0B0014C807001440EA010C7B
:102120005FEA4C0C07D0884205D14FEA400C1CF105
:10213000807F98BF80427047F446400D40EAC1203E
:10214000490006D200F014F8004248BF6FF000408A
:10215000604700F00DF84FF0004188428CBF084600
:1021600040426047400D40EAC120490080F00D80A8
:1021700040F00040490DA1F58061491C05D4D1F122
:102180001F0154BFC840C01770474FF00000704790
:1021900080B5C0B2002803D0022864D048D37DE0C7
:1021A000DFF88004006850F08070DFF87824106059
:1021B000C9B200290BD0022915D00ED304291ED094
:1021C00017D3062927D020D307292AD02FE04FF490
:1021D0008061412000F06AFA60E04FF480614220A3
:1021E00000F064FAF8E74FF48061432000F05EFAF3
:1021F000F2E74FF48061442000F058FAECE74FF426
:102200008061642000F052FAE6E74FF480616520B7
:1022100000F04CFAE0E74FF48061662000F046FAE7
:10222000DAE74FF48061672000F040FAD4E735E048
:10223000DFF8F003006850F00070DFF8E82310606A
:10224000C9B2002902D0012906D00BE04FF4407139
:102250000C2000F02BFA21E04FF440710D2000F02B
:1022600025FAF8E71AE0DFF8C003006850F0807044
:10227000DFF8B4231060C9B2002902D0012906D0CA
:102280000BE04FF440710A2000F010FA06E04FF422
:1022900040710B2000F00AFAF8E7FFE701BD2DE9D5
:1022A000F04704000D0016001F00E4B2002C0DD012
:1022B000E4B2012C02D0E4B2022C02D1EDB2022D24
:1022C00004D3FC21DFF8640300F05DFA2900C9B2F1
:1022D0002000C0B2FFF75CFFDFF8540300684FF442
:1022E0007A7101FB00F95FEA1940B0FBF6F05FF08C
:1022F000000A01E01AF1010A80B250FA0AF101293C
:10230000F8DA5FFA8AFABAF1080F05D340F217112A
:10231000DFF8180300F037FA39FA0AF0B0FBF6F0EC
:10232000E4B2002C03D0022C12D009D318E080B202
:10233000411C01FB07F14FF47A72B1FBF2F80FE098
:1023400080B2411C01FB07F16422B1FBF2F807E007
:1023500080B2411C01FB07F16422B1FBF2F8FFE7F8
:10236000EDB2E4B2DFF8CC1251F8241011EBC50144
:10237000EDB2E4B2DFF8BC2252F8242012EBC50221
:10238000D26832F00402CA60EDB2E4B2DFF8A412FF
:1023900051F8241011EBC5012822CA60E4B2DFF81D
:1023A000941251F824105FFA8AFA1AF0070252F0D8
:1023B00008020A60E4B2DFF87C1251F8241080B2FF
:1023C0008860E4B2DFF86C0250F824000021C16498
:1023D000EDB2E4B2DFF85C0250F8240010EBC50067
:1023E0001FFA88F8C0F81080E4B2DFF8480250F80D
:1023F000240000214160BDE8F087F8B504000D001D
:1024000016000020E4B2002C0ED0E4B2012C02D061
:10241000E4B2022C02D1EDB2022D05D34FF4A97122
:10242000DFF8080200F0AFF9E4B2002C03D0022C70
:1024300014D00AD31BE0B6F57A7F05D940F25711C4
:10244000DFF8E80100F09FF911E0652E05D340F2B6
:102450005B11DFF8D80100F096F908E0652E05D38E
:1024600040F25F11DFF8C40100F08DF9FFE7E4B23C
:10247000DFF8C00150F8240080680028F7D0E4B2EB
:10248000002C03D0022C10D008D315E0401C00FB18
:1024900006F04FF47A71B0FBF1F70DE0401C00FB41
:1024A00006F06421B0FBF1F706E0401C00FB06F0EB
:1024B0006421B0FBF1F7FFE7EDB2E4B2DFF874019D
:1024C00050F8240010EBC5000761F1BD10B5040001
:1024D000E4B2012C07D0E4B2022C04D040F21D215A
:1024E000524800F050F9E4B22000012802D002283E
:1024F00011D021E04B48006850F000704949086055
:102500004FF4C061082000F0D1F84FF4C0610920F9
:1025100000F0CCF815E04448006850F08070424963
:1025200008604FF4C0610A2000F0C0F84FF4C061A9
:102530000B2000F0BBF804E040F265213B4800F0BE
:1025400022F9E4B23B4850F82400406D50F00400FA
:10255000E4B2384951F824104865E4B2354850F8DF
:102560002400D0F8800050F00800E4B2314951F85E
:102570002410C1F88000E4B22E4850F82400002155
:10258000C164E4B22B4850F824004FF6FF7181601B
:10259000E4B2284850F82400D0F8800050F0010040
:1025A000E4B2244951F82410C1F88000E4B2214873
:1025B00050F82400406D50F00100E4B21D4951F87C
:1025C00024104865E4B21B4850F824000021416003
:1025D00010BD10B50400E4B2012C07D0E4B2022C07
:1025E00004D040F28221114800F0CDF8E4B2114845
:1025F00050F82400406800B210BD10B50400E4B2E9
:10260000012C07D0E4B2022C04D04FF42471074807
:1026100000F0B9F8E4B2074850F824000021416006
:1026200010BD00003C800440308004406475000010
:10263000840E0014280700144100090E7F3915D4B8
:10264000D1F11F0114D4400007D2C00140F0004076
:10265000C84048BF6FF000407047C00140F00040E4
:10266000C8404CBF4FF000404042704700207047C8
:1026700000424FF0004058BFC04370474FF4001C69
:102680001CEB410F94BF1CEB430F09E041EA030C24
:1026900050EA4C0C52EA0C0C03D28B4208BF824227
:1026A000704714BF994290427047000010B4294A05
:1026B00012684FF40073C0B24409A3401A43254B7B
:1026C0001A60C0B24211244B53F82220012310F0AB
:1026D0001F04A340C2F8A030C0B210F01F02C0B265
:1026E00040111D4B53F8200040F8221010BC7047D9
:1026F00010B4184A12684FF40073C0B24409A340E2
:102700001A43144B1A60C0B24211134B53F82220E3
:10271000012310F01F04A340C2F8A03031F4E0619F
:10272000C0B210F01F02C0B243110B4C54F823305A
:1027300053F8222012F4E0621143C0B210F01F02DD
:10274000C0B24011044B53F8200040F8221010BCD6
:10275000704700003880044098070014DFF800F04C
:1027600089090014DFF800F0B1090014BFF34F8F9E
:102770005448006810F4E060534908435149086028
:10278000BFF34F8FFEE738B504000D00002000F0C6
:10279000ABF82A0021004D4800F0CCF8002000F0F2
:1027A000BFF84B4800684FF47A7101FB00F1032039
:1027B00000F008F9EDE710B504002100C9B20420CB
:1027C00000F05CFA200010BD10B50024052000F0D8
:1027D0006FFA052000F0A0FA002854D1002000F084
:1027E00083F811E03B4800F0A5F8FFF7B7FF384841
:1027F0000068642101FB00F1032000F0E3F80020F1
:10280000FFF7B0FFFFF7B2FF052000F085FA0128BF
:1028100000D10124002000F083F82F4800F08AF84E
:102820002B4800684FF4FA7101FB00F1032000F01F
:10283000C9F8E4B2012CE7D1052000F06DFA0028B8
:10284000E2D10AE0002000F06BF821480068642122
:1028500001FB00F1032000F0B5F8052000F05CFA60
:102860000028EFD0052000F057FA0128BAD1002047
:1028700000F056F816480068322101FB00F10320F1
:1028800000F0A0F8EEE710BD10B514480468012070
:1028900000F02AF8012000F043F8E4B20F201049BC
:1028A00000FB0412E4B221000E4800F043F808488F
:1028B00000684FF47A7101FB00F1032000F082F808
:1028C000E8E700000CED00E00400FA0508770000DE
:1028D000840E00143C770000F077000004ED00E067
:1028E000200000146476000010B50400E4B2042C4B
:1028F00007D201220121E4B20D48205C00F0F0FA79
:102900000DE0042406E001220121E4B20848205C25
:1029100000F0E6FA2000441EC0B20028F3D110BD3A
:1029200080B5C0B20249405C00F031FB01BD00003F
:10293000DC0800140EB400B582B003A9009100AB0E
:1029400002460121034878440A3000F05FFB06BCD0
:102950005DF810FB794E000038B504000D00002D25
:1029600003D124214348FFF70EFF4348006850F489
:10297000000041490860414800210160E4B22001A3
:102980003F496A1E4250E4B23D4810EB0410C06853
:1029900050F00100E4B23A4911EB0411C860E4B20E
:1029A000374810EB0410806840084000E4B2344916
:1029B00011EB04118860E4B2314810EB04100321DC
:1029C000816031BD38B504000D00002D03D14721D1
:1029D0002848FFF7D8FE2848006850F40000264930
:1029E0000860264800688008800024490860E4B236
:1029F000234810EB0410806840084000E4B22049EE
:102A000011EB04118860E4B220011D496A1E425096
:102A1000E4B21B4810EB0410C06850F00100E4B2AF
:102A2000174911EB0411C860E4B2154810EB04100B
:102A3000806840084000E4B2114911EB041188603D
:102A4000E4B20F4810EB041001218160E4B20C489D
:102A500010EB0410C068C007F8D5E4B2084810EBCA
:102A60000410C06850F00100E4B2054911EB0411F4
:102A7000C86031BDE47400003C8004400070034035
:102A80000071034070B504000D00E4B2002C08D0C2
:102A9000022C2CD018D3042C4FD03BD3052C5FD064
:102AA00071E0DFF8F401006850F48060DFF8E811AD
:102AB00008604FF440716620FFF7F8FD4FF4407155
:102AC0006720FFF7F3FD5EE0DFF8CC01006850F40B
:102AD0000060DFF8C41108604FF440714320FFF735
:102AE000E5FD4FF440714420FFF7E0FD4BE0DFF8D7
:102AF000A801006850F48050DFF89C1108604FF482
:102B000040716320FFF7D2FD4FF440716220FFF760
:102B1000CDFD38E0DFF88001006850F40050DFF8A8
:102B2000781108604FF440715020FFF7BFFD4FF45B
:102B300040715120FFF7BAFD25E0DFF86001006821
:102B400050F48060DFF8541108604FF44071992010
:102B5000FFF7ACFD4FF440719820FFF7A7FD12E09E
:102B6000DFF83801006850F40060DFF830110860C9
:102B70004FF440718920FFF799FD4FF44071882090
:102B8000FFF794FDFFE7E4B2454850F82400C07811
:102B900010F0F300E4B2424951F82410C870E4B2D6
:102BA0003F4850F82400E4B23D4951F82410897898
:102BB0008170E4B2002C02D0E4B2012C05D1394876
:102BC00000684FF47A71484304E0374800684FF4D6
:102BD0007A7148432901B0FBF1F6B6B2B6F5005F51
:102BE00001D341F6FF76B0FBF5F0B6B2B0EB0615B7
:102BF000ADB2202D04D340F203112C48FFF7C3FDE2
:102C0000E4B2274850F82400007810F0E000B6B293
:102C1000310A11F01F010843E4B2214951F8241090
:102C20000870E4B21E4850F824004670E4B21C4814
:102C300050F82400807A10F0E000E4B2184951F80E
:102C4000241015F01F0210438872E4B2144850F8A3
:102C50002400007C50F08800E4B2114951F824109F
:102C60000874E4B20E4850F82400C07850F00C000C
:102C7000E4B20B4951F82410C87070BDC0B2084AC4
:102C800052F8202012791206F8D5C0B2044A52F840
:102C90002000C17170470000348004402880044047
:102CA000AC0700147C0E0014840E0014247600007F
:102CB00010B50400E4B2062C0DD200220021E4B2CB
:102CC0008048205C00F00CF90321E4B27D48205CD0
:102CD000FFF70EFD13E006240CE000220021E4B211
:102CE0007848205C00F0FCF80321E4B27548205CD1
:102CF000FFF7FEFC2000441EC0B20028EDD110BD3D
:102D000080B5C0B26F49405C00F05DF9002801D188
:102D1000002000E0012002BD10B504002000C0B278
:102D2000FFF7EEFF00280FD1674800680A2101FB7A
:102D300000F10320FFF746FE2000C0B2FFF7E0FFDE
:102D4000002801D1002000E0012010BD01B45F483F
:102D50000078022828D05E4800785E499DF800205F
:102D600001F810205A4800785A4911EB40009DF8AC
:102D70000110417056480078401C5549087054486D
:102D80000078142802D3524800210170504800787E
:102D900051490978C0B2884203D14C4802210170E0
:102DA00002E04A480121017001B0704781B04A48F1
:102DB0000078484911F810008DF800004648007866
:102DC000444911EB400040788DF8010042480078FA
:102DD000401C4149087040480078142802D33E48FE
:102DE000002101703A4800783B490978C0B281421D
:102DF00003D136480021017002E0344801210170FE
:102E0000009801B0704731480078002801D10020B7
:102E100000E00120704710B582B0002411E0E4B258
:102E20002E48205C022807D38DF8004001208DF841
:102E300001000098FFF78AFFE4B2284800212154DE
:102E4000641CE4B2062C3BD22000C0B2FFF758FF4E
:102E50000028E4D1E4B22148205C401CE4B21F49C0
:102E60006054E4B21D48205C0228E9D3E4B21B4858
:102E7000205C022808D18DF8004000208DF8010068
:102E80000098FFF763FFDBE7E4B21448205C3328C7
:102E9000D6D3E4B21148205C33280CD18DF8004021
:102EA00002208DF801000098FFF750FFE4B20B48B4
:102EB00002212154C4E7E4B2084802212154BFE7AB
:102EC00013BD0000E0080014840E0014E90E001485
:102ED000E80E0014100D0014E70E0014380D001455
:102EE00070B504000E0015004FF480712000C0B2D0
:102EF000FFF7DCFBF6B2002E11D1E4B260114149BC
:102F000051F82000E4B261113E4A52F8211049699B
:102F1000012214F01F039A409143416136E0E4B26C
:102F20006011384951F82000E4B26111354A52F875
:102F300021104969012214F01F039A401143416195
:102F4000EDB2002D11D1E4B260112E4951F82000EC
:102F50000068012114F01F0291408843E4B261111E
:102F6000284A52F82110086010E0E4B260112549A7
:102F700051F820000068012114F01F02914008431D
:102F8000E4B261111F4A52F82110086070BD10B5FB
:102F90000400E4B260111B4951F82000406914F0AC
:102FA0001F01C840C00703D47B211748FFF7EBFB84
:102FB000E4B26011134951F82000012114F01F02FE
:102FC0009140C16010BD10B50400E4B260110D491C
:102FD00051F82000406914F01F01C840C00703D514
:102FE0008C210948FFF7CFFBE4B26011054951F885
:102FF0002000006914F01F01C84010F0010010BD4E
:103000000000000034070014A47500002DE9F04F03
:10301000A1B0804617461D46029102AE00207062A4
:1030200011AC6FF000490AE017F8011B0298C04785
:103030000290002800F07C82706A401C7062387830
:1030400008B9706A76E22528EED10020F060306180
:103050007061B061F061306201E040F0010017F88A
:10306000011F2029F9D023290ED02B2904D02D2986
:1030700006D030290CD00FE040F0020080B2EEE71D
:1030800040F0040080B2EAE740F0080080B2E6E7D2
:1030900040F0100080B2E2E72A290DD129680A1D0C
:1030A0002A600968F162002904D54942F16240F0C2
:1030B000040080B27F1C11E00021F16209E0F16A96
:1030C000494505D001EB810302EB43013039F16240
:1030D0007F1C3A78A2F130010A29F0D339782E29E1
:1030E0001CBF4FF0FF31B1621CD117F8011F2A2914
:1030F00006D129680A1D2A600968B1627F1C11E0A7
:103100000021B16209E0B16A494505D001EB8103B4
:1031100002EB43013039B1627F1C3A78A2F13001F1
:103120000A29F0D3308639780FF6CC3000F0F2FD62
:1031300008B117F8010B8DF83A009DF83A0068289D
:1031400004D1387868280AD1622005E06C2804BFD1
:1031500038786C2803D171208DF83A007F1C11A8B3
:10316000B0603A781046253825D01C3875D0001F3D
:10317000022872D9133800F09C8009386DD0801E67
:1031800000F03781401E00F0DD80401E022864D927
:10319000001F00F0D780401F34D0401E00F089800F
:1031A000401E24D0C01E0CD0801E00F08280C01EA5
:1031B00000F07F8026E1F068411CF1602521015577
:1031C0002AE12868011D296000687060B26A002A3F
:1031D00003D500F0ABFD30611EE1002100F0C2FD1F
:1031E00000281ABF7168401AB06A306114E128687B
:1031F000011D296000680021CDE9000111A870605F
:103200007821F2E09DF83A00622818D0682806D0AC
:103210006A280BD06C2819D0712807D016E02868CE
:10322000011D2960716A00680180F5E02A68101D9F
:103230002860706AC1171268C2E90001ECE02868D2
:10324000011D2960716A00680170E5E02868011DB0
:103250002960716A00680160DEE02868C01D20F006
:1032600007002860034603F108002860D3E9000145
:10327000CDE90001002904D5F068411CF1602D2141
:103280000DE0308E810704D5F068411CF1602B21E0
:1032900005E0C00704D5F068411CF160202101550C
:1032A000F06811A940187060114600A800F0D8F924
:1032B000B2E09DF83A306C2B08BF286811D0712B12
:1032C00008BF286802D06A2B28680AD1C01D20F0E8
:1032D0000700286084460CF108002860DCE9000142
:1032E00003E0011D296000680021CDE90001682B81
:1032F00004BFDDE9000180B20BD0622B04BFDDE921
:103300000001C0B205D0742B18BF7A2B04D1DDE9BF
:1033100000010021CDE9000196F8300000075FD5DB
:10332000DDE90001002908BF002859D042F0200043
:10333000782855D1F06830210155401C411CF160BE
:1033400002554DE09DF83A0062280CD0682810D054
:103350006A281AD06C2824D0712816D0742820D05E
:103360007A280CD01DE02868011D296090F9000022
:103370001BE02868011D2960B0F9000015E02868ED
:10338000011D29600068002110E02868C01D20F0A0
:1033900007002860034603F108002860D3E9000114
:1033A00004E02868011D29600068C117CDE900010B
:1033B000DDE90001002904DAF068411CF1602D21EB
:1033C0000DE0308E810704D5F068411CF1602B219F
:1033D00005E0C00704D5F068411CF16020210155CB
:1033E000F06811A940187060114600A800F0A5F817
:1033F00012E0F068411CF16029680A1D2A60096822
:10340000015509E0F068411CF160252101551AB110
:10341000F068411CF16002557F1CF06AF168401AA7
:10342000B169401A3169401AF169401A7169401A4C
:10343000316AA0EB010A96F83000400711D4202031
:103440008DF84000BAF1010F0BDBD346012310AA1F
:1034500000A9404600F038FC002869D1BBF1010BFF
:10346000F4D1F36811AA00A9404600F02DFC002811
:103470005ED130208DF84000D6F818B0BBF1010FB6
:103480000ADB012310AA00A9404600F01DFC002819
:103490004ED1BBF1010BF4D13369726800A94046EB
:1034A00000F012FC002843D130208DF84000D6F8FF
:1034B0001CB0BBF1010F09DB012310AA00A9404693
:1034C00000F002FCA0BBBBF1010BF5D173693069C0
:1034D0007168421800A9404600F0F6FB40BB30205E
:1034E0008DF84000D6F820B0BBF1010F09DB0123B5
:1034F00010AA00A9404600F0E7FBC8B9BBF1010BD8
:10350000F5D196F8300040077FF599AD20208DF871
:103510004000BAF1010FFFF692AD012310AA00A9F5
:10352000404600F0D1FB18B9BAF1010AF5D186E5A1
:103530004FF0FF3021B0BDE8F08F2DE9FA4B86B097
:1035400005462F696F2908BF082605D041F02000E5
:10355000782814BF0A2610263C24D5E900018146AC
:103560008B469DF81820642A18BF692A05D10029C6
:1035700003DAD9F100096BEB4B0BBBF1000F08BF6D
:10358000B9F1000F0CD1286B50B9082E44D195F831
:103590003800000740D53B24302087F83B003BE053
:1035A000A4F101084446F017CDE9046048465946A5
:1035B000DDE9042300F002FCCDE90201CDE9009B26
:1035C000DDE90223DDE90401A0FB029BDDE9000146
:1035D000A0EB09003030C0B23A2803D39DF8181090
:1035E0005139081808F80700DDE9029BBBF1000F0C
:1035F00008BFB9F1000F03D0E868E1198842CFD3C2
:10360000082E09D195F83800000705D5E05D30286F
:1036100002D0641E3020E055C4F13C00A861E119DD
:10362000E960296B884207DA081A2862288F4FF66A
:10363000EF710840288710E000290ED595F8381062
:1036400001F01401102908D1696B6A69891A2A6A84
:10365000891A0C1A012CA8BF2C6208B0BDE8F08BA7
:103660002DE9F24F8EB0054604AFD5E90001CDE952
:1036700002019DF8380040F020008DF8000061281C
:103680000BD0286B002848BF062005D404BF9DF846
:103690000000672801D1012028636968C1F30A503E
:1036A00040F2FF7398421CD1080304BF2868002829
:1036B00009D10320A8619DF8380061381A2837D352
:1036C0000FF2486108E00320A8619DF838006138D6
:1036D0001A282AD30FF22C610322E86800F0E6FBD7
:1036E000BBE1010017D1284600F01BFC012812DBCA
:1036F000002400209DF80010612920D1E9683022C3
:1037000001F8012B4A1CEA609DF83820612A0CBFA1
:10371000782258220FE040F2FE316A6861F31E52AF
:103720006A60441A4FF0FF30E4E70FF2D451D3E758
:103730000FF2D451D0E70A706969891C696110B928
:103740000026B0467FE19DF80000612840F0978098
:10375000286B00284CBF2126461C36B2771CD5E9C1
:1037600000ABDDE9020100220023FEF7CBF93ABFEE
:103770008BF00040CDE902A0CDE902ABA4F1040832
:103780008DF810200DF11109012F33DBDDE9020165
:1037900000220023FEF772FF2CD21C2102A800F0A9
:1037A000E3FBDDE90201FEF7C7FC0446FF1F012F22
:1037B00009DBFDF75FFE02460B46DDE90201FEF77D
:1037C0003FFACDE9020109F20700072104E004F005
:1037D0000F0200F8012D2411012C01DB491EF6D542
:1037E000491E5CBF002200F8012DF9D500F207093F
:1037F000012FCBDA0DF11100A9EB00010DF111073A
:10380000B142B8BF0E4636B2002E31D4304688429F
:1038100006DA04A941184978082928BF0F2100D2E7
:10382000002104AA821800E0761E401E12F8013919
:103830008B42F9D00F2904D104A941184A78521CAF
:103840004A70002803D504AF761C08F1040836B28C
:10385000701E0DD4C1190A783032D2B23A2A03D37D
:103860009DF838303A3B9A1801F80129401EF2D5EC
:10387000286B002840F1E780701E2863E3E0DDE953
:10388000020100220023FEF73DF905D2DDE9020125
:1038900081F00041CDE9020124B247F29750604324
:1038A0006F4990FBF1F80FFA88F8C8F10704002778
:1038B000DFF8B091012C19DBDDE902ABE00707D599
:1038C000504659463A464B46FEF74AF882468B46E2
:1038D0006410384649463A464B46FEF741F80746DB
:1038E0008946002CEAD1CDE902AB21E06442924640
:1038F000DFF874B114D0E00707D5504659463A4670
:103900004B46FEF72DF882468B46641038464946F2
:103910003A464B46FEF724F807468946002CEAD182
:10392000DDE9020152465B46FDF7BCFDCDE902012F
:103930009DF8000066280CBF08F10A000620296BDC
:103940004618142EA8BF132630208DF810000DF154
:103950001104464F012E33DBDDE90201FEF702FCC4
:1039600004F1080104220A24B0FBF4F303EB830EF4
:10397000A0EB4E00303001F8010DB3FBF4F000EB8A
:103980008004A3EB4403303301F8013D521EEAD119
:1039900001F10804083E012EDCDBDDE90201FEF73F
:1039A000E1FBFDF771FD02460B46DDE90201FEF782
:1039B00047F900223B46FDF7D3FFCDE90201CBE7F3
:1039C0000DF11100201A0DF111079DF81110302989
:1039D00006D1401EA8F1010817F8011F3029F8D0C0
:1039E0009DF80010662904BF0FFA88F808F101015C
:1039F00003D065290CBF012100212A6B8E1836B235
:103A0000B042B8BF064636B2002E1CD431468142C1
:103A100004DAC85D352828BF392000D23020CA1901
:103A2000521E00E0761E491E12F801398342F9D079
:103A3000392802D1C85D401CC855002903D57F1E16
:103A4000761C08F101080FFA88F0009033B23A466C
:103A50009DF83810284600F00BF80FB0BDE8F08F45
:103A6000A0860100000024400000F03F84D7974169
:103A70002DE9F04786B006468A4690461C46BDF9B9
:103A8000385000F01CFB406A90F80090376B012C16
:103A900002DA01240FF278284AF02000662807D0C5
:103AA00067287AD16FF003018D427CDBBD427ADA60
:103AB0006D1C66280AD096F83800000702D4BC4274
:103AC000B8BF27462DB27F1B48BF0027F068B169F9
:103AD0002DB2012D21DA4A1C30230B54012F03DAB9
:103AE00096F83810090702D502F80090521CB2610E
:103AF000EF42B8BF7D422DB269427162EF19A74211
:103B0000B8BF3C4624B2F46122464146B369181856
:103B100000F0CCF9381BB062BFE00818AC4216DAEE
:103B20002246414600F0C2F9B1696118B161281B13
:103B30007062012F03DA96F83800000705D5F068A7
:103B400001F80090F069401CF061B762A5E02A46D8
:103B5000414600F0ABF9B0692818B061641B012F31
:103B600003DA96F83810090704D5411CB161F168F1
:103B700000F8019024B2A742B8BF3C4624B22246C6
:103B800005EB0801B069F368C01800F08FF9B0695F
:103B90002018B061381B70627FE0BAF1610F14D158
:103BA0004FF0700A16E0BC4204DA96F838100907A4
:103BB00058BF27467F1E48BF0027BAF1670F14BFC2
:103BC0004FF0450A4FF0650A04E0BAF1410F08BF13
:103BD0004FF0500AB1694A1CF06818F8013B0B54C9
:103BE000012F03DA96F83810090702D502F8009081
:103BF000521CB261012F10DB641E24B2A742B8BF71
:103C00003C4624B222464146B369181800F04EF9EA
:103C1000B0692018B061381B7062B069F16800EBC0
:103C2000010808F801AB002D5CBF2B2008F8010B40
:103C300003D52D2008F8010B6D42002402AF2DB2F0
:103C4000012D0EDB0A22294600A800F051FA019846
:103C500007F8010B009D641C2DB2012DF2DA022C35
:103C600006DA4AF02000652804BF302008F8010B6E
:103C70001CB9302008F8010B09E0012C07DB641E99
:103C800002A8205C303008F8010B012CF7DAB0698B
:103C9000F1684018A8EB0000F06196F8380000F0D9
:103CA000140010280DD17069B1690818716A0818DC
:103CB000F1690818B16A0818716B8842BCBF081A0C
:103CC000306206B0BDE8F087F8B504460D461646EA
:103CD0001F46002077B116F8011BA868A047A8600E
:103CE00030B1E86A401CE86200207F1EF3D1F2BDCB
:103CF0004FF0FF30F2BD0000686A6C747A4C00002F
:103D00006E616E004E414E00696E6600494E46007F
:103D1000300000000278C9B28A421AB11CBF10F804
:103D2000012FF9E718BF00207047000000F10103E0
:103D3000810704D010F8011B89B18107FAD102680C
:103D4000B2F10131914311F0803F04BF50F8042FCC
:103D5000F6E710F8011B11B110F8011BFBE7C01AC0
:103D600070470000C9B2830706D0521E22D310F854
:103D7000013B9942F7D11FE0083A13D302F1040244
:103D800041EA012141EA014150F8043B121F21BFE1
:103D90004B40A3F1013C2CEA030C1CF0803FF3D014
:103DA000C9B2001F083210F8013B521E28BF91EA29
:103DB000030FF8D818BF0120401E70471B4213D1D3
:103DC000094236D12AB18446B0FBF2F002FB10C2A0
:103DD000704700F095B9FCD30022002370470B0018
:103DE0000200002100207047904271EB030CF6D3D3
:103DF00070B5B1FA81F4B3FA83F52C1BA340C4F17A
:103E0000200532FA05F63343A2405FF00046E64053
:103E100002E05B085FEA3202841A71EB030524BFFB
:103E2000204629467641F4D302000B0030000021E1
:103E300070BD012ACFD970B5140C20D0B1FA81F42D
:103E4000B2FA82F5C4F120046419B4F12006D6D385
:103E5000B2405FF00044F440002502E052085FEAFF
:103E60003303C61A71EB020E24BF3046714664411B
:103E70006D41F3D302000B002000290070BD0C46F9
:103E8000B1FBF2F102FB11452D0445EA1045B5FBEB
:103E9000F2F402FB145580B240EA0545B5FBF2F09E
:103EA00002FB105240EA044070BD000062B38B0771
:103EB00008D0521E11F8013B00F8013B00F02480AD
:103EC0008B07F6D1830740F0208000BF103A07D35C
:103ED00030B4B1E83810103AA0E83810F9D230BC4C
:103EE000530724BFB1E80810A0E8081044BF51F8F8
:103EF000043B40F8043BD20724BF31F8022B20F8E2
:103F0000022B44BF0B7803707047083A07D3B1E81F
:103F10000810083A40F8043B40F804CBF7D25307A6
:103F2000E4E730B4416801F00042012143681B031B
:103F30001B0B436004BF0368002B0ED0036844686A
:103F4000DD0F45EA440444605B000360491EE30260
:103F5000F4D543681B031B0B436043681A4342605C
:103F6000084630BC7047000070B504460D466068D6
:103F7000C0F30A5040F2FF72904207D1606800031C
:103F800004BF2068002818D0022070BD010004D1B1
:103F90002046FFF7C6FF012867DA012D0FDB40F24C
:103FA000FF71091A8D420AD36068002847BF0020BC
:103FB0002F4900202F49C4E90001012070BD414272
:103FC000A942616806DA2C4A1140401941EA0050C2
:103FD000606053E001F0004162681203120B42F48A
:103FE00080126260401E451905F13500352803D363
:103FF00061600020206070BD002215F11F0F05DAFE
:10400000203522686068206000206060684213D01C
:10401000521E9241D243C0F1200325689D4055EACB
:10402000D2722568C540666806FA03F32B43236005
:10403000636823FA00F06060606808436060B2F172
:10404000004F03D80BD12078C00708D52068401C4A
:104050002060206818B96068401C60600EE06068ED
:10406000884204BF20680028F8D1002070BD0000FD
:104070000000F0FF0000F07FFFFF0F804FF0FF30E7
:1040800070BD000080B5134800F03BF80FF2480106
:10409000016041608160C1600161416181610FF235
:1040A0003C0242628162C162016341630FF23002ED
:1040B00082630FF23402C2630164416401BD10B532
:1040C000044800F01EF80446206808B9FFF7DAFF3C
:1040D000204610BDEC0E0014000000002E00000071
:1040E00066616C7365000000747275650000000005
:1040F00091FBF2F303FB1211C0E90031704700009D
:10410000704770470000000000C07240FCA9F1D267
:104110004D62403F0000000000C0724000B003400C
:1041200000B00B4000000000000000000000000094
:10413000000000000000000000000000000000007F
:1041400000004E6F6E4D61736B61626C6500000024
:1041500000486172644661756C74000000000000E4
:104160004D656D4D616E6167656D656E74000042F1
:1041700075734661756C7400000000000000557393
:104180006167654661756C74000000000000000006
:10419000000000000000000000000000000000001F
:1041A000000000000000000000000000000000000F
:1041B00000000000000000000000000000000000FF
:1041C000000000000000000000535643616C6C00CA
:1041D000000000000000000044656275674D6F6ECE
:1041E00069746F7200000000000000000000000011
:1041F00000000000000050656E645356000000008F
:1042000000000000005379735469636B00000000E4
:1042100000000000444D413000000000000000009C
:10422000000000444D41310000000000000000008B
:104230000000444D4132000000000000000000007A
:1042400000444D4133000000000000000000000069
:10425000444D413400000000000000000000004414
:104260004D41350000000000000000000000444DFA
:1042700041360000000000000000000000444D41F5
:10428000370000000000000000000000444D4138ED
:104290000000000000000000000000444D41390013
:1042A00000000000000000000000444D41313000DB
:1042B000000000000000000000444D4131310000CA
:1042C0000000000000000000444D413132000000B9
:1042D00000000000000000444D41313300000000A8
:1042E000000000000000444D413134000000000097
:1042F0000000000000444D41313500000000000086
:1043000000000000444D415F4572726F7200000072
:104310000000004D434D00000000000000000000C0
:1043200000004654464C0000000000000000000061
:1043300000526561645F436F6C6C6973696F6E00F6
:104340004C56445F4C565700000000000000004CE3
:104350004C57000000000000000000000000576102
:10436000746368646F6700000000000000524E47ED
:10437000000000000000000000000000493243304F
:10438000000000000000000000000049324331003E
:104390000000000000000000000053504930000001
:1043A00000000000000000000053504931000000F0
:1043B00000000000000000005350493200000000DF
:1043C0000000000000000043414E305F4F525F4D3F
:1043D000425F6275660043414E305F4275735F4FC6
:1043E000666600000043414E305F4572726F720096
:1043F0000000000043414E305F54785F5761726E99
:10440000696E6743414E305F52785F5761726E69E3
:104410006E6743414E305F57616B655F55700000BA
:1044200000526573657276656435310000000000E6
:104430005265736572766564353200000000004392
:10444000414E315F4F525F4D425F6275660043419E
:104450004E315F4275735F4F666600000043414E08
:10446000315F4572726F72000000000043414E31AF
:104470005F54785F5761726E696E6743414E315F7A
:1044800052785F5761726E696E6743414E315F5774
:10449000616B655F557000000052657365727665EB
:1044A00064353900000000005265736572766564FA
:1044B0003630000000000055415254305F52585FC2
:1044C00054580000000055415254305F455252008C
:1044D000000000000055415254315F52585F54585B
:1044E0000000000055415254315F45525200000017
:1044F00000000055415254325F52585F545800003A
:10450000000055415254325F4552520000000000F5
:104510000055415254335F52585F54580000000018
:1045200055415254335F455252000000000000557F
:10453000415254345F52585F5458000000005541B6
:104540005254345F45525200000000000055415261
:1045500054355F52585F5458000000005541525482
:10456000355F4552520000000000004144433000D6
:104570000000000000000000000041444331000042
:10458000000000000000000000434D50300000001B
:104590000000000000000000434D5031000000000A
:1045A00000000000000000434D50320000000000F9
:1045B00000000000000046544D30000000000000E4
:1045C000000000000046544D3100000000000000D3
:1045D0000000000046544D320000000000000000C2
:1045E000000000434D5400000000000000000000E7
:1045F00000005254430000000000000000000000D2
:1046000000526573657276656438330000000000FF
:10461000504954300000000000000000000000502D
:104620004954310000000000000000000000504923
:104630005432000000000000000000000050495407
:104640003300000000000000000000005044423031
:104650000000000000000000000000555342300040
:104660000000000000000000000055534244434495
:10467000000000000000000000454E45545F313549
:1046800038385F54696D6572454E45545F547261A8
:104690006E736D69740000454E45545F52656365E5
:1046A000697665000000454E45545F4572726F7231
:1046B00000000000004932533000000000000000FC
:1046C00000000000534448430000000000000000C8
:1046D00000000044414330000000000000000000E2
:1046E00000004441433100000000000000000000D1
:1046F000005453493000000000000000000000009A
:104700004D43470000000000000000000000004C86
:104710005054696D65720000000000000000526591
:1047200073657276656431303200000000504F527C
:10473000544100000000000000000000504F52549F
:104740004200000000000000000000504F5254439F
:1047500000000000000000000000504F52544400D0
:10476000000000000000000000504F5254450000BF
:1047700000000000000000005265736572766564F9
:10478000313038000000005265736572766564311F
:10479000303900000000526573657276656431310E
:1047A0003000000000526573657276656431313106
:1047B0000000000052657365727665643131320025
:1047C0000000005265736572766564313133000014
:1047D0000000526573657276656431313400000003
:1047E00000526573657276656431313500000000F2
:1047F000526573657276656431313600000000528F
:10480000657365727665643131370000000052656A
:10481000736572766564313138000000005265734B
:104820006572766564313139000000000080034014
:104830000090034000800B4000F00F4040F00F401C
:1048400080F00F40C0F00F4000F10F4000600640C4
:1048500000700640F0000A1D3000180032001801F8
:10486000600018186400181A6E00181F78001318DA
:104870007D00131A8200131C8C000E1296000E1578
:10488000A0000E18AA000E1BB4000E1EC8000C1CBF
:10489000E1000B1EFA000A1F000109080090044005
:1048A00000A0044000B0044000C0044000D0044018
:1048B00000A0064000B0064000C0064000D0064000
:1048C00000A00E4000B00E400000803FCDCC4C3E1A
:1048D000000000008FC2753C1B2FDD3C39B4C83D81
:1048E00045D8F03D65AA203E70CEC83E00000000CD
:1048F000CDCC4C3D4A7B033E6688833EE336BA3ED0
:10490000F90215500000F0400000F040CDCC4C40C2
:10491000CDCC4C403333F33F3333F33F6666A63F91
:104920006666A63F0000803F0000803FCDCC4C3F34
:104930000000000000000000F90215506666E64025
:104940000000E040CDCC4C40CDCC4C406666E63F0C
:104950006666E63F9A99993F9A99993F6666663FDF
:104960006666663F3333333F0000000000000000FE
:10497000F90215500000D0400000D0400000404037
:10498000000040409A99D93F9A99D93FCDCC8C3FAD
:10499000CDCC8C3FCDCC4C3FCDCC4C3F9A99193FE0
:1049A0000000000000000000000020410000C03FA7
:1049B0000000C03F9A99993F9A99993F0000803F23
:1049C0000000803F0000003F0000003F9A99993EA0
:1049D0009A99993ECDCCCC3D00000000000000002B
:1049E0003435363752606268696A00000000404022
:1049F00017B7513A0000803F0000A0410AD7A33BFF
:104A0000EC51B83D000070410000803F6F12033B45
:104A10000AD7233C32000000190000000A00000001
:104A20000300000002040101880E0014D80E0014D7
:104A3000880E0014880E0014880E00145D090014FE
:104A40004409001400000000000000000000000005
:104A50000000000000000000000000000000000056
:104A60000000000010F00701DFF8B80600684FF6FC
:104A7000FF021040DFF8B02652EA01210843DFF8B8
:104A8000A41608607047DFF89C060068C0F3022097
:104A9000704740B24109DFF89426012310F01F004F
:104AA00013FA00F042F82100704740B2002809D5FF
:104AB00040B210F00F00DFF878268018090100F8E6
:104AC000041C04E040B2DFF86C26090181547047F1
:104AD00010B410F00700D0F10703052B01D3042315
:104AE00001E0D0F10703041D072C01D2002000E0F3
:104AF000C01E012414FA03F35B1E194081400123F8
:104B000013FA00F0401E1040084310BC704780B5F7
:104B100072B6FBF781FC00F04FF8DFF81C16DFF8E7
:104B20001C0600F084FBDFF81816DFF8180600F00A
:104B30007EFBDFF81416DFF8140600F0B1FBDFF897
:104B40001016DFF8100600F0ABFBDFF80C16DFF8EC
:104B50000C0600F0A5FBDFF80816DFF8080600F0E9
:104B60009FFBDFF80416DFF8040600F099FBDFF87E
:104B70000016DFF8000600F093FBDFF8FC15DFF805
:104B8000FC0500F08DFBDFF8F815DFF8F80500F004
:104B900087FB0123DFF8F005B0F90000DFF8EC1522
:104BA000B1F900100818022190FBF1F212B20621AF
:104BB000192000F0AEFBFEE780B54FF47A7344F69F
:104BC000206204210020FDF76AFB4FF47A7344F65B
:104BD000206205210020FDF762FB4FF47A7344F652
:104BE000206206210020FDF75AFB4FF47A7344F649
:104BF000206207210020FDF752FB0120FDF766FC33
:104C00000220FDF763FCDFF88815012000F086FE26
:104C100013212020FDF76CFD13212120FDF768FDF5
:104C200001F09EF801F0FAF800F0E0FA5FF4E131EB
:104C30000420FDF727FF0520FFF714FFFFF723FFF0
:104C400000220021FFF744FF01005820FFF72DFF4D
:104C5000FFF719FF01220121FFF73AFF01003A2077
:104C6000FFF723FFFFF70FFF02220221FFF730FFBC
:104C700001004420FFF719FF0FF2DD01542001F07D
:104C800018F90FF2A9314A2001F013F90FF24D4142
:104C9000682001F00EF9DFF8FC142320FDF706FD73
:104CA0004FF481712120FDF701FD4FF481711D202A
:104CB000FDF7FCFC4FF481711B20FDF7F7FC4FF46E
:104CC00081711A20FDF7F2FC40F203111A20FDF762
:104CD000EDFC002200211D20FEF702F90022002138
:104CE0001B20FEF7FDF8002200211A20FEF7F8F83D
:104CF000002200212120FEF7F3F8002201214820A4
:104D0000FEF7EEF82A2001F0EBF82B2001F0E8F88E
:104D10002C2001F0E5F82D2001F0E2F82E2001F022
:104D2000DFF8DFF874040068FCF7A4FB0022DFF86A
:104D30006C34FCF715FEFDF715FA01000020FDF7B5
:104D40000BFE4420FFF7A5FE5820FFF7A2FE3A20F5
:104D5000FFF79FFE62B601BD80B5DFF8440400682E
:104D600050F00100DFF83814086000F047F900F057
:104D700047FADFF83004007800280BD10122022125
:104D80002A2001F0B3F9DFF81C040078401CDFF89A
:104D90001414087000F06FF800F011F9DFF808043F
:104DA0000168DFF808040068FBF7C7FB0123DFF8A0
:104DB000D803B0F90000DFF8D413B1F900100818D7
:104DC000022190FBF1F212B20621192000F0A1FAA3
:104DD000DFF8DC03007840072FD5DFF8D403007834
:104DE00010F0FB00DFF8C81308700123DFF8C403DC
:104DF00002680021002001F0DDFA0123DFF8B8038A
:104E000002680121002001F0D5FA0123DFF8AC038C
:104E100002680221002001F0CDFA0123DFF8A0038F
:104E200002680321002001F0C5FA0123DFF8940392
:104E300002680421002001F0BDFADFF88C0300684D
:104E4000401CDFF884130860DFF87C030068DFF89B
:104E50007C13884203D1DFF8700300210160DFF882
:104E600044030078002805D0DFF8340300680128E7
:104E7000F5D1FEE701BD10B586B002A800210022E1
:104E800000230EC00C380024002000210C0008E094
:104E90002921272000F094FFE4B202A921F8140090
:104EA000641CE4B2052CF3D3052024E0E4B202A98B
:104EB00011EB4401B1F90210E4B202AA32F9142054
:104EC000914211DAE4B202A931F91410E4B202AA53
:104ED00012EB44025288E4B202AB23F81420E4B28D
:104EE00002AA12EB44025180641CE4B2C0B2411E1B
:104EF0008C42DBDB401EC0B2022801D30024F4E761
:104F0000BDF90E00BDF90E1001FA80F0022190FBF0
:104F1000F1F0DFF8BC12088000A80021002206C0D2
:104F20000838002408E00521012000F0EDFEE4B27D
:104F300000A921F81400641CE4B2052CF3D304206A
:104F400024E0E4B200A911EB4401B1F90210E4B28B
:104F500000AA32F91420914211DAE4B200A931F921
:104F60001410E4B200AA12EB44025288E4B200AB7F
:104F700023F81420E4B200AA12EB44025180641C0E
:104F8000E4B2C0B2411E8C42DBDB401EC0B202283C
:104F900001D30024F4E7BDF90400BDF9061001FABD
:104FA00080F0022190FBF1F08A4908808948B0F92D
:104FB0000000FCF7CBF98849086006B010BD80B549
:104FC0008348B0F9000085490968401AFCF7BEF92A
:104FD0007549086058480068FCF7B8F901007E4838
:104FE0000068FCF7CBFB7C4908606F4801687A4891
:104FF000006801F023FA6D49086001BD80B5012009
:10500000FDF7E7FA614908806048B0F900004042C6
:105010005E4908800220FDF7DCFA5B490880012028
:10502000FDF7EBFA0220FDF7E8FA01BD80B56C4808
:10503000006830F080006A4908605A48007801280A
:1050400007D049D3032822D012D305283DD02DD331
:1050500042E05848634909680160012202212B207F
:1050600001F044F84F480078401C4E49087033E086
:1050700053485C4909680160012202212C2001F09B
:1050800035F848480078401C4649087024E04D48EF
:10509000544909680160012202212D2001F026F8FF
:1050A00040480078401C3F49087015E043484D498E
:1050B00009680160012202212E2001F017F8394809
:1050C0000078401C3749087006E03B4845490968AC
:1050D000016034480021017001BD000080B500204E
:1050E000032108004049096801228240114218D07A
:1050F000012111FA00F03C4908601A20FDF763FF16
:10510000012803D11A48002101600AE01B20FDF7A5
:105110005AFF012805D12648007850F004002449A0
:10512000087001BD0CED00E00000FA0500E100E0B0
:1051300018ED00E000E400E01809001440780000D9
:105140001009001448780000E808001450780000A6
:10515000EC08001458780000F00800146078000093
:10516000F408001468780000FC080014707800004F
:105170000009001478780000040900148078000009
:105180000C09001488780000DC0E0014DA0E0014FC
:10519000804F120002010900840E00140000144028
:1051A0000C710340EB0E0014580E0014600E001436
:1051B000EA0E0014640E0014680E00146C0E001445
:1051C000700E0014740E0014780E001438669C01E2
:1051D000DE0E0014E00E00145C0E00141C09001416
:1051E00000B00B4010B00B40A0A0044080B500F010
:1051F000C5FF002001F039F80620FDF759FD01BD7B
:1052000010B5DFF8C806007800F0F1F8022401E0DC
:10521000FDF701FE2000441EC0B20028F8D1FDF7C2
:10522000F2FDC0B2012801D100F0D6F910BD30B4B2
:10523000DFF89C261278142A01D100202EE00022EB
:105240000CE0D2B2DFF888361B780C24DFF88456E5
:1052500004FB0353D2B2145CD454521CD2B2135C7C
:10526000002BEED1D2B2DFF8680600780C23DFF80D
:10527000644603FB004000231354DFF85406007813
:105280000C22DFF8503602FB00308160DFF8400668
:105290000078401CDFF838160870012030BC7047D9
:1052A00030B4DFF834261278142A01D100202EE021
:1052B00000220CE0D2B2DFF820361B780C24DFF895
:1052C0001C5604FB0353D2B2145CD454521CD2B209
:1052D000135C002BEED1D2B2DFF8FC0500780C2372
:1052E000DFF8F84503FB004000231354DFF8E8051E
:1052F00000780C22DFF8E43502FB00308160DFF833
:10530000D8050078401CDFF8D0150870012030BCAB
:10531000704710B5DFF8B4452478002C04D1DBB217
:10532000C9B2C0B201F046F810BD2DE9F84306003D
:10533000894614001D00DDF8208020002900FCF7BC
:10534000FBFE07004346DBB2984620002900FCF72D
:10535000F3FE020043464946C9B23000C0B201F034
:1053600029F820002900DFF87825DFF87835FCF7E8
:10537000C9FB01D295F000453800FCF77BF802002C
:105380000B0020002900FCF75BFC0022DFF85835F9
:10539000FCF7E6FAFCF7D0FE040000256D1C0A209D
:1053A00097FBF0F7012FF9DA012C1EDB4346DBB245
:1053B00085A24946C9B25FFA88F808FB05F0C0002B
:1053C00050FA86F0C0B200F06EFF4346DBB2220016
:1053D0004946C9B2681C5FFA88F808FB00F0C000B3
:1053E00050FA86F0C0B200F0E5FFBDE8F18380B569
:1053F000C0B2002808D0022822D006D3042800F02A
:10540000E280C0F0AC80DEE0DDE00123DFF8DC24E8
:105410000021012000F047FF0223DFF8D4240221FD
:105420000D2000F040FF022368A20621022000F0B8
:105430003AFF022366A20621672000F034FFC2E093
:105440000123DFF8B0240521012000F02CFF022306
:10545000DFF8A4240621012000F025FF02235DA22D
:1054600006215F2000F01FFFDFF890040078401E47
:1054700001281EDB0123DFF8840400780C21DFF80B
:10548000542401FB0020B0F10C020021022000F0A6
:105490000AFF0123DFF8640400780C21DFF83424CC
:1054A00001FB002050F8040C02680021302000F0BD
:1054B00081FFDFF848040078002824D4DFF83C049A
:1054C0000078DFF80C14097888421CD20223DFF838
:1054D0002C0400780C21DFF8FC2301FB00220121C1
:1054E000022000F0E0FE0223DFF8100400780C2117
:1054F000DFF8E02301FB00208068026801213020F2
:1055000000F058FF03E0DFF8F40300210170DFF83A
:10551000EC030078401CDFF8B813097888421DDAE4
:105520000123DFF8D80300780C21DFF8A82301FB62
:10553000002010F10C020321022000F0B4FE012330
:10554000DFF8B80300780C21DFF8882301FB002086
:10555000406902680321302000F02CFF33E0DFF8BF
:10556000A0030078002829D4DFF894030078DFF83E
:1055700068130978884221D20223DFF88403007877
:105580000C21DFF8582301FB00220121022000F04A
:105590008AFEDFF86C0300780C21DFF8402301FB62
:1055A000002080680068FBF73DFF022200920200A5
:1055B0000B0001213020FFF7B8FE03E0DFF84003C5
:1055C00000210170FFE701BD2E00000046756E004E
:1055D000457363007C2D3E0080B5FDF7E7FB00902E
:1055E0009DF80000002835D002286BD0C0F0BA80AA
:1055F000042800F0338103D3052800F0038163E120
:105600009DF80100002803D09DF80100022820D158
:10561000AE480078002806D0022806D004D304281B
:1056200017D00CD315E014E013E0B448007801283B
:1056300004D3B2480078401EB049087009E0B04871
:105640000078012804D3AE480078401EAC490870A9
:10565000FFE739E19DF80100002803D09DF8010023
:1056600002282ED199480078002806D0022806D0BA
:1056700004D3042825D013D323E022E021E09F485F
:105680000078401C9D4908709C4800789049097832
:10569000884204D38E480078401E9849087010E074
:1056A00097480078401C96490870954800788A49C8
:1056B0000978884204D388480078401E90490870D1
:1056C000FFE701E19DF80100002803D09DF80100EB
:1056D000022846D17D480078002806D0022806D04E
:1056E00004D304283DD01AD33BE03AE039E08348A4
:1056F00000780C21774A01FB0020806800689DF843
:105700000110002901D1401C00E0401D7B490978AF
:105710000C22704B02FB01318968086021E0784857
:1057200000780C216D4A01FB002080680068FBF7BF
:1057300079FE9DF80120002A04D1724A724BFCF7D1
:105740000BFA03E00022714BFCF706FAFBF7CEFFE1
:105750006B4909780C22614B02FB013189680860B2
:10576000FFE7B1E09DF80100002803D09DF801009B
:10577000022846D155480078002806D0022806D0D5
:1057800004D304283DD01AD33BE03AE039E05B482B
:1057900000780C214F4A01FB0020806800689DF8CA
:1057A0000110002901D1401E00E0401F5349097833
:1057B0000C22484B02FB01318968086021E0504807
:1057C00000780C21454A01FB002080680068FBF747
:1057D00029FE9DF80120002A04D14A4A4C4BFCF7CF
:1057E000BBF903E000224B4BFCF7B6F9FBF77EFF59
:1057F000434909780C22394B02FB01318968086062
:10580000FFE761E09DF80100002826D12F480078CD
:10581000002806D0022816D00CD304281DD01BD394
:105820001BE0002000F021FD28480078401C27499B
:10583000087012E0002000F018FD24480078401C99
:105840002249087009E0002000F00FFD1F48007891
:10585000401C1E49087000E0FFE735E09DF801009C
:10586000002831D119480078012807D3002000F022
:10587000FCFC16480078401E144908701348007854
:10588000002806D002281DD01BD304281CD01AD310
:105890001AE00223204A0221052000F004FD002026
:1058A00005E0491C4FF47A729142FADB401C42F247
:1058B0001071884201DA6421F4E7002000F0D5FC81
:1058C00002E001E000E0FFE701BD0000E60E001489
:1058D000E20E0014300B0014E30E0014200C001430
:1058E0008DEDB5A0F7C6B03E000059405C770000D2
:1058F000047800007477000038780000E40E00148B
:10590000E50E00149A9999999999B93F0000E03FE2
:105910009999B9BF0000E0BF147800002DE9F04369
:10592000A1B004000D00E4B2002C12D1DFF8A803EE
:10593000006850F04000DFF8A013086040F2232117
:105940006820FCF7B3FE40F223216920FCF7AEFE8D
:1059500011E0DFF88403006850F08000DFF878136E
:10596000086040F223214A20FCF7A0FE40F22321E8
:105970004B20FCF79BFE00A8DFF860138022FEF7A7
:10598000A5FAD74800684CF25131884201DA002666
:1059900007E0D3480068D349884201DA012600E0D5
:1059A0000226CF4800684FF47A714843F6B2711C62
:1059B0006943B0FBF1F75FF040084FF6FF7906E06E
:1059C00080B21FFA89F9484501D2454681465FFAFF
:1059D00088F8B8F1000F0ED0B8F10108BFB25FFA35
:1059E00088F800A830F81800381A00F099FD80B245
:1059F0000028E5D14546E4B2BB4850F8240015F034
:105A00003F0151EA86114170E4B2B74850F82400D2
:105A100080218170B24800684FF47A714843F6B231
:105A2000711CEDB200AA32F81520514390FBF1F041
:105A300021B0BDE8F083000081B06420ADF8000023
:105A400000E000BFBDF80000411EADF8001080B2BC
:105A50000028F6D101B0704700E000BF0100481EE9
:105A6000C9B20029F9D1704770B504000D001600C5
:105A7000280603D5DF219D48FCF785FEE4B29A484D
:105A800050F82400807850F03000E4B2964951F884
:105A9000241088700120FFF7DFFFE4B2924850F82D
:105AA000240069000171E4B28F4850F82400C078E6
:105AB0008007F8D5E4B28C4850F82400C07850F044
:105AC0000200E4B2884951F82410C8700120FFF7A1
:105AD000C3FFE4B2844850F824000671E4B282485F
:105AE00050F82400C0788007F8D5E4B27E4850F81A
:105AF0002400C07850F00200E4B27B4951F8241031
:105B0000C8700120FFF7A8FFE4B2774850F82400DE
:105B1000807850F00400E4B2734951F82410887082
:105B20000120FFF799FFE4B26F4850F824006900A4
:105B300051F001010171E4B26B4850F82400C078C3
:105B40008007F8D5E4B2684850F82400C07850F0D7
:105B50000200E4B2644951F82410C8700120FFF734
:105B60007BFFE4B2604850F82400807810F0EF002A
:105B7000E4B25D4951F824108870E4B25A4850F8F4
:105B80002400807850F00800E4B2574951F82410FE
:105B90008870E4B2544850F824000579E4B25248C1
:105BA00050F82400C0788007F8D5E4B24E4850F889
:105BB0002400C07850F00200E4B24B4951F82410A0
:105BC000C870E4B2484850F82400807810F0CF0044
:105BD000E4B2454951F824108870E4B2424850F8C4
:105BE00024000579FFF728FF2800C0B270BDF8B582
:105BF00004000D0016001F00E4B23B4850F82400DA
:105C0000807850F03000E4B2374951F824108870A1
:105C10000120FFF721FFE4B2334850F82400690067
:105C20000171E4B2304850F82400C0788007F8D5FC
:105C3000E4B22D4850F82400C07850F00200E4B2DD
:105C4000294951F82410C8700120FFF705FFE4B27C
:105C5000254850F824000671E4B2234850F8240087
:105C6000C0788007F8D5E4B21F4850F82400C07807
:105C700050F00200E4B21C4951F82410C870012011
:105C8000FFF7EAFEE4B2184850F824000771E4B2C6
:105C9000154850F82400C0788007F8D5E4B21248BF
:105CA00050F82400C07850F00200E4B20E4951F8D8
:105CB0002410C8700120FFF7CFFEE4B20A4850F864
:105CC0002400807810F0CF00E4B2074951F8241086
:105CD0008870FFF7B1FEF1BD3480044020740000ED
:105CE000840E0014A186010048070014E47500002A
:105CF000401E010089B2002905D00021C9B26429E3
:105D0000F6D2491CFAE7704770B504000D00002078
:105D10000026EDB2072D01D3002020E0C0B22042C2
:105D20000BD100221D210120FFF79EFE761C3100C1
:105D300040F2F51289B29142F0D32A00D2B21D216D
:105D40000120FFF791FE04006A1CD2B21D21012040
:105D5000FFF78AFE2402044324B2A01000B270BDF3
:105D600080B50D221D210120FFF77EFE1A28F8D1F3
:105D70000A20FFF7BDFF00230B221D210120FFF7A2
:105D800036FF0A20FFF7B4FF02232B221D2101203A
:105D9000FFF72DFF0A20FFF7ABFF01232A221D2169
:105DA0000120FFF724FF01BD401E010089B2002938
:105DB00005D00021C9B26429F6D2491CFAE7704720
:105DC000F8B504000D000020002600270021EDB2E8
:105DD0002E2D01D3002020E0C0B220420BD127227B
:105DE00069210120FFF740FE761C310040F2F512D8
:105DF00089B29142F0D32A00D2B269210120FFF783
:105E000033FE07006A1ED2B269210120FFF72CFE83
:105E100001003F020F43380000B2F2BD80B50F22EF
:105E200069210120FFF720FED328F8D10A20FFF7CF
:105E3000BBFFFF23202269210120FFF7D8FE0A20A3
:105E4000FFF7B2FF0023212269210120FFF7CFFED7
:105E50000A20FFF7A9FF0823222269210120FFF76A
:105E6000C6FE0A20FFF7A0FF30232322692101206C
:105E7000FFF7BDFE0A20FFF797FF002324226921C8
:105E80000120FFF7B4FE0A20FFF78EFF01BD0000DE
